{
  "contractName": "OneShotSchedule",
  "abi": [
    {
      "anonymous": false,
      "inputs": [
        {
          "indexed": true,
          "internalType": "bytes32",
          "name": "id",
          "type": "bytes32"
        },
        {
          "indexed": false,
          "internalType": "bool",
          "name": "success",
          "type": "bool"
        },
        {
          "indexed": false,
          "internalType": "bytes",
          "name": "result",
          "type": "bytes"
        }
      ],
      "name": "Executed",
      "type": "event"
    },
    {
      "anonymous": false,
      "inputs": [
        {
          "indexed": true,
          "internalType": "bytes32",
          "name": "id",
          "type": "bytes32"
        }
      ],
      "name": "ExecutionCancelled",
      "type": "event"
    },
    {
      "anonymous": false,
      "inputs": [
        {
          "indexed": true,
          "internalType": "address",
          "name": "requestor",
          "type": "address"
        },
        {
          "indexed": false,
          "internalType": "uint256",
          "name": "plan",
          "type": "uint256"
        },
        {
          "indexed": false,
          "internalType": "uint256",
          "name": "amount",
          "type": "uint256"
        }
      ],
      "name": "ExecutionPurchased",
      "type": "event"
    },
    {
      "anonymous": false,
      "inputs": [
        {
          "indexed": true,
          "internalType": "bytes32",
          "name": "id",
          "type": "bytes32"
        },
        {
          "indexed": false,
          "internalType": "uint256",
          "name": "timestamp",
          "type": "uint256"
        }
      ],
      "name": "ExecutionRequested",
      "type": "event"
    },
    {
      "anonymous": false,
      "inputs": [
        {
          "indexed": true,
          "internalType": "uint256",
          "name": "index",
          "type": "uint256"
        },
        {
          "indexed": false,
          "internalType": "uint256",
          "name": "price",
          "type": "uint256"
        },
        {
          "indexed": false,
          "internalType": "address",
          "name": "token",
          "type": "address"
        },
        {
          "indexed": false,
          "internalType": "uint256",
          "name": "window",
          "type": "uint256"
        }
      ],
      "name": "PlanAdded",
      "type": "event"
    },
    {
      "anonymous": false,
      "inputs": [
        {
          "indexed": true,
          "internalType": "uint256",
          "name": "index",
          "type": "uint256"
        }
      ],
      "name": "PlanRemoved",
      "type": "event"
    },
    {
      "inputs": [],
      "name": "payee",
      "outputs": [
        {
          "internalType": "address",
          "name": "",
          "type": "address"
        }
      ],
      "stateMutability": "view",
      "type": "function"
    },
    {
      "inputs": [
        {
          "internalType": "uint256",
          "name": "",
          "type": "uint256"
        }
      ],
      "name": "plans",
      "outputs": [
        {
          "internalType": "uint256",
          "name": "pricePerExecution",
          "type": "uint256"
        },
        {
          "internalType": "uint256",
          "name": "window",
          "type": "uint256"
        },
        {
          "internalType": "contract IERC677",
          "name": "token",
          "type": "address"
        },
        {
          "internalType": "bool",
          "name": "active",
          "type": "bool"
        }
      ],
      "stateMutability": "view",
      "type": "function"
    },
    {
      "inputs": [
        {
          "internalType": "address",
          "name": "",
          "type": "address"
        },
        {
          "internalType": "uint256",
          "name": "",
          "type": "uint256"
        }
      ],
      "name": "remainingExecutions",
      "outputs": [
        {
          "internalType": "uint256",
          "name": "",
          "type": "uint256"
        }
      ],
      "stateMutability": "view",
      "type": "function"
    },
    {
      "inputs": [],
      "name": "serviceProvider",
      "outputs": [
        {
          "internalType": "address",
          "name": "",
          "type": "address"
        }
      ],
      "stateMutability": "view",
      "type": "function"
    },
    {
      "inputs": [
        {
          "internalType": "address",
          "name": "serviceProvider_",
          "type": "address"
        },
        {
          "internalType": "address",
          "name": "payee_",
          "type": "address"
        }
      ],
      "name": "initialize",
      "outputs": [],
      "stateMutability": "nonpayable",
      "type": "function"
    },
    {
      "inputs": [
        {
          "internalType": "uint256",
          "name": "price",
          "type": "uint256"
        },
        {
          "internalType": "uint256",
          "name": "window",
          "type": "uint256"
        },
        {
          "internalType": "contract IERC677",
          "name": "token",
          "type": "address"
        }
      ],
      "name": "addPlan",
      "outputs": [],
      "stateMutability": "nonpayable",
      "type": "function"
    },
    {
      "inputs": [
        {
          "internalType": "uint256",
          "name": "plan",
          "type": "uint256"
        }
      ],
      "name": "removePlan",
      "outputs": [],
      "stateMutability": "nonpayable",
      "type": "function"
    },
    {
      "inputs": [],
      "name": "plansCount",
      "outputs": [
        {
          "internalType": "uint256",
          "name": "",
          "type": "uint256"
        }
      ],
      "stateMutability": "view",
      "type": "function"
    },
    {
      "inputs": [
        {
          "internalType": "address",
          "name": "payee_",
          "type": "address"
        }
      ],
      "name": "setPayee",
      "outputs": [],
      "stateMutability": "nonpayable",
      "type": "function"
    },
    {
      "inputs": [
        {
          "internalType": "uint256",
          "name": "plan",
          "type": "uint256"
        },
        {
          "internalType": "uint256",
          "name": "quantity",
          "type": "uint256"
        }
      ],
      "name": "purchase",
      "outputs": [],
      "stateMutability": "nonpayable",
      "type": "function"
    },
    {
      "inputs": [
        {
          "internalType": "address",
          "name": "from",
          "type": "address"
        },
        {
          "internalType": "uint256",
          "name": "amount",
          "type": "uint256"
        },
        {
          "internalType": "bytes",
          "name": "data",
          "type": "bytes"
        }
      ],
      "name": "tokenFallback",
      "outputs": [
        {
          "internalType": "bool",
          "name": "",
          "type": "bool"
        }
      ],
      "stateMutability": "nonpayable",
      "type": "function"
    },
    {
      "inputs": [
        {
          "internalType": "bytes32",
          "name": "id",
          "type": "bytes32"
        }
      ],
      "name": "getState",
      "outputs": [
        {
          "internalType": "enum OneShotSchedule.ExecutionState",
          "name": "",
          "type": "uint8"
        }
      ],
      "stateMutability": "view",
      "type": "function"
    },
    {
      "inputs": [
        {
          "components": [
            {
              "internalType": "address",
              "name": "requestor",
              "type": "address"
            },
            {
              "internalType": "uint256",
              "name": "plan",
              "type": "uint256"
            },
            {
              "internalType": "address",
              "name": "to",
              "type": "address"
            },
            {
              "internalType": "bytes",
              "name": "data",
              "type": "bytes"
            },
            {
              "internalType": "uint256",
              "name": "gas",
              "type": "uint256"
            },
            {
              "internalType": "uint256",
              "name": "timestamp",
              "type": "uint256"
            },
            {
              "internalType": "uint256",
              "name": "value",
              "type": "uint256"
            },
            {
              "internalType": "enum OneShotSchedule.ExecutionState",
              "name": "state",
              "type": "uint8"
            }
          ],
          "internalType": "struct OneShotSchedule.Execution",
          "name": "execution",
          "type": "tuple"
        }
      ],
      "name": "hash",
      "outputs": [
        {
          "internalType": "bytes32",
          "name": "",
          "type": "bytes32"
        }
      ],
      "stateMutability": "pure",
      "type": "function"
    },
    {
      "inputs": [
        {
          "internalType": "uint256",
          "name": "plan",
          "type": "uint256"
        },
        {
          "internalType": "address",
          "name": "to",
          "type": "address"
        },
        {
          "internalType": "bytes",
          "name": "data",
          "type": "bytes"
        },
        {
          "internalType": "uint256",
          "name": "gas",
          "type": "uint256"
        },
        {
          "internalType": "uint256",
          "name": "timestamp",
          "type": "uint256"
        }
      ],
      "name": "schedule",
      "outputs": [],
      "stateMutability": "payable",
      "type": "function"
    },
    {
      "inputs": [
        {
          "internalType": "bytes32",
          "name": "id",
          "type": "bytes32"
        }
      ],
      "name": "getSchedule",
      "outputs": [
        {
          "internalType": "address",
          "name": "requestor",
          "type": "address"
        },
        {
          "internalType": "uint256",
          "name": "plan",
          "type": "uint256"
        },
        {
          "internalType": "address",
          "name": "to",
          "type": "address"
        },
        {
          "internalType": "bytes",
          "name": "data",
          "type": "bytes"
        },
        {
          "internalType": "uint256",
          "name": "gas",
          "type": "uint256"
        },
        {
          "internalType": "uint256",
          "name": "timestamp",
          "type": "uint256"
        },
        {
          "internalType": "uint256",
          "name": "value",
          "type": "uint256"
        },
        {
          "internalType": "enum OneShotSchedule.ExecutionState",
          "name": "state",
          "type": "uint8"
        }
      ],
      "stateMutability": "view",
      "type": "function"
    },
    {
      "inputs": [
        {
          "internalType": "bytes32",
          "name": "id",
          "type": "bytes32"
        }
      ],
      "name": "cancelScheduling",
      "outputs": [],
      "stateMutability": "nonpayable",
      "type": "function"
    },
    {
      "inputs": [
        {
          "internalType": "bytes32",
          "name": "id",
          "type": "bytes32"
        }
      ],
      "name": "execute",
      "outputs": [],
      "stateMutability": "nonpayable",
      "type": "function"
    }
  ],
  "bytecode": "0x608060405234801561001057600080fd5b50613b15806100206000396000f3fe60806040526004361061011b576000357c01000000000000000000000000000000000000000000000000000000009004806370876c98116100b2578063b162061611610081578063b162061614610348578063b395bb4b14610388578063c0ee0b8a146103c5578063debd4c3d14610402578063e751f2711461042b5761011b565b806370876c98146102ad57806373eab687146102d65780638d69e95e146102f2578063ae90b2131461031d5761011b565b8063485cc955116100ee578063485cc955146101f357806354ceba0a1461021c57806358fa1d9d14610245578063591c613c146102825761011b565b806309648a9d1461012057806328e550e61461015d5780633adc277a14610186578063410459ad146101ca575b600080fd5b34801561012c57600080fd5b5061014760048036038101906101429190612a66565b610454565b60405161015491906133cd565b60405180910390f35b34801561016957600080fd5b50610184600480360381019061017f9190612ad0565b610763565b005b34801561019257600080fd5b506101ad60048036038101906101a89190612a66565b61091e565b6040516101c19897969594939291906132e2565b60405180910390f35b3480156101d657600080fd5b506101f160048036038101906101ec9190612930565b610b83565b005b3480156101ff57600080fd5b5061021a60048036038101906102159190612959565b610cc7565b005b34801561022857600080fd5b50610243600480360381019061023e9190612a66565b610f0c565b005b34801561025157600080fd5b5061026c60048036038101906102679190612a8f565b6111f3565b60405161027991906133b2565b60405180910390f35b34801561028e57600080fd5b5061029761124b565b6040516102a49190613608565b60405180910390f35b3480156102b957600080fd5b506102d460048036038101906102cf9190612b8b565b611258565b005b6102f060048036038101906102eb9190612af9565b6113c5565b005b3480156102fe57600080fd5b50610307611779565b60405161031491906131f1565b60405180910390f35b34801561032957600080fd5b5061033261179f565b60405161033f91906131f1565b60405180910390f35b34801561035457600080fd5b5061036f600480360381019061036a9190612ad0565b6117c5565b60405161037f9493929190613683565b60405180910390f35b34801561039457600080fd5b506103af60048036038101906103aa9190612995565b611832565b6040516103bc9190613608565b60405180910390f35b3480156103d157600080fd5b506103ec60048036038101906103e791906129d1565b611857565b6040516103f99190613367565b60405180910390f35b34801561040e57600080fd5b5061042960048036038101906104249190612bc7565b6119ac565b005b34801561043757600080fd5b50610452600480360381019061044d9190612a66565b611be0565b005b60008060376000848152602001908152602001600020604051806101000160405290816000820160009054906101000a900473ffffffffffffffffffffffffffffffffffffffff1673ffffffffffffffffffffffffffffffffffffffff1673ffffffffffffffffffffffffffffffffffffffff168152602001600182015481526020016002820160009054906101000a900473ffffffffffffffffffffffffffffffffffffffff1673ffffffffffffffffffffffffffffffffffffffff1673ffffffffffffffffffffffffffffffffffffffff16815260200160038201805461053c90613949565b80601f016020809104026020016040519081016040528092919081815260200182805461056890613949565b80156105b55780601f1061058a576101008083540402835291602001916105b5565b820191906000526020600020905b81548152906001019060200180831161059857829003601f168201915b505050505081526020016004820154815260200160058201548152602001600682015481526020016007820160009054906101000a900460ff166005811115610627577f4e487b7100000000000000000000000000000000000000000000000000000000600052602160045260246000fd5b600581111561065f577f4e487b7100000000000000000000000000000000000000000000000000000000600052602160045260246000fd5b8152505090506000600581111561069f577f4e487b7100000000000000000000000000000000000000000000000000000000600052602160045260246000fd5b8160e0015160058111156106dc577f4e487b7100000000000000000000000000000000000000000000000000000000600052602160045260246000fd5b1480156107465750426035826020015181548110610723577f4e487b7100000000000000000000000000000000000000000000000000000000600052603260045260246000fd5b9060005260206000209060030201600101548260a001516107449190613776565b105b1561075557600391505061075e565b8060e001519150505b919050565b603360009054906101000a900473ffffffffffffffffffffffffffffffffffffffff1673ffffffffffffffffffffffffffffffffffffffff163373ffffffffffffffffffffffffffffffffffffffff16146107f3576040517f08c379a00000000000000000000000000000000000000000000000000000000081526004016107ea906135e8565b60405180910390fd5b6035818154811061082d577f4e487b7100000000000000000000000000000000000000000000000000000000600052603260045260246000fd5b906000526020600020906003020160020160149054906101000a900460ff1661088b576040517f08c379a0000000000000000000000000000000000000000000000000000000008152600401610882906133e8565b60405180910390fd5b6000603582815481106108c7577f4e487b7100000000000000000000000000000000000000000000000000000000600052603260045260246000fd5b906000526020600020906003020160020160146101000a81548160ff021916908315150217905550807e4c797e6739331fc6d5c1ebdf112d63e6a68297fdfd28f35f54561e28fd868d60405160405180910390a250565b600080600060606000806000806000603760008b8152602001908152602001600020604051806101000160405290816000820160009054906101000a900473ffffffffffffffffffffffffffffffffffffffff1673ffffffffffffffffffffffffffffffffffffffff1673ffffffffffffffffffffffffffffffffffffffff168152602001600182015481526020016002820160009054906101000a900473ffffffffffffffffffffffffffffffffffffffff1673ffffffffffffffffffffffffffffffffffffffff1673ffffffffffffffffffffffffffffffffffffffff168152602001600382018054610a1290613949565b80601f0160208091040260200160405190810160405280929190818152602001828054610a3e90613949565b8015610a8b5780601f10610a6057610100808354040283529160200191610a8b565b820191906000526020600020905b815481529060010190602001808311610a6e57829003601f168201915b505050505081526020016004820154815260200160058201548152602001600682015481526020016007820160009054906101000a900460ff166005811115610afd577f4e487b7100000000000000000000000000000000000000000000000000000000600052602160045260246000fd5b6005811115610b35577f4e487b7100000000000000000000000000000000000000000000000000000000600052602160045260246000fd5b81525050905080600001519850806020015197508060400151965080606001519550806080015194508060a0015193508060c001519250610b758a610454565b915050919395975091939597565b603360009054906101000a900473ffffffffffffffffffffffffffffffffffffffff1673ffffffffffffffffffffffffffffffffffffffff163373ffffffffffffffffffffffffffffffffffffffff1614610c13576040517f08c379a0000000000000000000000000000000000000000000000000000000008152600401610c0a906135e8565b60405180910390fd5b600073ffffffffffffffffffffffffffffffffffffffff168173ffffffffffffffffffffffffffffffffffffffff161415610c83576040517f08c379a0000000000000000000000000000000000000000000000000000000008152600401610c7a90613588565b60405180910390fd5b80603460006101000a81548173ffffffffffffffffffffffffffffffffffffffff021916908373ffffffffffffffffffffffffffffffffffffffff16021790555050565b600060019054906101000a900460ff1680610ced575060008054906101000a900460ff16155b610d2c576040517f08c379a0000000000000000000000000000000000000000000000000000000008152600401610d23906134e8565b60405180910390fd5b60008060019054906101000a900460ff161590508015610d7c576001600060016101000a81548160ff02191690831515021790555060016000806101000a81548160ff0219169083151502179055505b610d8461219c565b600073ffffffffffffffffffffffffffffffffffffffff168273ffffffffffffffffffffffffffffffffffffffff161415610df4576040517f08c379a0000000000000000000000000000000000000000000000000000000008152600401610deb90613588565b60405180910390fd5b600073ffffffffffffffffffffffffffffffffffffffff168373ffffffffffffffffffffffffffffffffffffffff161415610e64576040517f08c379a0000000000000000000000000000000000000000000000000000000008152600401610e5b90613508565b60405180910390fd5b82603360006101000a81548173ffffffffffffffffffffffffffffffffffffffff021916908373ffffffffffffffffffffffffffffffffffffffff16021790555081603460006101000a81548173ffffffffffffffffffffffffffffffffffffffff021916908373ffffffffffffffffffffffffffffffffffffffff1602179055508015610f075760008060016101000a81548160ff0219169083151502179055505b505050565b600060376000838152602001908152602001600020905060006005811115610f5d577f4e487b7100000000000000000000000000000000000000000000000000000000600052602160045260246000fd5b610f6683610454565b6005811115610f9e577f4e487b7100000000000000000000000000000000000000000000000000000000600052602160045260246000fd5b14610fde576040517f08c379a0000000000000000000000000000000000000000000000000000000008152600401610fd590613428565b60405180910390fd5b8060000160009054906101000a900473ffffffffffffffffffffffffffffffffffffffff1673ffffffffffffffffffffffffffffffffffffffff163373ffffffffffffffffffffffffffffffffffffffff1614611070576040517f08c379a0000000000000000000000000000000000000000000000000000000008152600401611067906135e8565b60405180910390fd5b60058160070160006101000a81548160ff021916908360058111156110be577f4e487b7100000000000000000000000000000000000000000000000000000000600052602160045260246000fd5b02179055506001603660008360000160009054906101000a900473ffffffffffffffffffffffffffffffffffffffff1673ffffffffffffffffffffffffffffffffffffffff1673ffffffffffffffffffffffffffffffffffffffff168152602001908152602001600020600083600101548152602001908152602001600020600082825461114c9190613776565b92505081905550817fa9492956e3406e5fabb393f5ac68540da3bb42721d741519c0eadd27a15d83c060405160405180910390a28060000160009054906101000a900473ffffffffffffffffffffffffffffffffffffffff1673ffffffffffffffffffffffffffffffffffffffff166108fc82600601549081150290604051600060405180830381858888f193505050501580156111ee573d6000803e3d6000fd5b505050565b6000816000015182602001518360400151846060015185608001518660a001518760c0015160405160200161122e979695949392919061326c565b604051602081830303815290604052805190602001209050919050565b6000603580549050905090565b61126333838361227d565b6035828154811061129d577f4e487b7100000000000000000000000000000000000000000000000000000000600052603260045260246000fd5b906000526020600020906003020160020160009054906101000a900473ffffffffffffffffffffffffffffffffffffffff1673ffffffffffffffffffffffffffffffffffffffff166323b872dd33306112f686866123d1565b6040518463ffffffff167c01000000000000000000000000000000000000000000000000000000000281526004016113309392919061320c565b602060405180830381600087803b15801561134a57600080fd5b505af115801561135e573d6000803e3d6000fd5b505050506040513d601f19601f820116820180604052508101906113829190612a3d565b6113c1576040517f08c379a00000000000000000000000000000000000000000000000000000000081526004016113b8906134a8565b60405180910390fd5b5050565b6000603660003373ffffffffffffffffffffffffffffffffffffffff1673ffffffffffffffffffffffffffffffffffffffff16815260200190815260200160002060008881526020019081526020016000205411611458576040517f08c379a000000000000000000000000000000000000000000000000000000000815260040161144f90613448565b60405180910390fd5b6001603660003373ffffffffffffffffffffffffffffffffffffffff1673ffffffffffffffffffffffffffffffffffffffff168152602001908152602001600020600088815260200190815260200160002060008282546114b99190613826565b9250508190555080421115611503576040517f08c379a00000000000000000000000000000000000000000000000000000000081526004016114fa90613528565b60405180910390fd5b60006040518061010001604052803373ffffffffffffffffffffffffffffffffffffffff1681526020018881526020018773ffffffffffffffffffffffffffffffffffffffff16815260200186868080601f016020809104026020016040519081016040528093929190818152602001838380828437600081840152601f19601f820116905080830192505050505050508152602001848152602001838152602001348152602001600060058111156115e5577f4e487b7100000000000000000000000000000000000000000000000000000000600052602160045260246000fd5b815250905060006115f5826111f3565b9050816037600083815260200190815260200160002060008201518160000160006101000a81548173ffffffffffffffffffffffffffffffffffffffff021916908373ffffffffffffffffffffffffffffffffffffffff1602179055506020820151816001015560408201518160020160006101000a81548173ffffffffffffffffffffffffffffffffffffffff021916908373ffffffffffffffffffffffffffffffffffffffff16021790555060608201518160030190805190602001906116bf92919061267f565b506080820151816004015560a0820151816005015560c0820151816006015560e08201518160070160006101000a81548160ff0219169083600581111561172f577f4e487b7100000000000000000000000000000000000000000000000000000000600052602160045260246000fd5b0217905550905050807fb19e7bab761c1d438a654faa449e3736081f6c0e0a0786ddd4d3185384528320846040516117679190613608565b60405180910390a25050505050505050565b603360009054906101000a900473ffffffffffffffffffffffffffffffffffffffff1681565b603460009054906101000a900473ffffffffffffffffffffffffffffffffffffffff1681565b603581815481106117d557600080fd5b90600052602060002090600302016000915090508060000154908060010154908060020160009054906101000a900473ffffffffffffffffffffffffffffffffffffffff16908060020160149054906101000a900460ff16905084565b6036602052816000526040600020602052806000526040600020600091509150505481565b6000806000848481019061186b9190612b8b565b915091503373ffffffffffffffffffffffffffffffffffffffff16603583815481106118c0577f4e487b7100000000000000000000000000000000000000000000000000000000600052603260045260246000fd5b906000526020600020906003020160020160009054906101000a900473ffffffffffffffffffffffffffffffffffffffff1673ffffffffffffffffffffffffffffffffffffffff1614611948576040517f08c379a000000000000000000000000000000000000000000000000000000000815260040161193f90613468565b60405180910390fd5b61195282826123d1565b8614611993576040517f08c379a000000000000000000000000000000000000000000000000000000000815260040161198a906134c8565b60405180910390fd5b61199e87838361227d565b600192505050949350505050565b603360009054906101000a900473ffffffffffffffffffffffffffffffffffffffff1673ffffffffffffffffffffffffffffffffffffffff163373ffffffffffffffffffffffffffffffffffffffff1614611a3c576040517f08c379a0000000000000000000000000000000000000000000000000000000008152600401611a33906135e8565b60405180910390fd5b600073ffffffffffffffffffffffffffffffffffffffff168173ffffffffffffffffffffffffffffffffffffffff161415611aac576040517f08c379a0000000000000000000000000000000000000000000000000000000008152600401611aa390613568565b60405180910390fd5b603560405180608001604052808581526020018481526020018373ffffffffffffffffffffffffffffffffffffffff168152602001600115158152509080600181540180825580915050600190039060005260206000209060030201600090919091909150600082015181600001556020820151816001015560408201518160020160006101000a81548173ffffffffffffffffffffffffffffffffffffffff021916908373ffffffffffffffffffffffffffffffffffffffff16021790555060608201518160020160146101000a81548160ff02191690831515021790555050506001603580549050611ba09190613826565b7f398c82e2ccf5aaee72a60b95d6543133e8fc843e113441e9a2d767274c8d8eef848385604051611bd393929190613623565b60405180910390a2505050565b60026001541415611c26576040517f08c379a0000000000000000000000000000000000000000000000000000000008152600401611c1d906135c8565b60405180910390fd5b6002600181905550600060376000838152602001908152602001600020905060006005811115611c7f577f4e487b7100000000000000000000000000000000000000000000000000000000600052602160045260246000fd5b8160070160009054906101000a900460ff166005811115611cc9577f4e487b7100000000000000000000000000000000000000000000000000000000600052602160045260246000fd5b14611d09576040517f08c379a0000000000000000000000000000000000000000000000000000000008152600401611d0090613488565b60405180910390fd5b426035826001015481548110611d48577f4e487b7100000000000000000000000000000000000000000000000000000000600052603260045260246000fd5b9060005260206000209060030201600101548260050154611d699190613826565b10611da9576040517f08c379a0000000000000000000000000000000000000000000000000000000008152600401611da090613548565b60405180910390fd5b60036005811115611de3577f4e487b7100000000000000000000000000000000000000000000000000000000600052602160045260246000fd5b611dec83610454565b6005811115611e24577f4e487b7100000000000000000000000000000000000000000000000000000000600052602160045260246000fd5b1415611e3957611e3382612432565b50612192565b6000808260020160009054906101000a900473ffffffffffffffffffffffffffffffffffffffff1673ffffffffffffffffffffffffffffffffffffffff168360040154846006015485600301604051611e9291906131da565b600060405180830381858888f193505050503d8060008114611ed0576040519150601f19603f3d011682016040523d82523d6000602084013e611ed5565b606091505b5091509150837fbbb9534b79cda5e36feb34cc697d5e728db1a530363e152c539fb70b3f75f7ac8383604051611f0c929190613382565b60405180910390a28115611f725760018360070160006101000a81548160ff02191690836005811115611f68577f4e487b7100000000000000000000000000000000000000000000000000000000600052602160045260246000fd5b0217905550611fc6565b60028360070160006101000a81548160ff02191690836005811115611fc0577f4e487b7100000000000000000000000000000000000000000000000000000000600052602160045260246000fd5b02179055505b6035836001015481548110612004577f4e487b7100000000000000000000000000000000000000000000000000000000600052603260045260246000fd5b906000526020600020906003020160020160009054906101000a900473ffffffffffffffffffffffffffffffffffffffff1673ffffffffffffffffffffffffffffffffffffffff1663a9059cbb603460009054906101000a900473ffffffffffffffffffffffffffffffffffffffff1660358660010154815481106120b2577f4e487b7100000000000000000000000000000000000000000000000000000000600052603260045260246000fd5b9060005260206000209060030201600001546040518363ffffffff167c01000000000000000000000000000000000000000000000000000000000281526004016120fd929190613243565b602060405180830381600087803b15801561211757600080fd5b505af115801561212b573d6000803e3d6000fd5b505050506040513d601f19601f8201168201806040525081019061214f9190612a3d565b61218e576040517f08c379a000000000000000000000000000000000000000000000000000000000815260040161218590613408565b60405180910390fd5b5050505b6001808190555050565b600060019054906101000a900460ff16806121c2575060008054906101000a900460ff16155b612201576040517f08c379a00000000000000000000000000000000000000000000000000000000081526004016121f8906134e8565b60405180910390fd5b60008060019054906101000a900460ff161590508015612251576001600060016101000a81548160ff02191690831515021790555060016000806101000a81548160ff0219169083151502179055505b61225961259f565b801561227a5760008060016101000a81548160ff0219169083151502179055505b50565b603582815481106122b7577f4e487b7100000000000000000000000000000000000000000000000000000000600052603260045260246000fd5b906000526020600020906003020160020160149054906101000a900460ff16612315576040517f08c379a000000000000000000000000000000000000000000000000000000000815260040161230c906135a8565b60405180910390fd5b80603660008573ffffffffffffffffffffffffffffffffffffffff1673ffffffffffffffffffffffffffffffffffffffff168152602001908152602001600020600084815260200190815260200160002060008282546123759190613776565b925050819055508273ffffffffffffffffffffffffffffffffffffffff167f1d00f3ff8ba6a0ac98e7c747985ac34f1f706f5d0fa06abaa4c090a60598a65d83836040516123c492919061365a565b60405180910390a2505050565b60006035838154811061240d577f4e487b7100000000000000000000000000000000000000000000000000000000600052603260045260246000fd5b9060005260206000209060030201600001548261242a91906137cc565b905092915050565b60006037600083815260200190815260200160002090506001603660008360000160009054906101000a900473ffffffffffffffffffffffffffffffffffffffff1673ffffffffffffffffffffffffffffffffffffffff1673ffffffffffffffffffffffffffffffffffffffff16815260200190815260200160002060008360010154815260200190815260200160002060008282546124d29190613776565b9250508190555060048160070160006101000a81548160ff02191690836005811115612527577f4e487b7100000000000000000000000000000000000000000000000000000000600052602160045260246000fd5b02179055508060000160009054906101000a900473ffffffffffffffffffffffffffffffffffffffff1673ffffffffffffffffffffffffffffffffffffffff166108fc82600601549081150290604051600060405180830381858888f1935050505015801561259a573d6000803e3d6000fd5b505050565b600060019054906101000a900460ff16806125c5575060008054906101000a900460ff16155b612604576040517f08c379a00000000000000000000000000000000000000000000000000000000081526004016125fb906134e8565b60405180910390fd5b60008060019054906101000a900460ff161590508015612654576001600060016101000a81548160ff02191690831515021790555060016000806101000a81548160ff0219169083151502179055505b60018081905550801561267c5760008060016101000a81548160ff0219169083151502179055505b50565b82805461268b90613949565b90600052602060002090601f0160209004810192826126ad57600085556126f4565b82601f106126c657805160ff19168380011785556126f4565b828001600101855582156126f4579182015b828111156126f35782518255916020019190600101906126d8565b5b5090506127019190612705565b5090565b5b8082111561271e576000816000905550600101612706565b5090565b6000612735612730846136f9565b6136c8565b90508281526020810184848401111561274d57600080fd5b612758848285613907565b509392505050565b60008135905061276f81613a5c565b92915050565b60008151905061278481613a73565b92915050565b60008135905061279981613a8a565b92915050565b60008083601f8401126127b157600080fd5b8235905067ffffffffffffffff8111156127ca57600080fd5b6020830191508360018202830111156127e257600080fd5b9250929050565b600082601f8301126127fa57600080fd5b813561280a848260208601612722565b91505092915050565b60008135905061282281613aa1565b92915050565b60008135905061283781613ab8565b92915050565b6000610100828403121561285057600080fd5b61285b6101006136c8565b9050600061286b84828501612760565b600083015250602061287f8482850161291b565b602083015250604061289384828501612760565b604083015250606082013567ffffffffffffffff8111156128b357600080fd5b6128bf848285016127e9565b60608301525060806128d38482850161291b565b60808301525060a06128e78482850161291b565b60a08301525060c06128fb8482850161291b565b60c08301525060e061290f84828501612828565b60e08301525092915050565b60008135905061292a81613ac8565b92915050565b60006020828403121561294257600080fd5b600061295084828501612760565b91505092915050565b6000806040838503121561296c57600080fd5b600061297a85828601612760565b925050602061298b85828601612760565b9150509250929050565b600080604083850312156129a857600080fd5b60006129b685828601612760565b92505060206129c78582860161291b565b9150509250929050565b600080600080606085870312156129e757600080fd5b60006129f587828801612760565b9450506020612a068782880161291b565b935050604085013567ffffffffffffffff811115612a2357600080fd5b612a2f8782880161279f565b925092505092959194509250565b600060208284031215612a4f57600080fd5b6000612a5d84828501612775565b91505092915050565b600060208284031215612a7857600080fd5b6000612a868482850161278a565b91505092915050565b600060208284031215612aa157600080fd5b600082013567ffffffffffffffff811115612abb57600080fd5b612ac78482850161283d565b91505092915050565b600060208284031215612ae257600080fd5b6000612af08482850161291b565b91505092915050565b60008060008060008060a08789031215612b1257600080fd5b6000612b2089828a0161291b565b9650506020612b3189828a01612760565b955050604087013567ffffffffffffffff811115612b4e57600080fd5b612b5a89828a0161279f565b94509450506060612b6d89828a0161291b565b9250506080612b7e89828a0161291b565b9150509295509295509295565b60008060408385031215612b9e57600080fd5b6000612bac8582860161291b565b9250506020612bbd8582860161291b565b9150509250929050565b600080600060608486031215612bdc57600080fd5b6000612bea8682870161291b565b9350506020612bfb8682870161291b565b9250506040612c0c86828701612813565b9150509250925092565b612c1f8161385a565b82525050565b612c2e8161386c565b82525050565b612c3d81613878565b82525050565b6000612c4e8261373e565b612c588185613749565b9350612c68818560208601613916565b612c7181613a37565b840191505092915050565b60008154612c8981613949565b612c93818661375a565b94506001821660008114612cae5760018114612cbf57612cf2565b60ff19831686528186019350612cf2565b612cc885613729565b60005b83811015612cea57815481890152600182019150602081019050612ccb565b838801955050505b50505092915050565b612d04816138d1565b82525050565b612d13816138f5565b82525050565b6000612d26601c83613765565b91507f54686520706c616e20697320616c726561647920696e616374697665000000006000830152602082019050919050565b6000612d66601a83613765565b91507f436f756c646e2774207472616e7366657220746f2070617965650000000000006000830152602082019050919050565b6000612da6601983613765565b91507f5472616e73616374696f6e206e6f74207363686564756c6564000000000000006000830152602082019050919050565b6000612de6601483613765565b91507f4e6f2062616c616e636520617661696c61626c650000000000000000000000006000830152602082019050919050565b6000612e26600983613765565b91507f42616420746f6b656e00000000000000000000000000000000000000000000006000830152602082019050919050565b6000612e66601083613765565b91507f416c7265616479206578656375746564000000000000000000000000000000006000830152602082019050919050565b6000612ea6601283613765565b91507f5061796d656e74206469642774207061737300000000000000000000000000006000830152602082019050919050565b6000612ee6602f83613765565b91507f5472616e7366657272656420616d6f756e7420646f65736e2774206d6174636860008301527f20746f74616c20707572636861736500000000000000000000000000000000006020830152604082019050919050565b6000612f4c602e83613765565b91507f496e697469616c697a61626c653a20636f6e747261637420697320616c72656160008301527f647920696e697469616c697a65640000000000000000000000000000000000006020830152604082019050919050565b6000612fb2602683613765565b91507f536572766963652070726f766964657220616464726573732063616e6e6f742060008301527f62652030783000000000000000000000000000000000000000000000000000006020830152604082019050919050565b6000613018601e83613765565b91507f43616e6e6f74207363686564756c6520697420696e20746865207061737400006000830152602082019050919050565b6000613058600883613765565b91507f546f6f20736f6f6e0000000000000000000000000000000000000000000000006000830152602082019050919050565b6000613098601b83613765565b91507f546f6b656e20616464726573732063616e6e6f742062652030783000000000006000830152602082019050919050565b60006130d8601b83613765565b91507f506179656520616464726573732063616e6e6f742062652030783000000000006000830152602082019050919050565b6000613118600d83613765565b91507f496e61637469766520706c616e000000000000000000000000000000000000006000830152602082019050919050565b6000613158601f83613765565b91507f5265656e7472616e637947756172643a207265656e7472616e742063616c6c006000830152602082019050919050565b6000613198600e83613765565b91507f4e6f7420617574686f72697a65640000000000000000000000000000000000006000830152602082019050919050565b6131d4816138c7565b82525050565b60006131e68284612c7c565b915081905092915050565b60006020820190506132066000830184612c16565b92915050565b60006060820190506132216000830186612c16565b61322e6020830185612c16565b61323b60408301846131cb565b949350505050565b60006040820190506132586000830185612c16565b61326560208301846131cb565b9392505050565b600060e082019050613281600083018a612c16565b61328e60208301896131cb565b61329b6040830188612c16565b81810360608301526132ad8187612c43565b90506132bc60808301866131cb565b6132c960a08301856131cb565b6132d660c08301846131cb565b98975050505050505050565b6000610100820190506132f8600083018b612c16565b613305602083018a6131cb565b6133126040830189612c16565b81810360608301526133248188612c43565b905061333360808301876131cb565b61334060a08301866131cb565b61334d60c08301856131cb565b61335a60e0830184612d0a565b9998505050505050505050565b600060208201905061337c6000830184612c25565b92915050565b60006040820190506133976000830185612c25565b81810360208301526133a98184612c43565b90509392505050565b60006020820190506133c76000830184612c34565b92915050565b60006020820190506133e26000830184612d0a565b92915050565b6000602082019050818103600083015261340181612d19565b9050919050565b6000602082019050818103600083015261342181612d59565b9050919050565b6000602082019050818103600083015261344181612d99565b9050919050565b6000602082019050818103600083015261346181612dd9565b9050919050565b6000602082019050818103600083015261348181612e19565b9050919050565b600060208201905081810360008301526134a181612e59565b9050919050565b600060208201905081810360008301526134c181612e99565b9050919050565b600060208201905081810360008301526134e181612ed9565b9050919050565b6000602082019050818103600083015261350181612f3f565b9050919050565b6000602082019050818103600083015261352181612fa5565b9050919050565b600060208201905081810360008301526135418161300b565b9050919050565b600060208201905081810360008301526135618161304b565b9050919050565b600060208201905081810360008301526135818161308b565b9050919050565b600060208201905081810360008301526135a1816130cb565b9050919050565b600060208201905081810360008301526135c18161310b565b9050919050565b600060208201905081810360008301526135e18161314b565b9050919050565b600060208201905081810360008301526136018161318b565b9050919050565b600060208201905061361d60008301846131cb565b92915050565b600060608201905061363860008301866131cb565b6136456020830185612c16565b61365260408301846131cb565b949350505050565b600060408201905061366f60008301856131cb565b61367c60208301846131cb565b9392505050565b600060808201905061369860008301876131cb565b6136a560208301866131cb565b6136b26040830185612cfb565b6136bf6060830184612c25565b95945050505050565b6000604051905081810181811067ffffffffffffffff821117156136ef576136ee613a08565b5b8060405250919050565b600067ffffffffffffffff82111561371457613713613a08565b5b601f19601f8301169050602081019050919050565b60008190508160005260206000209050919050565b600081519050919050565b600082825260208201905092915050565b600081905092915050565b600082825260208201905092915050565b6000613781826138c7565b915061378c836138c7565b9250827fffffffffffffffffffffffffffffffffffffffffffffffffffffffffffffffff038211156137c1576137c061397b565b5b828201905092915050565b60006137d7826138c7565b91506137e2836138c7565b9250817fffffffffffffffffffffffffffffffffffffffffffffffffffffffffffffffff048311821515161561381b5761381a61397b565b5b828202905092915050565b6000613831826138c7565b915061383c836138c7565b92508282101561384f5761384e61397b565b5b828203905092915050565b6000613865826138a7565b9050919050565b60008115159050919050565b6000819050919050565b600061388d8261385a565b9050919050565b60008190506138a282613a48565b919050565b600073ffffffffffffffffffffffffffffffffffffffff82169050919050565b6000819050919050565b60006138dc826138e3565b9050919050565b60006138ee826138a7565b9050919050565b600061390082613894565b9050919050565b82818337600083830152505050565b60005b83811015613934578082015181840152602081019050613919565b83811115613943576000848401525b50505050565b6000600282049050600182168061396157607f821691505b60208210811415613975576139746139d9565b5b50919050565b7f4e487b7100000000000000000000000000000000000000000000000000000000600052601160045260246000fd5b7f4e487b7100000000000000000000000000000000000000000000000000000000600052602160045260246000fd5b7f4e487b7100000000000000000000000000000000000000000000000000000000600052602260045260246000fd5b7f4e487b7100000000000000000000000000000000000000000000000000000000600052604160045260246000fd5b6000601f19601f8301169050919050565b60068110613a5957613a586139aa565b5b50565b613a658161385a565b8114613a7057600080fd5b50565b613a7c8161386c565b8114613a8757600080fd5b50565b613a9381613878565b8114613a9e57600080fd5b50565b613aaa81613882565b8114613ab557600080fd5b50565b60068110613ac557600080fd5b50565b613ad1816138c7565b8114613adc57600080fd5b5056fea2646970667358221220bd340c31c0bb4ebec8abe225a67528bce7135f74e2efe4df18f6914bb29d0cd564736f6c63430008000033",
  "immutableReferences": {},
  "source": "// SPDX-License-Identifier: MIT\r\npragma solidity ^0.8.0;\r\nimport '@rsksmart/erc677/contracts/IERC677.sol';\r\nimport '@rsksmart/erc677/contracts/IERC677TransferReceiver.sol';\r\nimport '@openzeppelin/contracts-upgradeable/proxy/utils/Initializable.sol';\r\nimport '@openzeppelin/contracts-upgradeable/security/ReentrancyGuardUpgradeable.sol';\r\n\r\ncontract OneShotSchedule is IERC677TransferReceiver, Initializable, ReentrancyGuardUpgradeable {\r\n  enum ExecutionState { Scheduled, ExecutionSuccessful, ExecutionFailed, Overdue, Refunded, Cancelled }\r\n  // State transitions for scheduled executions:\r\n  //   Scheduled -> Cancelled (requestor cancelled execution)\r\n  //   Scheduled -> ExecutionSuccessful (call was executed in the given time and did not fail)\r\n  //   Scheduled -> ExecutionFailed (call was executed in the given time but failed)\r\n  //   Scheduled -> Overdue (execution window has passed, expected earlier)\r\n  //   Overdue -> Refunded (refund for overdue execution paid)\r\n\r\n  struct Execution {\r\n    address requestor;\r\n    uint256 plan;\r\n    address to;\r\n    bytes data;\r\n    uint256 gas;\r\n    uint256 timestamp;\r\n    uint256 value;\r\n    ExecutionState state;\r\n  }\r\n\r\n  struct Plan {\r\n    uint256 pricePerExecution;\r\n    uint256 window;\r\n    IERC677 token;\r\n    bool active;\r\n  }\r\n\r\n  address public serviceProvider;\r\n  address public payee;\r\n\r\n  Plan[] public plans;\r\n\r\n  mapping(address => mapping(uint256 => uint256)) public remainingExecutions;\r\n  mapping(bytes32 => Execution) private executions;\r\n\r\n  event PlanAdded(uint256 indexed index, uint256 price, address token, uint256 window);\r\n  event PlanRemoved(uint256 indexed index);\r\n\r\n  event ExecutionPurchased(address indexed requestor, uint256 plan, uint256 amount);\r\n  event ExecutionRequested(bytes32 indexed id, uint256 timestamp);\r\n  event Executed(bytes32 indexed id, bool success, bytes result);\r\n  event ExecutionCancelled(bytes32 indexed id);\r\n\r\n  modifier onlyProvider() {\r\n    require(address(msg.sender) == serviceProvider, 'Not authorized');\r\n    _;\r\n  }\r\n\r\n  function initialize(address serviceProvider_, address payee_) external initializer {\r\n    __ReentrancyGuard_init();\r\n    require(payee_ != address(0x0), 'Payee address cannot be 0x0');\r\n    require(serviceProvider_ != address(0x0), 'Service provider address cannot be 0x0');\r\n    serviceProvider = serviceProvider_;\r\n    payee = payee_;\r\n  }\r\n\r\n  ///////////\r\n  // ADMIN //\r\n  ///////////\r\n\r\n  function addPlan(\r\n    uint256 price,\r\n    uint256 window,\r\n    IERC677 token\r\n  ) external onlyProvider {\r\n    require(address(token) != address(0x0), 'Token address cannot be 0x0');\r\n    plans.push(Plan(price, window, token, true));\r\n    emit PlanAdded(plans.length - 1, price, address(token), window);\r\n  }\r\n\r\n  function removePlan(uint256 plan) external onlyProvider {\r\n    require(plans[plan].active, 'The plan is already inactive');\r\n    plans[plan].active = false;\r\n    emit PlanRemoved(plan);\r\n  }\r\n\r\n  function plansCount() external view returns (uint256) {\r\n    return plans.length;\r\n  }\r\n\r\n  function setPayee(address payee_) external onlyProvider {\r\n    require(payee_ != address(0x0), 'Payee address cannot be 0x0');\r\n    payee = payee_;\r\n  }\r\n\r\n  //////////////\r\n  // PURCHASE //\r\n  //////////////\r\n\r\n  function totalPrice(uint256 plan, uint256 quantity) private view returns (uint256) {\r\n    return quantity * plans[plan].pricePerExecution;\r\n  }\r\n\r\n  function doPurchase(\r\n    address requestor,\r\n    uint256 plan,\r\n    uint256 amount\r\n  ) private {\r\n    require(plans[plan].active, 'Inactive plan');\r\n    remainingExecutions[requestor][plan] += amount;\r\n    emit ExecutionPurchased(requestor, plan, amount);\r\n  }\r\n\r\n  // purcahse with ERC-20\r\n  function purchase(uint256 plan, uint256 quantity) external {\r\n    doPurchase(msg.sender, plan, quantity);\r\n\r\n    require(plans[plan].token.transferFrom(msg.sender, address(this), totalPrice(plan, quantity)), \"Payment did't pass\");\r\n  }\r\n\r\n  // purcahse with ERC-677\r\n  function tokenFallback(\r\n    address from,\r\n    uint256 amount,\r\n    bytes calldata data\r\n  ) external override returns (bool) {\r\n    (uint256 plan, uint256 quantity) = abi.decode(data, (uint256, uint256));\r\n\r\n    require(address(plans[plan].token) == address(msg.sender), 'Bad token');\r\n    require(amount == totalPrice(plan, quantity), \"Transferred amount doesn't match total purchase\");\r\n\r\n    doPurchase(from, plan, quantity);\r\n    return true;\r\n  }\r\n\r\n  ////////////////\r\n  // SCHEDULING //\r\n  ////////////////\r\n\r\n  // slither-disable-next-line timestamp\r\n  function getState(bytes32 id) public view returns (ExecutionState) {\r\n    Execution memory execution = executions[id];\r\n    if (execution.state == ExecutionState.Scheduled && ((execution.timestamp + plans[execution.plan].window) < block.timestamp)) {\r\n      return ExecutionState.Overdue;\r\n    } else {\r\n      return execution.state;\r\n    }\r\n  }\r\n\r\n  function hash(Execution memory execution) public pure returns (bytes32) {\r\n    return\r\n      keccak256(\r\n        abi.encode(execution.requestor, execution.plan, execution.to, execution.data, execution.gas, execution.timestamp, execution.value)\r\n      );\r\n  }\r\n\r\n  function schedule(\r\n    uint256 plan,\r\n    address to,\r\n    bytes calldata data,\r\n    uint256 gas,\r\n    uint256 timestamp\r\n  ) external payable {\r\n    require(remainingExecutions[msg.sender][plan] > 0, 'No balance available');\r\n    remainingExecutions[msg.sender][plan] -= 1;\r\n\r\n    // This is only to prevent errors, doesn't need to be exact\r\n    // timestamp manipulation should be considered in the window by the service provider\r\n    // slither-disable-next-line timestamp\r\n    require(block.timestamp <= timestamp, 'Cannot schedule it in the past');\r\n\r\n    Execution memory execution = Execution(msg.sender, plan, to, data, gas, timestamp, msg.value, ExecutionState.Scheduled);\r\n    bytes32 id = hash(execution);\r\n    executions[id] = execution;\r\n    emit ExecutionRequested(id, timestamp);\r\n  }\r\n\r\n  function getSchedule(bytes32 id)\r\n    external\r\n    view\r\n    returns (\r\n      address requestor,\r\n      uint256 plan,\r\n      address to,\r\n      bytes memory data,\r\n      uint256 gas,\r\n      uint256 timestamp,\r\n      uint256 value,\r\n      ExecutionState state\r\n    )\r\n  {\r\n    Execution memory execution = executions[id];\r\n\r\n    requestor = execution.requestor;\r\n    plan = execution.plan;\r\n    to = execution.to;\r\n    data = execution.data;\r\n    gas = execution.gas;\r\n    timestamp = execution.timestamp;\r\n    value = execution.value;\r\n    state = getState(id);\r\n  }\r\n\r\n  function cancelScheduling(bytes32 id) external {\r\n    Execution storage execution = executions[id];\r\n\r\n    require(getState(id) == ExecutionState.Scheduled, 'Transaction not scheduled');\r\n    require(msg.sender == execution.requestor, 'Not authorized');\r\n\r\n    execution.state = ExecutionState.Cancelled;\r\n    remainingExecutions[execution.requestor][execution.plan] += 1;\r\n    emit ExecutionCancelled(id);\r\n    payable(execution.requestor).transfer(execution.value);\r\n  }\r\n\r\n  ///////////////\r\n  // EXECUTION //\r\n  ///////////////\r\n  function refund(bytes32 id) private {\r\n    Execution storage execution = executions[id];\r\n    remainingExecutions[execution.requestor][execution.plan] += 1;\r\n    execution.state = ExecutionState.Refunded;\r\n    payable(execution.requestor).transfer(execution.value);\r\n  }\r\n\r\n  // The nonReentrant prevents this contract to be call again when the low level call is executed\r\n  // timestamp manipulation should be considered in the window by the service provider\r\n  // slither-disable-next-line timestamp\r\n  function execute(bytes32 id) external nonReentrant {\r\n    Execution storage execution = executions[id];\r\n\r\n    require(execution.state == ExecutionState.Scheduled, 'Already executed');\r\n    // timestamp manipulation should be considered in the window by the service provider\r\n    // slither-disable-next-line timestamp\r\n    require((execution.timestamp - plans[execution.plan].window) < block.timestamp, 'Too soon');\r\n\r\n    if (getState(id) == ExecutionState.Overdue) {\r\n      refund(id);\r\n      return;\r\n    }\r\n\r\n    // The contract makes an external call to execute the scheduled transaction on the specified contract.\r\n    // It needs to get the execution result before emitting the event and changing the matatransaction state.\r\n    // slither-disable-next-line low-level-calls\r\n    (bool success, bytes memory result) = payable(execution.to).call{ gas: execution.gas, value: execution.value }(execution.data);\r\n\r\n    // reentrancy prevented by nonReentrant modifier\r\n    // slither-disable-next-line reentrancy-events\r\n    emit Executed(id, success, result);\r\n\r\n    if (success) {\r\n      // reentrancy prevented by nonReentrant modifier\r\n      // slither-disable-next-line reentrancy-eth\r\n      execution.state = ExecutionState.ExecutionSuccessful;\r\n    } else {\r\n      // reentrancy prevented by nonReentrant modifier\r\n      // slither-disable-next-line reentrancy-eth\r\n      execution.state = ExecutionState.ExecutionFailed;\r\n    }\r\n\r\n    require(plans[execution.plan].token.transfer(payee, plans[execution.plan].pricePerExecution), \"Couldn't transfer to payee\");\r\n  }\r\n}\r\n",
  "sourcePath": "D:/SourceCode/IOVLabs/rif-scheduler-contracts/contracts/OneShotSchedule.sol",
  "compiler": {
    "name": "solc",
    "version": "0.8.0+commit.c7dfd78e.Emscripten.clang"
  },
  "schemaVersion": "3.4.1",
  "updatedAt": "2021-05-27T12:38:55.107Z",
  "devdoc": {
    "kind": "dev",
    "methods": {},
    "version": 1
  },
  "userdoc": {
    "kind": "user",
    "methods": {},
    "version": 1
  }
}