{
  "contractName": "OneShotSchedule",
  "abi": [
    {
      "anonymous": false,
      "inputs": [
        {
          "indexed": true,
          "internalType": "bytes32",
          "name": "id",
          "type": "bytes32"
        },
        {
          "indexed": false,
          "internalType": "bool",
          "name": "success",
          "type": "bool"
        },
        {
          "indexed": false,
          "internalType": "bytes",
          "name": "result",
          "type": "bytes"
        }
      ],
      "name": "Executed",
      "type": "event"
    },
    {
      "anonymous": false,
      "inputs": [
        {
          "indexed": true,
          "internalType": "bytes32",
          "name": "id",
          "type": "bytes32"
        }
      ],
      "name": "ExecutionCancelled",
      "type": "event"
    },
    {
      "anonymous": false,
      "inputs": [
        {
          "indexed": true,
          "internalType": "address",
          "name": "requestor",
          "type": "address"
        },
        {
          "indexed": false,
          "internalType": "uint256",
          "name": "plan",
          "type": "uint256"
        },
        {
          "indexed": false,
          "internalType": "uint256",
          "name": "amount",
          "type": "uint256"
        }
      ],
      "name": "ExecutionPurchased",
      "type": "event"
    },
    {
      "anonymous": false,
      "inputs": [
        {
          "indexed": true,
          "internalType": "bytes32",
          "name": "id",
          "type": "bytes32"
        },
        {
          "indexed": false,
          "internalType": "uint256",
          "name": "timestamp",
          "type": "uint256"
        }
      ],
      "name": "ExecutionRequested",
      "type": "event"
    },
    {
      "anonymous": false,
      "inputs": [
        {
          "indexed": true,
          "internalType": "uint256",
          "name": "index",
          "type": "uint256"
        },
        {
          "indexed": false,
          "internalType": "uint256",
          "name": "price",
          "type": "uint256"
        },
        {
          "indexed": false,
          "internalType": "address",
          "name": "token",
          "type": "address"
        },
        {
          "indexed": false,
          "internalType": "uint256",
          "name": "window",
          "type": "uint256"
        }
      ],
      "name": "PlanAdded",
      "type": "event"
    },
    {
      "anonymous": false,
      "inputs": [
        {
          "indexed": true,
          "internalType": "uint256",
          "name": "index",
          "type": "uint256"
        }
      ],
      "name": "PlanRemoved",
      "type": "event"
    },
    {
      "inputs": [],
      "name": "payee",
      "outputs": [
        {
          "internalType": "address",
          "name": "",
          "type": "address"
        }
      ],
      "stateMutability": "view",
      "type": "function"
    },
    {
      "inputs": [
        {
          "internalType": "uint256",
          "name": "",
          "type": "uint256"
        }
      ],
      "name": "plans",
      "outputs": [
        {
          "internalType": "uint256",
          "name": "pricePerExecution",
          "type": "uint256"
        },
        {
          "internalType": "uint256",
          "name": "window",
          "type": "uint256"
        },
        {
          "internalType": "contract IERC677",
          "name": "token",
          "type": "address"
        },
        {
          "internalType": "bool",
          "name": "active",
          "type": "bool"
        }
      ],
      "stateMutability": "view",
      "type": "function"
    },
    {
      "inputs": [
        {
          "internalType": "address",
          "name": "",
          "type": "address"
        },
        {
          "internalType": "uint256",
          "name": "",
          "type": "uint256"
        }
      ],
      "name": "remainingExecutions",
      "outputs": [
        {
          "internalType": "uint256",
          "name": "",
          "type": "uint256"
        }
      ],
      "stateMutability": "view",
      "type": "function"
    },
    {
      "inputs": [],
      "name": "serviceProvider",
      "outputs": [
        {
          "internalType": "address",
          "name": "",
          "type": "address"
        }
      ],
      "stateMutability": "view",
      "type": "function"
    },
    {
      "inputs": [
        {
          "internalType": "address",
          "name": "serviceProvider_",
          "type": "address"
        },
        {
          "internalType": "address",
          "name": "payee_",
          "type": "address"
        }
      ],
      "name": "initialize",
      "outputs": [],
      "stateMutability": "nonpayable",
      "type": "function"
    },
    {
      "inputs": [
        {
          "internalType": "uint256",
          "name": "price",
          "type": "uint256"
        },
        {
          "internalType": "uint256",
          "name": "window",
          "type": "uint256"
        },
        {
          "internalType": "contract IERC677",
          "name": "token",
          "type": "address"
        }
      ],
      "name": "addPlan",
      "outputs": [],
      "stateMutability": "nonpayable",
      "type": "function"
    },
    {
      "inputs": [
        {
          "internalType": "uint256",
          "name": "plan",
          "type": "uint256"
        }
      ],
      "name": "removePlan",
      "outputs": [],
      "stateMutability": "nonpayable",
      "type": "function"
    },
    {
      "inputs": [],
      "name": "plansCount",
      "outputs": [
        {
          "internalType": "uint256",
          "name": "",
          "type": "uint256"
        }
      ],
      "stateMutability": "view",
      "type": "function"
    },
    {
      "inputs": [
        {
          "internalType": "address",
          "name": "payee_",
          "type": "address"
        }
      ],
      "name": "setPayee",
      "outputs": [],
      "stateMutability": "nonpayable",
      "type": "function"
    },
    {
      "inputs": [
        {
          "internalType": "uint256",
          "name": "plan",
          "type": "uint256"
        },
        {
          "internalType": "uint256",
          "name": "quantity",
          "type": "uint256"
        }
      ],
      "name": "purchase",
      "outputs": [],
      "stateMutability": "nonpayable",
      "type": "function"
    },
    {
      "inputs": [
        {
          "internalType": "address",
          "name": "from",
          "type": "address"
        },
        {
          "internalType": "uint256",
          "name": "amount",
          "type": "uint256"
        },
        {
          "internalType": "bytes",
          "name": "data",
          "type": "bytes"
        }
      ],
      "name": "tokenFallback",
      "outputs": [
        {
          "internalType": "bool",
          "name": "",
          "type": "bool"
        }
      ],
      "stateMutability": "nonpayable",
      "type": "function"
    },
    {
      "inputs": [
        {
          "internalType": "bytes32",
          "name": "id",
          "type": "bytes32"
        }
      ],
      "name": "getState",
      "outputs": [
        {
          "internalType": "enum OneShotSchedule.ExecutionState",
          "name": "",
          "type": "uint8"
        }
      ],
      "stateMutability": "view",
      "type": "function"
    },
    {
      "inputs": [
        {
          "components": [
            {
              "internalType": "address",
              "name": "requestor",
              "type": "address"
            },
            {
              "internalType": "uint256",
              "name": "plan",
              "type": "uint256"
            },
            {
              "internalType": "address",
              "name": "to",
              "type": "address"
            },
            {
              "internalType": "bytes",
              "name": "data",
              "type": "bytes"
            },
            {
              "internalType": "uint256",
              "name": "gas",
              "type": "uint256"
            },
            {
              "internalType": "uint256",
              "name": "timestamp",
              "type": "uint256"
            },
            {
              "internalType": "uint256",
              "name": "value",
              "type": "uint256"
            },
            {
              "internalType": "enum OneShotSchedule.ExecutionState",
              "name": "state",
              "type": "uint8"
            }
          ],
          "internalType": "struct OneShotSchedule.Execution",
          "name": "execution",
          "type": "tuple"
        }
      ],
      "name": "hash",
      "outputs": [
        {
          "internalType": "bytes32",
          "name": "",
          "type": "bytes32"
        }
      ],
      "stateMutability": "pure",
      "type": "function"
    },
    {
      "inputs": [
        {
          "internalType": "uint256",
          "name": "plan",
          "type": "uint256"
        },
        {
          "internalType": "address",
          "name": "to",
          "type": "address"
        },
        {
          "internalType": "bytes",
          "name": "data",
          "type": "bytes"
        },
        {
          "internalType": "uint256",
          "name": "gas",
          "type": "uint256"
        },
        {
          "internalType": "uint256",
          "name": "timestamp",
          "type": "uint256"
        }
      ],
      "name": "schedule",
      "outputs": [
        {
          "internalType": "bytes32",
          "name": "id",
          "type": "bytes32"
        }
      ],
      "stateMutability": "payable",
      "type": "function"
    },
    {
      "inputs": [
        {
          "internalType": "bytes[]",
          "name": "data",
          "type": "bytes[]"
        }
      ],
      "name": "batchSchedule",
      "outputs": [
        {
          "internalType": "bytes32[]",
          "name": "ids",
          "type": "bytes32[]"
        }
      ],
      "stateMutability": "payable",
      "type": "function"
    },
    {
      "inputs": [
        {
          "internalType": "bytes32",
          "name": "id",
          "type": "bytes32"
        }
      ],
      "name": "getExecutionById",
      "outputs": [
        {
          "components": [
            {
              "internalType": "address",
              "name": "requestor",
              "type": "address"
            },
            {
              "internalType": "uint256",
              "name": "plan",
              "type": "uint256"
            },
            {
              "internalType": "address",
              "name": "to",
              "type": "address"
            },
            {
              "internalType": "bytes",
              "name": "data",
              "type": "bytes"
            },
            {
              "internalType": "uint256",
              "name": "gas",
              "type": "uint256"
            },
            {
              "internalType": "uint256",
              "name": "timestamp",
              "type": "uint256"
            },
            {
              "internalType": "uint256",
              "name": "value",
              "type": "uint256"
            },
            {
              "internalType": "enum OneShotSchedule.ExecutionState",
              "name": "state",
              "type": "uint8"
            }
          ],
          "internalType": "struct OneShotSchedule.Execution",
          "name": "execution",
          "type": "tuple"
        }
      ],
      "stateMutability": "view",
      "type": "function"
    },
    {
      "inputs": [
        {
          "internalType": "address",
          "name": "requestor",
          "type": "address"
        }
      ],
      "name": "executionsByRequestorCount",
      "outputs": [
        {
          "internalType": "uint256",
          "name": "",
          "type": "uint256"
        }
      ],
      "stateMutability": "view",
      "type": "function"
    },
    {
      "inputs": [
        {
          "internalType": "address",
          "name": "requestor",
          "type": "address"
        },
        {
          "internalType": "uint256",
          "name": "fromIndex",
          "type": "uint256"
        },
        {
          "internalType": "uint256",
          "name": "toIndex",
          "type": "uint256"
        }
      ],
      "name": "getExecutionsByRequestor",
      "outputs": [
        {
          "components": [
            {
              "internalType": "address",
              "name": "requestor",
              "type": "address"
            },
            {
              "internalType": "uint256",
              "name": "plan",
              "type": "uint256"
            },
            {
              "internalType": "address",
              "name": "to",
              "type": "address"
            },
            {
              "internalType": "bytes",
              "name": "data",
              "type": "bytes"
            },
            {
              "internalType": "uint256",
              "name": "gas",
              "type": "uint256"
            },
            {
              "internalType": "uint256",
              "name": "timestamp",
              "type": "uint256"
            },
            {
              "internalType": "uint256",
              "name": "value",
              "type": "uint256"
            },
            {
              "internalType": "enum OneShotSchedule.ExecutionState",
              "name": "state",
              "type": "uint8"
            }
          ],
          "internalType": "struct OneShotSchedule.Execution[]",
          "name": "executionList",
          "type": "tuple[]"
        }
      ],
      "stateMutability": "view",
      "type": "function"
    },
    {
      "inputs": [
        {
          "internalType": "bytes32",
          "name": "id",
          "type": "bytes32"
        }
      ],
      "name": "cancelScheduling",
      "outputs": [],
      "stateMutability": "nonpayable",
      "type": "function"
    },
    {
      "inputs": [
        {
          "internalType": "bytes32",
          "name": "id",
          "type": "bytes32"
        }
      ],
      "name": "execute",
      "outputs": [],
      "stateMutability": "nonpayable",
      "type": "function"
    },
    {
      "inputs": [
        {
          "internalType": "bytes[]",
          "name": "data",
          "type": "bytes[]"
        }
      ],
      "name": "multicall",
      "outputs": [
        {
          "internalType": "bytes[]",
          "name": "results",
          "type": "bytes[]"
        }
      ],
      "stateMutability": "nonpayable",
      "type": "function"
    }
  ],
  "bytecode": "0x60a06040523073ffffffffffffffffffffffffffffffffffffffff1660809073ffffffffffffffffffffffffffffffffffffffff166c010000000000000000000000000281525034801561005257600080fd5b506080516c010000000000000000000000009004614ccb61007e60003960006115f80152614ccb6000f3fe608060405260043610610147576000357c01000000000000000000000000000000000000000000000000000000009004806393a1b8d9116100c8578063c0ee0b8a1161008c578063c0ee0b8a1461042e578063dcd90b8f1461046b578063dd437ac2146104a8578063debd4c3d146104e5578063e751f2711461050e578063eb6f263d1461053757610147565b806393a1b8d914610319578063ac9650d814610349578063ae90b21314610386578063b1620616146103b1578063b395bb4b146103f157610147565b806358fa1d9d1161010f57806358fa1d9d1461022d578063591c613c1461026a57806370876c981461029557806373eab687146102be5780638d69e95e146102ee57610147565b806309648a9d1461014c57806328e550e614610189578063410459ad146101b2578063485cc955146101db57806354ceba0a14610204575b600080fd5b34801561015857600080fd5b50610173600480360381019061016e9190613512565b610574565b604051610180919061437c565b60405180910390f35b34801561019557600080fd5b506101b060048036038101906101ab919061357c565b610883565b005b3480156101be57600080fd5b506101d960048036038101906101d49190613348565b610a3e565b005b3480156101e757600080fd5b5061020260048036038101906101fd9190613371565b610b82565b005b34801561021057600080fd5b5061022b60048036038101906102269190613512565b610dc7565b005b34801561023957600080fd5b50610254600480360381019061024f919061353b565b6110ae565b6040516102619190614361565b60405180910390f35b34801561027657600080fd5b5061027f611106565b60405161028c9190614639565b60405180910390f35b3480156102a157600080fd5b506102bc60048036038101906102b791906136d8565b611113565b005b6102d860048036038101906102d39190613646565b611280565b6040516102e59190614361565b60405180910390f35b3480156102fa57600080fd5b5061030361137e565b60405161031091906141bf565b60405180910390f35b610333600480360381019061032e91906134a4565b6113a4565b60405161034091906142b0565b60405180910390f35b34801561035557600080fd5b50610370600480360381019061036b91906134a4565b6115f4565b60405161037d91906142d2565b60405180910390f35b34801561039257600080fd5b5061039b6117f9565b6040516103a891906141bf565b60405180910390f35b3480156103bd57600080fd5b506103d860048036038101906103d3919061357c565b61181f565b6040516103e894939291906146b4565b60405180910390f35b3480156103fd57600080fd5b50610418600480360381019061041391906133ad565b61188c565b6040516104259190614639565b60405180910390f35b34801561043a57600080fd5b50610455600480360381019061045091906133e9565b6118b1565b6040516104629190614316565b60405180910390f35b34801561047757600080fd5b50610492600480360381019061048d9190613455565b611a06565b60405161049f91906142f4565b60405180910390f35b3480156104b457600080fd5b506104cf60048036038101906104ca9190613512565b611c21565b6040516104dc9190614617565b60405180910390f35b3480156104f157600080fd5b5061050c60048036038101906105079190613714565b611ec0565b005b34801561051a57600080fd5b5061053560048036038101906105309190613512565b6120f4565b005b34801561054357600080fd5b5061055e60048036038101906105599190613348565b6126b0565b60405161056b9190614639565b60405180910390f35b60008060376000848152602001908152602001600020604051806101000160405290816000820160009054906101000a900473ffffffffffffffffffffffffffffffffffffffff1673ffffffffffffffffffffffffffffffffffffffff1673ffffffffffffffffffffffffffffffffffffffff168152602001600182015481526020016002820160009054906101000a900473ffffffffffffffffffffffffffffffffffffffff1673ffffffffffffffffffffffffffffffffffffffff1673ffffffffffffffffffffffffffffffffffffffff16815260200160038201805461065c90614a9f565b80601f016020809104026020016040519081016040528092919081815260200182805461068890614a9f565b80156106d55780601f106106aa576101008083540402835291602001916106d5565b820191906000526020600020905b8154815290600101906020018083116106b857829003601f168201915b505050505081526020016004820154815260200160058201548152602001600682015481526020016007820160009054906101000a900460ff166005811115610747577f4e487b7100000000000000000000000000000000000000000000000000000000600052602160045260246000fd5b600581111561077f577f4e487b7100000000000000000000000000000000000000000000000000000000600052602160045260246000fd5b815250509050600060058111156107bf577f4e487b7100000000000000000000000000000000000000000000000000000000600052602160045260246000fd5b8160e0015160058111156107fc577f4e487b7100000000000000000000000000000000000000000000000000000000600052602160045260246000fd5b1480156108665750426035826020015181548110610843577f4e487b7100000000000000000000000000000000000000000000000000000000600052603260045260246000fd5b9060005260206000209060030201600101548260a0015161086491906148ba565b105b1561087557600391505061087e565b8060e001519150505b919050565b603360009054906101000a900473ffffffffffffffffffffffffffffffffffffffff1673ffffffffffffffffffffffffffffffffffffffff163373ffffffffffffffffffffffffffffffffffffffff1614610913576040517f08c379a000000000000000000000000000000000000000000000000000000000815260040161090a906145f7565b60405180910390fd5b6035818154811061094d577f4e487b7100000000000000000000000000000000000000000000000000000000600052603260045260246000fd5b906000526020600020906003020160020160149054906101000a900460ff166109ab576040517f08c379a00000000000000000000000000000000000000000000000000000000081526004016109a290614397565b60405180910390fd5b6000603582815481106109e7577f4e487b7100000000000000000000000000000000000000000000000000000000600052603260045260246000fd5b906000526020600020906003020160020160146101000a81548160ff021916908315150217905550807e4c797e6739331fc6d5c1ebdf112d63e6a68297fdfd28f35f54561e28fd868d60405160405180910390a250565b603360009054906101000a900473ffffffffffffffffffffffffffffffffffffffff1673ffffffffffffffffffffffffffffffffffffffff163373ffffffffffffffffffffffffffffffffffffffff1614610ace576040517f08c379a0000000000000000000000000000000000000000000000000000000008152600401610ac5906145f7565b60405180910390fd5b600073ffffffffffffffffffffffffffffffffffffffff168173ffffffffffffffffffffffffffffffffffffffff161415610b3e576040517f08c379a0000000000000000000000000000000000000000000000000000000008152600401610b3590614577565b60405180910390fd5b80603460006101000a81548173ffffffffffffffffffffffffffffffffffffffff021916908373ffffffffffffffffffffffffffffffffffffffff16021790555050565b600060019054906101000a900460ff1680610ba8575060008054906101000a900460ff16155b610be7576040517f08c379a0000000000000000000000000000000000000000000000000000000008152600401610bde906144b7565b60405180910390fd5b60008060019054906101000a900460ff161590508015610c37576001600060016101000a81548160ff02191690831515021790555060016000806101000a81548160ff0219169083151502179055505b610c3f6126fc565b600073ffffffffffffffffffffffffffffffffffffffff168273ffffffffffffffffffffffffffffffffffffffff161415610caf576040517f08c379a0000000000000000000000000000000000000000000000000000000008152600401610ca690614577565b60405180910390fd5b600073ffffffffffffffffffffffffffffffffffffffff168373ffffffffffffffffffffffffffffffffffffffff161415610d1f576040517f08c379a0000000000000000000000000000000000000000000000000000000008152600401610d16906144f7565b60405180910390fd5b82603360006101000a81548173ffffffffffffffffffffffffffffffffffffffff021916908373ffffffffffffffffffffffffffffffffffffffff16021790555081603460006101000a81548173ffffffffffffffffffffffffffffffffffffffff021916908373ffffffffffffffffffffffffffffffffffffffff1602179055508015610dc25760008060016101000a81548160ff0219169083151502179055505b505050565b600060376000838152602001908152602001600020905060006005811115610e18577f4e487b7100000000000000000000000000000000000000000000000000000000600052602160045260246000fd5b610e2183610574565b6005811115610e59577f4e487b7100000000000000000000000000000000000000000000000000000000600052602160045260246000fd5b14610e99576040517f08c379a0000000000000000000000000000000000000000000000000000000008152600401610e90906143f7565b60405180910390fd5b8060000160009054906101000a900473ffffffffffffffffffffffffffffffffffffffff1673ffffffffffffffffffffffffffffffffffffffff163373ffffffffffffffffffffffffffffffffffffffff1614610f2b576040517f08c379a0000000000000000000000000000000000000000000000000000000008152600401610f22906145f7565b60405180910390fd5b60058160070160006101000a81548160ff02191690836005811115610f79577f4e487b7100000000000000000000000000000000000000000000000000000000600052602160045260246000fd5b02179055506001603660008360000160009054906101000a900473ffffffffffffffffffffffffffffffffffffffff1673ffffffffffffffffffffffffffffffffffffffff1673ffffffffffffffffffffffffffffffffffffffff168152602001908152602001600020600083600101548152602001908152602001600020600082825461100791906148ba565b92505081905550817fa9492956e3406e5fabb393f5ac68540da3bb42721d741519c0eadd27a15d83c060405160405180910390a28060000160009054906101000a900473ffffffffffffffffffffffffffffffffffffffff1673ffffffffffffffffffffffffffffffffffffffff166108fc82600601549081150290604051600060405180830381858888f193505050501580156110a9573d6000803e3d6000fd5b505050565b6000816000015182602001518360400151846060015185608001518660a001518760c001516040516020016110e9979695949392919061423a565b604051602081830303815290604052805190602001209050919050565b6000603580549050905090565b61111e3383836127dd565b60358281548110611158577f4e487b7100000000000000000000000000000000000000000000000000000000600052603260045260246000fd5b906000526020600020906003020160020160009054906101000a900473ffffffffffffffffffffffffffffffffffffffff1673ffffffffffffffffffffffffffffffffffffffff166323b872dd33306111b18686612931565b6040518463ffffffff167c01000000000000000000000000000000000000000000000000000000000281526004016111eb939291906141da565b602060405180830381600087803b15801561120557600080fd5b505af1158015611219573d6000803e3d6000fd5b505050506040513d601f19601f8201168201806040525081019061123d91906134e9565b61127c576040517f08c379a000000000000000000000000000000000000000000000000000000000815260040161127390614477565b60405180910390fd5b5050565b6000806040518061010001604052803373ffffffffffffffffffffffffffffffffffffffff1681526020018981526020018873ffffffffffffffffffffffffffffffffffffffff16815260200187878080601f016020809104026020016040519081016040528093929190818152602001838380828437600081840152601f19601f82011690508083019250505050505050815260200185815260200184815260200134815260200160006005811115611363577f4e487b7100000000000000000000000000000000000000000000000000000000600052602160045260246000fd5b815250905061137181612992565b9150509695505050505050565b603360009054906101000a900473ffffffffffffffffffffffffffffffffffffffff1681565b606060008383905067ffffffffffffffff8111156113eb577f4e487b7100000000000000000000000000000000000000000000000000000000600052604160045260246000fd5b6040519080825280602002602001820160405280156114195781602001602082028036833780820191505090505b50915060005b848490508110156115aa576000806000806000808a8a8881811061146c577f4e487b7100000000000000000000000000000000000000000000000000000000600052603260045260246000fd5b905060200281019061147e91906146f9565b81019061148b91906135a5565b95509550955095509550955080886114a391906148ba565b975061154c6040518061010001604052803373ffffffffffffffffffffffffffffffffffffffff1681526020018881526020018773ffffffffffffffffffffffffffffffffffffffff16815260200186815260200185815260200184815260200183815260200160006005811115611544577f4e487b7100000000000000000000000000000000000000000000000000000000600052602160045260246000fd5b815250612992565b898881518110611585577f4e487b7100000000000000000000000000000000000000000000000000000000600052603260045260246000fd5b60200260200101818152505050505050505080806115a290614ad1565b91505061141f565b503481146115ed576040517f08c379a00000000000000000000000000000000000000000000000000000000081526004016115e4906144d7565b60405180910390fd5b5092915050565b60607f000000000000000000000000000000000000000000000000000000000000000073ffffffffffffffffffffffffffffffffffffffff163073ffffffffffffffffffffffffffffffffffffffff16141561164f57600080fd5b8282905067ffffffffffffffff811115611692577f4e487b7100000000000000000000000000000000000000000000000000000000600052604160045260246000fd5b6040519080825280602002602001820160405280156116c557816020015b60608152602001906001900390816116b05790505b50905060005b838390508110156117f2576000803073ffffffffffffffffffffffffffffffffffffffff16868685818110611729577f4e487b7100000000000000000000000000000000000000000000000000000000600052603260045260246000fd5b905060200281019061173b91906146f9565b60405161174992919061418f565b600060405180830381855af49150503d8060008114611784576040519150601f19603f3d011682016040523d82523d6000602084013e611789565b606091505b50915091508161179857600080fd5b808484815181106117d2577f4e487b7100000000000000000000000000000000000000000000000000000000600052603260045260246000fd5b6020026020010181905250505080806117ea90614ad1565b9150506116cb565b5092915050565b603460009054906101000a900473ffffffffffffffffffffffffffffffffffffffff1681565b6035818154811061182f57600080fd5b90600052602060002090600302016000915090508060000154908060010154908060020160009054906101000a900473ffffffffffffffffffffffffffffffffffffffff16908060020160149054906101000a900460ff16905084565b6036602052816000526040600020602052806000526040600020600091509150505481565b600080600084848101906118c591906136d8565b915091503373ffffffffffffffffffffffffffffffffffffffff166035838154811061191a577f4e487b7100000000000000000000000000000000000000000000000000000000600052603260045260246000fd5b906000526020600020906003020160020160009054906101000a900473ffffffffffffffffffffffffffffffffffffffff1673ffffffffffffffffffffffffffffffffffffffff16146119a2576040517f08c379a000000000000000000000000000000000000000000000000000000000815260040161199990614437565b60405180910390fd5b6119ac8282612931565b86146119ed576040517f08c379a00000000000000000000000000000000000000000000000000000000081526004016119e490614497565b60405180910390fd5b6119f88783836127dd565b600192505050949350505050565b606081603860008673ffffffffffffffffffffffffffffffffffffffff1673ffffffffffffffffffffffffffffffffffffffff1681526020019081526020016000208054905010158015611a5957508183105b611a98576040517f08c379a0000000000000000000000000000000000000000000000000000000008152600401611a8f90614597565b60405180910390fd5b8282611aa4919061496a565b67ffffffffffffffff811115611ae3577f4e487b7100000000000000000000000000000000000000000000000000000000600052604160045260246000fd5b604051908082528060200260200182016040528015611b1c57816020015b611b09612f8f565b815260200190600190039081611b015790505b50905060008390505b82811015611c1957611bb7603860008773ffffffffffffffffffffffffffffffffffffffff1673ffffffffffffffffffffffffffffffffffffffff1681526020019081526020016000208281548110611ba7577f4e487b7100000000000000000000000000000000000000000000000000000000600052603260045260246000fd5b9060005260206000200154611c21565b828583611bc4919061496a565b81518110611bfb577f4e487b7100000000000000000000000000000000000000000000000000000000600052603260045260246000fd5b60200260200101819052508080611c1190614ad1565b915050611b25565b509392505050565b611c29612f8f565b60376000838152602001908152602001600020604051806101000160405290816000820160009054906101000a900473ffffffffffffffffffffffffffffffffffffffff1673ffffffffffffffffffffffffffffffffffffffff1673ffffffffffffffffffffffffffffffffffffffff168152602001600182015481526020016002820160009054906101000a900473ffffffffffffffffffffffffffffffffffffffff1673ffffffffffffffffffffffffffffffffffffffff1673ffffffffffffffffffffffffffffffffffffffff168152602001600382018054611d0e90614a9f565b80601f0160208091040260200160405190810160405280929190818152602001828054611d3a90614a9f565b8015611d875780601f10611d5c57610100808354040283529160200191611d87565b820191906000526020600020905b815481529060010190602001808311611d6a57829003601f168201915b505050505081526020016004820154815260200160058201548152602001600682015481526020016007820160009054906101000a900460ff166005811115611df9577f4e487b7100000000000000000000000000000000000000000000000000000000600052602160045260246000fd5b6005811115611e31577f4e487b7100000000000000000000000000000000000000000000000000000000600052602160045260246000fd5b815250509050611e4082610574565b8160e001906005811115611e7d577f4e487b7100000000000000000000000000000000000000000000000000000000600052602160045260246000fd5b90816005811115611eb7577f4e487b7100000000000000000000000000000000000000000000000000000000600052602160045260246000fd5b81525050919050565b603360009054906101000a900473ffffffffffffffffffffffffffffffffffffffff1673ffffffffffffffffffffffffffffffffffffffff163373ffffffffffffffffffffffffffffffffffffffff1614611f50576040517f08c379a0000000000000000000000000000000000000000000000000000000008152600401611f47906145f7565b60405180910390fd5b600073ffffffffffffffffffffffffffffffffffffffff168173ffffffffffffffffffffffffffffffffffffffff161415611fc0576040517f08c379a0000000000000000000000000000000000000000000000000000000008152600401611fb790614557565b60405180910390fd5b603560405180608001604052808581526020018481526020018373ffffffffffffffffffffffffffffffffffffffff168152602001600115158152509080600181540180825580915050600190039060005260206000209060030201600090919091909150600082015181600001556020820151816001015560408201518160020160006101000a81548173ffffffffffffffffffffffffffffffffffffffff021916908373ffffffffffffffffffffffffffffffffffffffff16021790555060608201518160020160146101000a81548160ff021916908315150217905550505060016035805490506120b4919061496a565b7f398c82e2ccf5aaee72a60b95d6543133e8fc843e113441e9a2d767274c8d8eef8483856040516120e793929190614654565b60405180910390a2505050565b6002600154141561213a576040517f08c379a0000000000000000000000000000000000000000000000000000000008152600401612131906145d7565b60405180910390fd5b6002600181905550600060376000838152602001908152602001600020905060006005811115612193577f4e487b7100000000000000000000000000000000000000000000000000000000600052602160045260246000fd5b8160070160009054906101000a900460ff1660058111156121dd577f4e487b7100000000000000000000000000000000000000000000000000000000600052602160045260246000fd5b1461221d576040517f08c379a000000000000000000000000000000000000000000000000000000000815260040161221490614457565b60405180910390fd5b42603582600101548154811061225c577f4e487b7100000000000000000000000000000000000000000000000000000000600052603260045260246000fd5b906000526020600020906003020160010154826005015461227d919061496a565b106122bd576040517f08c379a00000000000000000000000000000000000000000000000000000000081526004016122b490614537565b60405180910390fd5b600360058111156122f7577f4e487b7100000000000000000000000000000000000000000000000000000000600052602160045260246000fd5b61230083610574565b6005811115612338577f4e487b7100000000000000000000000000000000000000000000000000000000600052602160045260246000fd5b141561234d5761234782612d42565b506126a6565b6000808260020160009054906101000a900473ffffffffffffffffffffffffffffffffffffffff1673ffffffffffffffffffffffffffffffffffffffff1683600401548460060154856003016040516123a691906141a8565b600060405180830381858888f193505050503d80600081146123e4576040519150601f19603f3d011682016040523d82523d6000602084013e6123e9565b606091505b5091509150837fbbb9534b79cda5e36feb34cc697d5e728db1a530363e152c539fb70b3f75f7ac8383604051612420929190614331565b60405180910390a281156124865760018360070160006101000a81548160ff0219169083600581111561247c577f4e487b7100000000000000000000000000000000000000000000000000000000600052602160045260246000fd5b02179055506124da565b60028360070160006101000a81548160ff021916908360058111156124d4577f4e487b7100000000000000000000000000000000000000000000000000000000600052602160045260246000fd5b02179055505b6035836001015481548110612518577f4e487b7100000000000000000000000000000000000000000000000000000000600052603260045260246000fd5b906000526020600020906003020160020160009054906101000a900473ffffffffffffffffffffffffffffffffffffffff1673ffffffffffffffffffffffffffffffffffffffff1663a9059cbb603460009054906101000a900473ffffffffffffffffffffffffffffffffffffffff1660358660010154815481106125c6577f4e487b7100000000000000000000000000000000000000000000000000000000600052603260045260246000fd5b9060005260206000209060030201600001546040518363ffffffff167c0100000000000000000000000000000000000000000000000000000000028152600401612611929190614211565b602060405180830381600087803b15801561262b57600080fd5b505af115801561263f573d6000803e3d6000fd5b505050506040513d601f19601f8201168201806040525081019061266391906134e9565b6126a2576040517f08c379a0000000000000000000000000000000000000000000000000000000008152600401612699906143d7565b60405180910390fd5b5050505b6001808190555050565b6000603860008373ffffffffffffffffffffffffffffffffffffffff1673ffffffffffffffffffffffffffffffffffffffff168152602001908152602001600020805490509050919050565b600060019054906101000a900460ff1680612722575060008054906101000a900460ff16155b612761576040517f08c379a0000000000000000000000000000000000000000000000000000000008152600401612758906144b7565b60405180910390fd5b60008060019054906101000a900460ff1615905080156127b1576001600060016101000a81548160ff02191690831515021790555060016000806101000a81548160ff0219169083151502179055505b6127b9612eaf565b80156127da5760008060016101000a81548160ff0219169083151502179055505b50565b60358281548110612817577f4e487b7100000000000000000000000000000000000000000000000000000000600052603260045260246000fd5b906000526020600020906003020160020160149054906101000a900460ff16612875576040517f08c379a000000000000000000000000000000000000000000000000000000000815260040161286c906145b7565b60405180910390fd5b80603660008573ffffffffffffffffffffffffffffffffffffffff1673ffffffffffffffffffffffffffffffffffffffff168152602001908152602001600020600084815260200190815260200160002060008282546128d591906148ba565b925050819055508273ffffffffffffffffffffffffffffffffffffffff167f1d00f3ff8ba6a0ac98e7c747985ac34f1f706f5d0fa06abaa4c090a60598a65d838360405161292492919061468b565b60405180910390a2505050565b60006035838154811061296d577f4e487b7100000000000000000000000000000000000000000000000000000000600052603260045260246000fd5b9060005260206000209060030201600001548261298a9190614910565b905092915050565b6000816000015173ffffffffffffffffffffffffffffffffffffffff163373ffffffffffffffffffffffffffffffffffffffff1614612a06576040517f08c379a00000000000000000000000000000000000000000000000000000000081526004016129fd906143b7565b60405180910390fd5b6000603660003373ffffffffffffffffffffffffffffffffffffffff1673ffffffffffffffffffffffffffffffffffffffff1681526020019081526020016000206000846020015181526020019081526020016000205411612a9d576040517f08c379a0000000000000000000000000000000000000000000000000000000008152600401612a9490614417565b60405180910390fd5b8160a00151421115612ae4576040517f08c379a0000000000000000000000000000000000000000000000000000000008152600401612adb90614517565b60405180910390fd5b6001603660003373ffffffffffffffffffffffffffffffffffffffff1673ffffffffffffffffffffffffffffffffffffffff1681526020019081526020016000206000846020015181526020019081526020016000206000828254612b49919061496a565b92505081905550612b59826110ae565b9050816037600083815260200190815260200160002060008201518160000160006101000a81548173ffffffffffffffffffffffffffffffffffffffff021916908373ffffffffffffffffffffffffffffffffffffffff1602179055506020820151816001015560408201518160020160006101000a81548173ffffffffffffffffffffffffffffffffffffffff021916908373ffffffffffffffffffffffffffffffffffffffff1602179055506060820151816003019080519060200190612c23929190613038565b506080820151816004015560a0820151816005015560c0820151816006015560e08201518160070160006101000a81548160ff02191690836005811115612c93577f4e487b7100000000000000000000000000000000000000000000000000000000600052602160045260246000fd5b0217905550905050603860003373ffffffffffffffffffffffffffffffffffffffff1673ffffffffffffffffffffffffffffffffffffffff168152602001908152602001600020819080600181540180825580915050600190039060005260206000200160009091909190915055807fb19e7bab761c1d438a654faa449e3736081f6c0e0a0786ddd4d31853845283208360a00151604051612d359190614639565b60405180910390a2919050565b60006037600083815260200190815260200160002090506001603660008360000160009054906101000a900473ffffffffffffffffffffffffffffffffffffffff1673ffffffffffffffffffffffffffffffffffffffff1673ffffffffffffffffffffffffffffffffffffffff1681526020019081526020016000206000836001015481526020019081526020016000206000828254612de291906148ba565b9250508190555060048160070160006101000a81548160ff02191690836005811115612e37577f4e487b7100000000000000000000000000000000000000000000000000000000600052602160045260246000fd5b02179055508060000160009054906101000a900473ffffffffffffffffffffffffffffffffffffffff1673ffffffffffffffffffffffffffffffffffffffff166108fc82600601549081150290604051600060405180830381858888f19350505050158015612eaa573d6000803e3d6000fd5b505050565b600060019054906101000a900460ff1680612ed5575060008054906101000a900460ff16155b612f14576040517f08c379a0000000000000000000000000000000000000000000000000000000008152600401612f0b906144b7565b60405180910390fd5b60008060019054906101000a900460ff161590508015612f64576001600060016101000a81548160ff02191690831515021790555060016000806101000a81548160ff0219169083151502179055505b600180819055508015612f8c5760008060016101000a81548160ff0219169083151502179055505b50565b604051806101000160405280600073ffffffffffffffffffffffffffffffffffffffff16815260200160008152602001600073ffffffffffffffffffffffffffffffffffffffff1681526020016060815260200160008152602001600081526020016000815260200160006005811115613032577f4e487b7100000000000000000000000000000000000000000000000000000000600052602160045260246000fd5b81525090565b82805461304490614a9f565b90600052602060002090601f01602090048101928261306657600085556130ad565b82601f1061307f57805160ff19168380011785556130ad565b828001600101855582156130ad579182015b828111156130ac578251825591602001919060010190613091565b5b5090506130ba91906130be565b5090565b5b808211156130d75760008160009055506001016130bf565b5090565b60006130ee6130e984614781565b614750565b90508281526020810184848401111561310657600080fd5b613111848285614a5d565b509392505050565b60008135905061312881614bfb565b92915050565b60008135905061313d81614c12565b92915050565b60008083601f84011261315557600080fd5b8235905067ffffffffffffffff81111561316e57600080fd5b60208301915083602082028301111561318657600080fd5b9250929050565b60008151905061319c81614c29565b92915050565b6000813590506131b181614c40565b92915050565b60008083601f8401126131c957600080fd5b8235905067ffffffffffffffff8111156131e257600080fd5b6020830191508360018202830111156131fa57600080fd5b9250929050565b600082601f83011261321257600080fd5b81356132228482602086016130db565b91505092915050565b60008135905061323a81614c57565b92915050565b60008135905061324f81614c6e565b92915050565b6000610100828403121561326857600080fd5b613273610100614750565b9050600061328384828501613119565b600083015250602061329784828501613333565b60208301525060406132ab84828501613119565b604083015250606082013567ffffffffffffffff8111156132cb57600080fd5b6132d784828501613201565b60608301525060806132eb84828501613333565b60808301525060a06132ff84828501613333565b60a08301525060c061331384828501613333565b60c08301525060e061332784828501613240565b60e08301525092915050565b60008135905061334281614c7e565b92915050565b60006020828403121561335a57600080fd5b600061336884828501613119565b91505092915050565b6000806040838503121561338457600080fd5b600061339285828601613119565b92505060206133a385828601613119565b9150509250929050565b600080604083850312156133c057600080fd5b60006133ce85828601613119565b92505060206133df85828601613333565b9150509250929050565b600080600080606085870312156133ff57600080fd5b600061340d87828801613119565b945050602061341e87828801613333565b935050604085013567ffffffffffffffff81111561343b57600080fd5b613447878288016131b7565b925092505092959194509250565b60008060006060848603121561346a57600080fd5b600061347886828701613119565b935050602061348986828701613333565b925050604061349a86828701613333565b9150509250925092565b600080602083850312156134b757600080fd5b600083013567ffffffffffffffff8111156134d157600080fd5b6134dd85828601613143565b92509250509250929050565b6000602082840312156134fb57600080fd5b60006135098482850161318d565b91505092915050565b60006020828403121561352457600080fd5b6000613532848285016131a2565b91505092915050565b60006020828403121561354d57600080fd5b600082013567ffffffffffffffff81111561356757600080fd5b61357384828501613255565b91505092915050565b60006020828403121561358e57600080fd5b600061359c84828501613333565b91505092915050565b60008060008060008060c087890312156135be57600080fd5b60006135cc89828a01613333565b96505060206135dd89828a0161312e565b955050604087013567ffffffffffffffff8111156135fa57600080fd5b61360689828a01613201565b945050606061361789828a01613333565b935050608061362889828a01613333565b92505060a061363989828a01613333565b9150509295509295509295565b60008060008060008060a0878903121561365f57600080fd5b600061366d89828a01613333565b965050602061367e89828a01613119565b955050604087013567ffffffffffffffff81111561369b57600080fd5b6136a789828a016131b7565b945094505060606136ba89828a01613333565b92505060806136cb89828a01613333565b9150509295509295509295565b600080604083850312156136eb57600080fd5b60006136f985828601613333565b925050602061370a85828601613333565b9150509250929050565b60008060006060848603121561372957600080fd5b600061373786828701613333565b935050602061374886828701613333565b92505060406137598682870161322b565b9150509250925092565b600061376f8383613918565b60208301905092915050565b6000613787838361395b565b905092915050565b600061379b8383614011565b905092915050565b6137ac8161499e565b82525050565b6137bb8161499e565b82525050565b60006137cc826147f6565b6137d68185614849565b93506137e1836147b1565b8060005b838110156138125781516137f98882613763565b975061380483614822565b9250506001810190506137e5565b5085935050505092915050565b600061382a82614801565b613834818561485a565b935083602082028501613846856147c1565b8060005b858110156138825784840389528151613863858261377b565b945061386e8361482f565b925060208a0199505060018101905061384a565b50829750879550505050505092915050565b600061389f8261480c565b6138a9818561486b565b9350836020820285016138bb856147d1565b8060005b858110156138f757848403895281516138d8858261378f565b94506138e38361483c565b925060208a019950506001810190506138bf565b50829750879550505050505092915050565b613912816149c2565b82525050565b613921816149ce565b82525050565b613930816149ce565b82525050565b6000613942838561489e565b935061394f838584614a5d565b82840190509392505050565b600061396682614817565b613970818561487c565b9350613980818560208601614a6c565b61398981614bd6565b840191505092915050565b600061399f82614817565b6139a9818561488d565b93506139b9818560208601614a6c565b6139c281614bd6565b840191505092915050565b600081546139da81614a9f565b6139e4818661489e565b945060018216600081146139ff5760018114613a1057613a43565b60ff19831686528186019350613a43565b613a19856147e1565b60005b83811015613a3b57815481890152600182019150602081019050613a1c565b838801955050505b50505092915050565b613a5581614a27565b82525050565b613a6481614a4b565b82525050565b613a7381614a4b565b82525050565b6000613a86601c836148a9565b91507f54686520706c616e20697320616c726561647920696e616374697665000000006000830152602082019050919050565b6000613ac66011836148a9565b91507f4e6f742074686520726571756573746f720000000000000000000000000000006000830152602082019050919050565b6000613b06601a836148a9565b91507f436f756c646e2774207472616e7366657220746f2070617965650000000000006000830152602082019050919050565b6000613b466019836148a9565b91507f5472616e73616374696f6e206e6f74207363686564756c6564000000000000006000830152602082019050919050565b6000613b866014836148a9565b91507f4e6f2062616c616e636520617661696c61626c650000000000000000000000006000830152602082019050919050565b6000613bc66009836148a9565b91507f42616420746f6b656e00000000000000000000000000000000000000000000006000830152602082019050919050565b6000613c066010836148a9565b91507f416c7265616479206578656375746564000000000000000000000000000000006000830152602082019050919050565b6000613c466012836148a9565b91507f5061796d656e74206469642774207061737300000000000000000000000000006000830152602082019050919050565b6000613c86602f836148a9565b91507f5472616e7366657272656420616d6f756e7420646f65736e2774206d6174636860008301527f20746f74616c20707572636861736500000000000000000000000000000000006020830152604082019050919050565b6000613cec602e836148a9565b91507f496e697469616c697a61626c653a20636f6e747261637420697320616c72656160008301527f647920696e697469616c697a65640000000000000000000000000000000000006020830152604082019050919050565b6000613d526024836148a9565b91507f457865637574696f6e7320746f74616c2076616c756520646f65736e2774206d60008301527f61746368000000000000000000000000000000000000000000000000000000006020830152604082019050919050565b6000613db86026836148a9565b91507f536572766963652070726f766964657220616464726573732063616e6e6f742060008301527f62652030783000000000000000000000000000000000000000000000000000006020830152604082019050919050565b6000613e1e601e836148a9565b91507f43616e6e6f74207363686564756c6520697420696e20746865207061737400006000830152602082019050919050565b6000613e5e6008836148a9565b91507f546f6f20736f6f6e0000000000000000000000000000000000000000000000006000830152602082019050919050565b6000613e9e601b836148a9565b91507f546f6b656e20616464726573732063616e6e6f742062652030783000000000006000830152602082019050919050565b6000613ede601b836148a9565b91507f506179656520616464726573732063616e6e6f742062652030783000000000006000830152602082019050919050565b6000613f1e600c836148a9565b91507f4f7574206f662072616e676500000000000000000000000000000000000000006000830152602082019050919050565b6000613f5e600d836148a9565b91507f496e61637469766520706c616e000000000000000000000000000000000000006000830152602082019050919050565b6000613f9e601f836148a9565b91507f5265656e7472616e637947756172643a207265656e7472616e742063616c6c006000830152602082019050919050565b6000613fde600e836148a9565b91507f4e6f7420617574686f72697a65640000000000000000000000000000000000006000830152602082019050919050565b60006101008301600083015161402a60008601826137a3565b50602083015161403d6020860182614171565b50604083015161405060408601826137a3565b5060608301518482036060860152614068828261395b565b915050608083015161407d6080860182614171565b5060a083015161409060a0860182614171565b5060c08301516140a360c0860182614171565b5060e08301516140b660e0860182613a5b565b508091505092915050565b6000610100830160008301516140da60008601826137a3565b5060208301516140ed6020860182614171565b50604083015161410060408601826137a3565b5060608301518482036060860152614118828261395b565b915050608083015161412d6080860182614171565b5060a083015161414060a0860182614171565b5060c083015161415360c0860182614171565b5060e083015161416660e0860182613a5b565b508091505092915050565b61417a81614a1d565b82525050565b61418981614a1d565b82525050565b600061419c828486613936565b91508190509392505050565b60006141b482846139cd565b915081905092915050565b60006020820190506141d460008301846137b2565b92915050565b60006060820190506141ef60008301866137b2565b6141fc60208301856137b2565b6142096040830184614180565b949350505050565b600060408201905061422660008301856137b2565b6142336020830184614180565b9392505050565b600060e08201905061424f600083018a6137b2565b61425c6020830189614180565b61426960408301886137b2565b818103606083015261427b8187613994565b905061428a6080830186614180565b61429760a0830185614180565b6142a460c0830184614180565b98975050505050505050565b600060208201905081810360008301526142ca81846137c1565b905092915050565b600060208201905081810360008301526142ec818461381f565b905092915050565b6000602082019050818103600083015261430e8184613894565b905092915050565b600060208201905061432b6000830184613909565b92915050565b60006040820190506143466000830185613909565b81810360208301526143588184613994565b90509392505050565b60006020820190506143766000830184613927565b92915050565b60006020820190506143916000830184613a6a565b92915050565b600060208201905081810360008301526143b081613a79565b9050919050565b600060208201905081810360008301526143d081613ab9565b9050919050565b600060208201905081810360008301526143f081613af9565b9050919050565b6000602082019050818103600083015261441081613b39565b9050919050565b6000602082019050818103600083015261443081613b79565b9050919050565b6000602082019050818103600083015261445081613bb9565b9050919050565b6000602082019050818103600083015261447081613bf9565b9050919050565b6000602082019050818103600083015261449081613c39565b9050919050565b600060208201905081810360008301526144b081613c79565b9050919050565b600060208201905081810360008301526144d081613cdf565b9050919050565b600060208201905081810360008301526144f081613d45565b9050919050565b6000602082019050818103600083015261451081613dab565b9050919050565b6000602082019050818103600083015261453081613e11565b9050919050565b6000602082019050818103600083015261455081613e51565b9050919050565b6000602082019050818103600083015261457081613e91565b9050919050565b6000602082019050818103600083015261459081613ed1565b9050919050565b600060208201905081810360008301526145b081613f11565b9050919050565b600060208201905081810360008301526145d081613f51565b9050919050565b600060208201905081810360008301526145f081613f91565b9050919050565b6000602082019050818103600083015261461081613fd1565b9050919050565b6000602082019050818103600083015261463181846140c1565b905092915050565b600060208201905061464e6000830184614180565b92915050565b60006060820190506146696000830186614180565b61467660208301856137b2565b6146836040830184614180565b949350505050565b60006040820190506146a06000830185614180565b6146ad6020830184614180565b9392505050565b60006080820190506146c96000830187614180565b6146d66020830186614180565b6146e36040830185613a4c565b6146f06060830184613909565b95945050505050565b6000808335600160200384360303811261471257600080fd5b80840192508235915067ffffffffffffffff82111561473057600080fd5b60208301925060018202360383131561474857600080fd5b509250929050565b6000604051905081810181811067ffffffffffffffff8211171561477757614776614ba7565b5b8060405250919050565b600067ffffffffffffffff82111561479c5761479b614ba7565b5b601f19601f8301169050602081019050919050565b6000819050602082019050919050565b6000819050602082019050919050565b6000819050602082019050919050565b60008190508160005260206000209050919050565b600081519050919050565b600081519050919050565b600081519050919050565b600081519050919050565b6000602082019050919050565b6000602082019050919050565b6000602082019050919050565b600082825260208201905092915050565b600082825260208201905092915050565b600082825260208201905092915050565b600082825260208201905092915050565b600082825260208201905092915050565b600081905092915050565b600082825260208201905092915050565b60006148c582614a1d565b91506148d083614a1d565b9250827fffffffffffffffffffffffffffffffffffffffffffffffffffffffffffffffff0382111561490557614904614b1a565b5b828201905092915050565b600061491b82614a1d565b915061492683614a1d565b9250817fffffffffffffffffffffffffffffffffffffffffffffffffffffffffffffffff048311821515161561495f5761495e614b1a565b5b828202905092915050565b600061497582614a1d565b915061498083614a1d565b92508282101561499357614992614b1a565b5b828203905092915050565b60006149a9826149fd565b9050919050565b60006149bb826149fd565b9050919050565b60008115159050919050565b6000819050919050565b60006149e38261499e565b9050919050565b60008190506149f882614be7565b919050565b600073ffffffffffffffffffffffffffffffffffffffff82169050919050565b6000819050919050565b6000614a3282614a39565b9050919050565b6000614a44826149fd565b9050919050565b6000614a56826149ea565b9050919050565b82818337600083830152505050565b60005b83811015614a8a578082015181840152602081019050614a6f565b83811115614a99576000848401525b50505050565b60006002820490506001821680614ab757607f821691505b60208210811415614acb57614aca614b78565b5b50919050565b6000614adc82614a1d565b91507fffffffffffffffffffffffffffffffffffffffffffffffffffffffffffffffff821415614b0f57614b0e614b1a565b5b600182019050919050565b7f4e487b7100000000000000000000000000000000000000000000000000000000600052601160045260246000fd5b7f4e487b7100000000000000000000000000000000000000000000000000000000600052602160045260246000fd5b7f4e487b7100000000000000000000000000000000000000000000000000000000600052602260045260246000fd5b7f4e487b7100000000000000000000000000000000000000000000000000000000600052604160045260246000fd5b6000601f19601f8301169050919050565b60068110614bf857614bf7614b49565b5b50565b614c048161499e565b8114614c0f57600080fd5b50565b614c1b816149b0565b8114614c2657600080fd5b50565b614c32816149c2565b8114614c3d57600080fd5b50565b614c49816149ce565b8114614c5457600080fd5b50565b614c60816149d8565b8114614c6b57600080fd5b50565b60068110614c7b57600080fd5b50565b614c8781614a1d565b8114614c9257600080fd5b5056fea2646970667358221220315facd79b5c3f343a2d23811a7efe903b0b029fb13491cd74f9c877455c757b64736f6c63430008000033",
  "immutableReferences": {
    "109": [
      {
        "length": 32,
        "start": 5624
      }
    ]
  },
  "source": "// SPDX-License-Identifier: MIT\r\npragma solidity ^0.8.0;\r\nimport '@rsksmart/erc677/contracts/IERC677.sol';\r\nimport '@rsksmart/erc677/contracts/IERC677TransferReceiver.sol';\r\nimport '@openzeppelin/contracts-upgradeable/proxy/utils/Initializable.sol';\r\nimport '@openzeppelin/contracts-upgradeable/security/ReentrancyGuardUpgradeable.sol';\r\n\r\ncontract OneShotSchedule is IERC677TransferReceiver, Initializable, ReentrancyGuardUpgradeable {\r\n  enum ExecutionState { Scheduled, ExecutionSuccessful, ExecutionFailed, Overdue, Refunded, Cancelled }\r\n  // State transitions for scheduled executions:\r\n  //   Scheduled -> Cancelled (requestor cancelled execution)\r\n  //   Scheduled -> ExecutionSuccessful (call was executed in the given time and did not fail)\r\n  //   Scheduled -> ExecutionFailed (call was executed in the given time but failed)\r\n  //   Scheduled -> Overdue (execution window has passed, expected earlier)\r\n  //   Overdue -> Refunded (refund for overdue execution paid)\r\n\r\n  struct Execution {\r\n    address requestor;\r\n    uint256 plan;\r\n    address to;\r\n    bytes data;\r\n    uint256 gas;\r\n    uint256 timestamp;\r\n    uint256 value;\r\n    ExecutionState state;\r\n  }\r\n\r\n  struct Plan {\r\n    uint256 pricePerExecution;\r\n    uint256 window;\r\n    IERC677 token;\r\n    bool active;\r\n  }\r\n\r\n  address public serviceProvider;\r\n  address public payee;\r\n\r\n  Plan[] public plans;\r\n\r\n  mapping(address => mapping(uint256 => uint256)) public remainingExecutions;\r\n  mapping(bytes32 => Execution) private executions;\r\n  mapping(address => bytes32[]) private executionsByRequestor; // redundant with executions\r\n\r\n  address private immutable self = address(this);\r\n\r\n  event PlanAdded(uint256 indexed index, uint256 price, address token, uint256 window);\r\n  event PlanRemoved(uint256 indexed index);\r\n\r\n  event ExecutionPurchased(address indexed requestor, uint256 plan, uint256 amount);\r\n  event ExecutionRequested(bytes32 indexed id, uint256 timestamp);\r\n  event Executed(bytes32 indexed id, bool success, bytes result);\r\n  event ExecutionCancelled(bytes32 indexed id);\r\n\r\n  modifier onlyProvider() {\r\n    require(address(msg.sender) == serviceProvider, 'Not authorized');\r\n    _;\r\n  }\r\n\r\n  function initialize(address serviceProvider_, address payee_) external initializer {\r\n    __ReentrancyGuard_init();\r\n    require(payee_ != address(0x0), 'Payee address cannot be 0x0');\r\n    require(serviceProvider_ != address(0x0), 'Service provider address cannot be 0x0');\r\n    serviceProvider = serviceProvider_;\r\n    payee = payee_;\r\n  }\r\n\r\n  ///////////\r\n  // ADMIN //\r\n  ///////////\r\n\r\n  function addPlan(\r\n    uint256 price,\r\n    uint256 window,\r\n    IERC677 token\r\n  ) external onlyProvider {\r\n    require(address(token) != address(0x0), 'Token address cannot be 0x0');\r\n    plans.push(Plan(price, window, token, true));\r\n    emit PlanAdded(plans.length - 1, price, address(token), window);\r\n  }\r\n\r\n  function removePlan(uint256 plan) external onlyProvider {\r\n    require(plans[plan].active, 'The plan is already inactive');\r\n    plans[plan].active = false;\r\n    emit PlanRemoved(plan);\r\n  }\r\n\r\n  function plansCount() external view returns (uint256) {\r\n    return plans.length;\r\n  }\r\n\r\n  function setPayee(address payee_) external onlyProvider {\r\n    require(payee_ != address(0x0), 'Payee address cannot be 0x0');\r\n    payee = payee_;\r\n  }\r\n\r\n  //////////////\r\n  // PURCHASE //\r\n  //////////////\r\n\r\n  function totalPrice(uint256 plan, uint256 quantity) private view returns (uint256) {\r\n    return quantity * plans[plan].pricePerExecution;\r\n  }\r\n\r\n  function doPurchase(\r\n    address requestor,\r\n    uint256 plan,\r\n    uint256 amount\r\n  ) private {\r\n    require(plans[plan].active, 'Inactive plan');\r\n    remainingExecutions[requestor][plan] += amount;\r\n    emit ExecutionPurchased(requestor, plan, amount);\r\n  }\r\n\r\n  // purcahse with ERC-20\r\n  function purchase(uint256 plan, uint256 quantity) external {\r\n    doPurchase(msg.sender, plan, quantity);\r\n\r\n    require(plans[plan].token.transferFrom(msg.sender, address(this), totalPrice(plan, quantity)), \"Payment did't pass\");\r\n  }\r\n\r\n  // purcahse with ERC-677\r\n  function tokenFallback(\r\n    address from,\r\n    uint256 amount,\r\n    bytes calldata data\r\n  ) external override returns (bool) {\r\n    (uint256 plan, uint256 quantity) = abi.decode(data, (uint256, uint256));\r\n\r\n    require(address(plans[plan].token) == address(msg.sender), 'Bad token');\r\n    require(amount == totalPrice(plan, quantity), \"Transferred amount doesn't match total purchase\");\r\n\r\n    doPurchase(from, plan, quantity);\r\n    return true;\r\n  }\r\n\r\n  ////////////////\r\n  // SCHEDULING //\r\n  ////////////////\r\n\r\n  // slither-disable-next-line timestamp\r\n  function getState(bytes32 id) public view returns (ExecutionState) {\r\n    Execution memory execution = executions[id];\r\n    if (execution.state == ExecutionState.Scheduled && ((execution.timestamp + plans[execution.plan].window) < block.timestamp)) {\r\n      return ExecutionState.Overdue;\r\n    } else {\r\n      return execution.state;\r\n    }\r\n  }\r\n\r\n  function hash(Execution memory execution) public pure returns (bytes32) {\r\n    return\r\n      keccak256(\r\n        abi.encode(execution.requestor, execution.plan, execution.to, execution.data, execution.gas, execution.timestamp, execution.value)\r\n      );\r\n  }\r\n\r\n  function _schedule(Execution memory execution) private returns (bytes32 id) {\r\n    require(msg.sender == execution.requestor, 'Not the requestor'); // just in case\r\n    require(remainingExecutions[msg.sender][execution.plan] > 0, 'No balance available');\r\n    // This is only to prevent errors, doesn't need to be exact\r\n    // timestamp manipulation should be considered in the window by the service provider\r\n    // slither-disable-next-line timestamp\r\n    require(block.timestamp <= execution.timestamp, 'Cannot schedule it in the past');\r\n    remainingExecutions[msg.sender][execution.plan] -= 1;\r\n    id = hash(execution);\r\n    executions[id] = execution;\r\n    executionsByRequestor[msg.sender].push(id);\r\n    emit ExecutionRequested(id, execution.timestamp);\r\n  }\r\n\r\n  function schedule(\r\n    uint256 plan,\r\n    address to,\r\n    bytes calldata data,\r\n    uint256 gas,\r\n    uint256 timestamp\r\n  ) external payable returns (bytes32 id) {\r\n    Execution memory execution = Execution(msg.sender, plan, to, data, gas, timestamp, msg.value, ExecutionState.Scheduled);\r\n    return (_schedule(execution));\r\n  }\r\n\r\n  function batchSchedule(bytes[] calldata data) external payable returns (bytes32[] memory ids) {\r\n    uint256 totalValue;\r\n    ids = new bytes32[](data.length);\r\n    for (uint256 i = 0; i < data.length; i++) {\r\n      (uint256 plan, address to, bytes memory txData, uint256 gas, uint256 timestamp, uint256 value) =\r\n        abi.decode(data[i], (uint256, address, bytes, uint256, uint256, uint256));\r\n      totalValue += value;\r\n      ids[i] = _schedule(Execution(msg.sender, plan, to, txData, gas, timestamp, value, ExecutionState.Scheduled));\r\n    }\r\n    require(totalValue == msg.value, \"Executions total value doesn't match\");\r\n  }\r\n\r\n  function getExecutionById(bytes32 id) public view returns (Execution memory execution) {\r\n    execution = executions[id];\r\n    execution.state = getState(id);\r\n  }\r\n\r\n  function executionsByRequestorCount(address requestor) external view returns (uint256) {\r\n    return executionsByRequestor[requestor].length;\r\n  }\r\n\r\n  function getExecutionsByRequestor(\r\n    address requestor,\r\n    uint256 fromIndex,\r\n    uint256 toIndex\r\n  ) external view returns (Execution[] memory executionList) {\r\n    require(executionsByRequestor[requestor].length >= toIndex && fromIndex < toIndex, 'Out of range');\r\n    executionList = new Execution[](toIndex - fromIndex);\r\n    for (uint256 i = fromIndex; i < toIndex; i++) {\r\n      executionList[i - fromIndex] = getExecutionById(executionsByRequestor[requestor][i]);\r\n    }\r\n  }\r\n\r\n  function cancelScheduling(bytes32 id) external {\r\n    Execution storage execution = executions[id];\r\n\r\n    require(getState(id) == ExecutionState.Scheduled, 'Transaction not scheduled');\r\n    require(msg.sender == execution.requestor, 'Not authorized');\r\n\r\n    execution.state = ExecutionState.Cancelled;\r\n    remainingExecutions[execution.requestor][execution.plan] += 1;\r\n    emit ExecutionCancelled(id);\r\n    payable(execution.requestor).transfer(execution.value);\r\n  }\r\n\r\n  ///////////////\r\n  // EXECUTION //\r\n  ///////////////\r\n  function refund(bytes32 id) private {\r\n    Execution storage execution = executions[id];\r\n    remainingExecutions[execution.requestor][execution.plan] += 1;\r\n    execution.state = ExecutionState.Refunded;\r\n    payable(execution.requestor).transfer(execution.value);\r\n  }\r\n\r\n  // The nonReentrant prevents this contract to be call again when the low level call is executed\r\n  // timestamp manipulation should be considered in the window by the service provider\r\n  // slither-disable-next-line timestamp\r\n  function execute(bytes32 id) external nonReentrant {\r\n    Execution storage execution = executions[id];\r\n\r\n    require(execution.state == ExecutionState.Scheduled, 'Already executed');\r\n    // timestamp manipulation should be considered in the window by the service provider\r\n    // slither-disable-next-line timestamp\r\n    require((execution.timestamp - plans[execution.plan].window) < block.timestamp, 'Too soon');\r\n\r\n    if (getState(id) == ExecutionState.Overdue) {\r\n      refund(id);\r\n      return;\r\n    }\r\n\r\n    // The contract makes an external call to execute the scheduled transaction on the specified contract.\r\n    // It needs to get the execution result before emitting the event and changing the matatransaction state.\r\n    // slither-disable-next-line low-level-calls\r\n    (bool success, bytes memory result) = payable(execution.to).call{ gas: execution.gas, value: execution.value }(execution.data);\r\n\r\n    // reentrancy prevented by nonReentrant modifier\r\n    // slither-disable-next-line reentrancy-events\r\n    emit Executed(id, success, result);\r\n\r\n    if (success) {\r\n      // reentrancy prevented by nonReentrant modifier\r\n      // slither-disable-next-line reentrancy-eth\r\n      execution.state = ExecutionState.ExecutionSuccessful;\r\n    } else {\r\n      // reentrancy prevented by nonReentrant modifier\r\n      // slither-disable-next-line reentrancy-eth\r\n      execution.state = ExecutionState.ExecutionFailed;\r\n    }\r\n\r\n    require(plans[execution.plan].token.transfer(payee, plans[execution.plan].pricePerExecution), \"Couldn't transfer to payee\");\r\n  }\r\n\r\n  function multicall(bytes[] calldata data) external returns (bytes[] memory results) {\r\n    require(address(this) != self); //This makes safe the use of delegatedcall, making it only viable on the proxy\r\n    results = new bytes[](data.length);\r\n    for (uint256 i = 0; i < data.length; i++) {\r\n      (bool success, bytes memory result) = address(this).delegatecall(data[i]);\r\n      require(success);\r\n      results[i] = result;\r\n    }\r\n    return results;\r\n  }\r\n}\r\n",
  "sourcePath": "D:/SourceCode/IOVLabs/rif-scheduler-contracts/contracts/OneShotSchedule.sol",
  "compiler": {
    "name": "solc",
    "version": "0.8.0+commit.c7dfd78e.Emscripten.clang"
  },
  "schemaVersion": "3.4.1",
  "updatedAt": "2021-06-03T15:12:27.081Z",
  "devdoc": {
    "kind": "dev",
    "methods": {},
    "version": 1
  },
  "userdoc": {
    "kind": "user",
    "methods": {},
    "version": 1
  }
}