{
  "contractName": "OneShotSchedule",
  "abi": [
    {
      "anonymous": false,
      "inputs": [
        {
          "indexed": true,
          "internalType": "bytes32",
          "name": "id",
          "type": "bytes32"
        },
        {
          "indexed": false,
          "internalType": "bool",
          "name": "success",
          "type": "bool"
        },
        {
          "indexed": false,
          "internalType": "bytes",
          "name": "result",
          "type": "bytes"
        }
      ],
      "name": "Executed",
      "type": "event"
    },
    {
      "anonymous": false,
      "inputs": [
        {
          "indexed": true,
          "internalType": "bytes32",
          "name": "id",
          "type": "bytes32"
        }
      ],
      "name": "ExecutionCancelled",
      "type": "event"
    },
    {
      "anonymous": false,
      "inputs": [
        {
          "indexed": true,
          "internalType": "address",
          "name": "requestor",
          "type": "address"
        },
        {
          "indexed": false,
          "internalType": "uint256",
          "name": "plan",
          "type": "uint256"
        },
        {
          "indexed": false,
          "internalType": "uint256",
          "name": "amount",
          "type": "uint256"
        }
      ],
      "name": "ExecutionPurchased",
      "type": "event"
    },
    {
      "anonymous": false,
      "inputs": [
        {
          "indexed": true,
          "internalType": "bytes32",
          "name": "id",
          "type": "bytes32"
        },
        {
          "indexed": false,
          "internalType": "uint256",
          "name": "timestamp",
          "type": "uint256"
        }
      ],
      "name": "ExecutionRequested",
      "type": "event"
    },
    {
      "anonymous": false,
      "inputs": [
        {
          "indexed": true,
          "internalType": "uint256",
          "name": "index",
          "type": "uint256"
        },
        {
          "indexed": false,
          "internalType": "uint256",
          "name": "price",
          "type": "uint256"
        },
        {
          "indexed": false,
          "internalType": "address",
          "name": "token",
          "type": "address"
        },
        {
          "indexed": false,
          "internalType": "uint256",
          "name": "window",
          "type": "uint256"
        }
      ],
      "name": "PlanAdded",
      "type": "event"
    },
    {
      "anonymous": false,
      "inputs": [
        {
          "indexed": true,
          "internalType": "uint256",
          "name": "index",
          "type": "uint256"
        }
      ],
      "name": "PlanRemoved",
      "type": "event"
    },
    {
      "inputs": [],
      "name": "payee",
      "outputs": [
        {
          "internalType": "address",
          "name": "",
          "type": "address"
        }
      ],
      "stateMutability": "view",
      "type": "function",
      "constant": true
    },
    {
      "inputs": [
        {
          "internalType": "uint256",
          "name": "",
          "type": "uint256"
        }
      ],
      "name": "plans",
      "outputs": [
        {
          "internalType": "uint256",
          "name": "pricePerExecution",
          "type": "uint256"
        },
        {
          "internalType": "uint256",
          "name": "window",
          "type": "uint256"
        },
        {
          "internalType": "contract IERC677",
          "name": "token",
          "type": "address"
        },
        {
          "internalType": "bool",
          "name": "active",
          "type": "bool"
        }
      ],
      "stateMutability": "view",
      "type": "function",
      "constant": true
    },
    {
      "inputs": [
        {
          "internalType": "address",
          "name": "",
          "type": "address"
        },
        {
          "internalType": "uint256",
          "name": "",
          "type": "uint256"
        }
      ],
      "name": "remainingExecutions",
      "outputs": [
        {
          "internalType": "uint256",
          "name": "",
          "type": "uint256"
        }
      ],
      "stateMutability": "view",
      "type": "function",
      "constant": true
    },
    {
      "inputs": [],
      "name": "serviceProvider",
      "outputs": [
        {
          "internalType": "address",
          "name": "",
          "type": "address"
        }
      ],
      "stateMutability": "view",
      "type": "function",
      "constant": true
    },
    {
      "inputs": [
        {
          "internalType": "address",
          "name": "serviceProvider_",
          "type": "address"
        },
        {
          "internalType": "address",
          "name": "payee_",
          "type": "address"
        }
      ],
      "name": "initialize",
      "outputs": [],
      "stateMutability": "nonpayable",
      "type": "function"
    },
    {
      "inputs": [
        {
          "internalType": "uint256",
          "name": "price",
          "type": "uint256"
        },
        {
          "internalType": "uint256",
          "name": "window",
          "type": "uint256"
        },
        {
          "internalType": "contract IERC677",
          "name": "token",
          "type": "address"
        }
      ],
      "name": "addPlan",
      "outputs": [],
      "stateMutability": "nonpayable",
      "type": "function"
    },
    {
      "inputs": [
        {
          "internalType": "uint256",
          "name": "plan",
          "type": "uint256"
        }
      ],
      "name": "removePlan",
      "outputs": [],
      "stateMutability": "nonpayable",
      "type": "function"
    },
    {
      "inputs": [],
      "name": "plansCount",
      "outputs": [
        {
          "internalType": "uint256",
          "name": "",
          "type": "uint256"
        }
      ],
      "stateMutability": "view",
      "type": "function",
      "constant": true
    },
    {
      "inputs": [
        {
          "internalType": "address",
          "name": "payee_",
          "type": "address"
        }
      ],
      "name": "setPayee",
      "outputs": [],
      "stateMutability": "nonpayable",
      "type": "function"
    },
    {
      "inputs": [
        {
          "internalType": "uint256",
          "name": "plan",
          "type": "uint256"
        },
        {
          "internalType": "uint256",
          "name": "quantity",
          "type": "uint256"
        }
      ],
      "name": "purchase",
      "outputs": [],
      "stateMutability": "payable",
      "type": "function",
      "payable": true
    },
    {
      "inputs": [
        {
          "internalType": "address",
          "name": "from",
          "type": "address"
        },
        {
          "internalType": "uint256",
          "name": "amount",
          "type": "uint256"
        },
        {
          "internalType": "bytes",
          "name": "data",
          "type": "bytes"
        }
      ],
      "name": "tokenFallback",
      "outputs": [
        {
          "internalType": "bool",
          "name": "",
          "type": "bool"
        }
      ],
      "stateMutability": "nonpayable",
      "type": "function"
    },
    {
      "inputs": [
        {
          "internalType": "bytes32",
          "name": "id",
          "type": "bytes32"
        }
      ],
      "name": "getState",
      "outputs": [
        {
          "internalType": "enum OneShotSchedule.ExecutionState",
          "name": "",
          "type": "uint8"
        }
      ],
      "stateMutability": "view",
      "type": "function",
      "constant": true
    },
    {
      "inputs": [
        {
          "components": [
            {
              "internalType": "address",
              "name": "requestor",
              "type": "address"
            },
            {
              "internalType": "uint256",
              "name": "plan",
              "type": "uint256"
            },
            {
              "internalType": "address",
              "name": "to",
              "type": "address"
            },
            {
              "internalType": "bytes",
              "name": "data",
              "type": "bytes"
            },
            {
              "internalType": "uint256",
              "name": "gas",
              "type": "uint256"
            },
            {
              "internalType": "uint256",
              "name": "timestamp",
              "type": "uint256"
            },
            {
              "internalType": "uint256",
              "name": "value",
              "type": "uint256"
            },
            {
              "internalType": "enum OneShotSchedule.ExecutionState",
              "name": "state",
              "type": "uint8"
            }
          ],
          "internalType": "struct OneShotSchedule.Execution",
          "name": "execution",
          "type": "tuple"
        }
      ],
      "name": "hash",
      "outputs": [
        {
          "internalType": "bytes32",
          "name": "",
          "type": "bytes32"
        }
      ],
      "stateMutability": "pure",
      "type": "function",
      "constant": true
    },
    {
      "inputs": [
        {
          "internalType": "uint256",
          "name": "plan",
          "type": "uint256"
        },
        {
          "internalType": "address",
          "name": "to",
          "type": "address"
        },
        {
          "internalType": "bytes",
          "name": "data",
          "type": "bytes"
        },
        {
          "internalType": "uint256",
          "name": "gas",
          "type": "uint256"
        },
        {
          "internalType": "uint256",
          "name": "timestamp",
          "type": "uint256"
        }
      ],
      "name": "schedule",
      "outputs": [
        {
          "internalType": "bytes32",
          "name": "id",
          "type": "bytes32"
        }
      ],
      "stateMutability": "payable",
      "type": "function",
      "payable": true
    },
    {
      "inputs": [
        {
          "internalType": "bytes[]",
          "name": "data",
          "type": "bytes[]"
        }
      ],
      "name": "batchSchedule",
      "outputs": [
        {
          "internalType": "bytes32[]",
          "name": "ids",
          "type": "bytes32[]"
        }
      ],
      "stateMutability": "payable",
      "type": "function",
      "payable": true
    },
    {
      "inputs": [
        {
          "internalType": "bytes32",
          "name": "id",
          "type": "bytes32"
        }
      ],
      "name": "getExecutionById",
      "outputs": [
        {
          "components": [
            {
              "internalType": "address",
              "name": "requestor",
              "type": "address"
            },
            {
              "internalType": "uint256",
              "name": "plan",
              "type": "uint256"
            },
            {
              "internalType": "address",
              "name": "to",
              "type": "address"
            },
            {
              "internalType": "bytes",
              "name": "data",
              "type": "bytes"
            },
            {
              "internalType": "uint256",
              "name": "gas",
              "type": "uint256"
            },
            {
              "internalType": "uint256",
              "name": "timestamp",
              "type": "uint256"
            },
            {
              "internalType": "uint256",
              "name": "value",
              "type": "uint256"
            },
            {
              "internalType": "enum OneShotSchedule.ExecutionState",
              "name": "state",
              "type": "uint8"
            }
          ],
          "internalType": "struct OneShotSchedule.Execution",
          "name": "execution",
          "type": "tuple"
        }
      ],
      "stateMutability": "view",
      "type": "function",
      "constant": true
    },
    {
      "inputs": [
        {
          "internalType": "address",
          "name": "requestor",
          "type": "address"
        }
      ],
      "name": "executionsByRequestorCount",
      "outputs": [
        {
          "internalType": "uint256",
          "name": "",
          "type": "uint256"
        }
      ],
      "stateMutability": "view",
      "type": "function",
      "constant": true
    },
    {
      "inputs": [
        {
          "internalType": "address",
          "name": "requestor",
          "type": "address"
        },
        {
          "internalType": "uint256",
          "name": "fromIndex",
          "type": "uint256"
        },
        {
          "internalType": "uint256",
          "name": "toIndex",
          "type": "uint256"
        }
      ],
      "name": "getExecutionsByRequestor",
      "outputs": [
        {
          "components": [
            {
              "internalType": "address",
              "name": "requestor",
              "type": "address"
            },
            {
              "internalType": "uint256",
              "name": "plan",
              "type": "uint256"
            },
            {
              "internalType": "address",
              "name": "to",
              "type": "address"
            },
            {
              "internalType": "bytes",
              "name": "data",
              "type": "bytes"
            },
            {
              "internalType": "uint256",
              "name": "gas",
              "type": "uint256"
            },
            {
              "internalType": "uint256",
              "name": "timestamp",
              "type": "uint256"
            },
            {
              "internalType": "uint256",
              "name": "value",
              "type": "uint256"
            },
            {
              "internalType": "enum OneShotSchedule.ExecutionState",
              "name": "state",
              "type": "uint8"
            }
          ],
          "internalType": "struct OneShotSchedule.Execution[]",
          "name": "executionList",
          "type": "tuple[]"
        }
      ],
      "stateMutability": "view",
      "type": "function",
      "constant": true
    },
    {
      "inputs": [
        {
          "internalType": "bytes32",
          "name": "id",
          "type": "bytes32"
        }
      ],
      "name": "cancelScheduling",
      "outputs": [],
      "stateMutability": "nonpayable",
      "type": "function"
    },
    {
      "inputs": [
        {
          "internalType": "bytes32",
          "name": "id",
          "type": "bytes32"
        }
      ],
      "name": "execute",
      "outputs": [],
      "stateMutability": "nonpayable",
      "type": "function"
    }
  ],
  "bytecode": "0x608060405234801561001057600080fd5b50614c37806100206000396000f3fe60806040526004361061013c576000357c01000000000000000000000000000000000000000000000000000000009004806393a1b8d9116100bd578063dcd90b8f11610081578063dcd90b8f14610416578063dd437ac214610453578063debd4c3d14610490578063e751f271146104b9578063eb6f263d146104e25761013c565b806393a1b8d914610301578063ae90b21314610331578063b16206161461035c578063b395bb4b1461039c578063c0ee0b8a146103d95761013c565b806358fa1d9d1161010457806358fa1d9d14610222578063591c613c1461025f57806370876c981461028a57806373eab687146102a65780638d69e95e146102d65761013c565b806309648a9d1461014157806328e550e61461017e578063410459ad146101a7578063485cc955146101d057806354ceba0a146101f9575b600080fd5b34801561014d57600080fd5b5061016860048036038101906101639190613540565b61051f565b6040516101759190614301565b60405180910390f35b34801561018a57600080fd5b506101a560048036038101906101a091906135aa565b61082e565b005b3480156101b357600080fd5b506101ce60048036038101906101c99190613376565b6109e9565b005b3480156101dc57600080fd5b506101f760048036038101906101f2919061339f565b610b2d565b005b34801561020557600080fd5b50610220600480360381019061021b9190613540565b610d72565b005b34801561022e57600080fd5b5061024960048036038101906102449190613569565b611059565b60405161025691906142e6565b60405180910390f35b34801561026b57600080fd5b506102746110b1565b60405161028191906145de565b60405180910390f35b6102a4600480360381019061029f9190613706565b6110be565b005b6102c060048036038101906102bb9190613674565b611369565b6040516102cd91906142e6565b60405180910390f35b3480156102e257600080fd5b506102eb611467565b6040516102f89190614166565b60405180910390f35b61031b600480360381019061031691906134d2565b61148d565b6040516103289190614257565b60405180910390f35b34801561033d57600080fd5b506103466116dd565b6040516103539190614166565b60405180910390f35b34801561036857600080fd5b50610383600480360381019061037e91906135aa565b611703565b6040516103939493929190614659565b60405180910390f35b3480156103a857600080fd5b506103c360048036038101906103be91906133db565b611770565b6040516103d091906145de565b60405180910390f35b3480156103e557600080fd5b5061040060048036038101906103fb9190613417565b611795565b60405161040d919061429b565b60405180910390f35b34801561042257600080fd5b5061043d60048036038101906104389190613483565b6118ea565b60405161044a9190614279565b60405180910390f35b34801561045f57600080fd5b5061047a60048036038101906104759190613540565b611b05565b60405161048791906145bc565b60405180910390f35b34801561049c57600080fd5b506104b760048036038101906104b29190613742565b611da4565b005b3480156104c557600080fd5b506104e060048036038101906104db9190613540565b611f68565b005b3480156104ee57600080fd5b5061050960048036038101906105049190613376565b612685565b60405161051691906145de565b60405180910390f35b60008060376000848152602001908152602001600020604051806101000160405290816000820160009054906101000a900473ffffffffffffffffffffffffffffffffffffffff1673ffffffffffffffffffffffffffffffffffffffff1673ffffffffffffffffffffffffffffffffffffffff168152602001600182015481526020016002820160009054906101000a900473ffffffffffffffffffffffffffffffffffffffff1673ffffffffffffffffffffffffffffffffffffffff1673ffffffffffffffffffffffffffffffffffffffff16815260200160038201805461060790614a0b565b80601f016020809104026020016040519081016040528092919081815260200182805461063390614a0b565b80156106805780601f1061065557610100808354040283529160200191610680565b820191906000526020600020905b81548152906001019060200180831161066357829003601f168201915b505050505081526020016004820154815260200160058201548152602001600682015481526020016007820160009054906101000a900460ff1660058111156106f2577f4e487b7100000000000000000000000000000000000000000000000000000000600052602160045260246000fd5b600581111561072a577f4e487b7100000000000000000000000000000000000000000000000000000000600052602160045260246000fd5b8152505090506000600581111561076a577f4e487b7100000000000000000000000000000000000000000000000000000000600052602160045260246000fd5b8160e0015160058111156107a7577f4e487b7100000000000000000000000000000000000000000000000000000000600052602160045260246000fd5b14801561081157504260358260200151815481106107ee577f4e487b7100000000000000000000000000000000000000000000000000000000600052603260045260246000fd5b9060005260206000209060030201600101548260a0015161080f9190614826565b105b15610820576003915050610829565b8060e001519150505b919050565b603360009054906101000a900473ffffffffffffffffffffffffffffffffffffffff1673ffffffffffffffffffffffffffffffffffffffff163373ffffffffffffffffffffffffffffffffffffffff16146108be576040517f08c379a00000000000000000000000000000000000000000000000000000000081526004016108b59061459c565b60405180910390fd5b603581815481106108f8577f4e487b7100000000000000000000000000000000000000000000000000000000600052603260045260246000fd5b906000526020600020906003020160020160149054906101000a900460ff16610956576040517f08c379a000000000000000000000000000000000000000000000000000000000815260040161094d9061431c565b60405180910390fd5b600060358281548110610992577f4e487b7100000000000000000000000000000000000000000000000000000000600052603260045260246000fd5b906000526020600020906003020160020160146101000a81548160ff021916908315150217905550807e4c797e6739331fc6d5c1ebdf112d63e6a68297fdfd28f35f54561e28fd868d60405160405180910390a250565b603360009054906101000a900473ffffffffffffffffffffffffffffffffffffffff1673ffffffffffffffffffffffffffffffffffffffff163373ffffffffffffffffffffffffffffffffffffffff1614610a79576040517f08c379a0000000000000000000000000000000000000000000000000000000008152600401610a709061459c565b60405180910390fd5b600073ffffffffffffffffffffffffffffffffffffffff168173ffffffffffffffffffffffffffffffffffffffff161415610ae9576040517f08c379a0000000000000000000000000000000000000000000000000000000008152600401610ae09061451c565b60405180910390fd5b80603460006101000a81548173ffffffffffffffffffffffffffffffffffffffff021916908373ffffffffffffffffffffffffffffffffffffffff16021790555050565b600060019054906101000a900460ff1680610b53575060008054906101000a900460ff16155b610b92576040517f08c379a0000000000000000000000000000000000000000000000000000000008152600401610b899061445c565b60405180910390fd5b60008060019054906101000a900460ff161590508015610be2576001600060016101000a81548160ff02191690831515021790555060016000806101000a81548160ff0219169083151502179055505b610bea6126d1565b600073ffffffffffffffffffffffffffffffffffffffff168273ffffffffffffffffffffffffffffffffffffffff161415610c5a576040517f08c379a0000000000000000000000000000000000000000000000000000000008152600401610c519061451c565b60405180910390fd5b600073ffffffffffffffffffffffffffffffffffffffff168373ffffffffffffffffffffffffffffffffffffffff161415610cca576040517f08c379a0000000000000000000000000000000000000000000000000000000008152600401610cc1906144bc565b60405180910390fd5b82603360006101000a81548173ffffffffffffffffffffffffffffffffffffffff021916908373ffffffffffffffffffffffffffffffffffffffff16021790555081603460006101000a81548173ffffffffffffffffffffffffffffffffffffffff021916908373ffffffffffffffffffffffffffffffffffffffff1602179055508015610d6d5760008060016101000a81548160ff0219169083151502179055505b505050565b600060376000838152602001908152602001600020905060006005811115610dc3577f4e487b7100000000000000000000000000000000000000000000000000000000600052602160045260246000fd5b610dcc8361051f565b6005811115610e04577f4e487b7100000000000000000000000000000000000000000000000000000000600052602160045260246000fd5b14610e44576040517f08c379a0000000000000000000000000000000000000000000000000000000008152600401610e3b9061437c565b60405180910390fd5b8060000160009054906101000a900473ffffffffffffffffffffffffffffffffffffffff1673ffffffffffffffffffffffffffffffffffffffff163373ffffffffffffffffffffffffffffffffffffffff1614610ed6576040517f08c379a0000000000000000000000000000000000000000000000000000000008152600401610ecd9061459c565b60405180910390fd5b60058160070160006101000a81548160ff02191690836005811115610f24577f4e487b7100000000000000000000000000000000000000000000000000000000600052602160045260246000fd5b02179055506001603660008360000160009054906101000a900473ffffffffffffffffffffffffffffffffffffffff1673ffffffffffffffffffffffffffffffffffffffff1673ffffffffffffffffffffffffffffffffffffffff1681526020019081526020016000206000836001015481526020019081526020016000206000828254610fb29190614826565b92505081905550817fa9492956e3406e5fabb393f5ac68540da3bb42721d741519c0eadd27a15d83c060405160405180910390a28060000160009054906101000a900473ffffffffffffffffffffffffffffffffffffffff1673ffffffffffffffffffffffffffffffffffffffff166108fc82600601549081150290604051600060405180830381858888f19350505050158015611054573d6000803e3d6000fd5b505050565b6000816000015182602001518360400151846060015185608001518660a001518760c0015160405160200161109497969594939291906141e1565b604051602081830303815290604052805190602001209050919050565b6000603580549050905090565b600073ffffffffffffffffffffffffffffffffffffffff1660358381548110611110577f4e487b7100000000000000000000000000000000000000000000000000000000600052603260045260246000fd5b906000526020600020906003020160020160009054906101000a900473ffffffffffffffffffffffffffffffffffffffff1673ffffffffffffffffffffffffffffffffffffffff161461130e57600034146111a0576040517f08c379a00000000000000000000000000000000000000000000000000000000081526004016111979061449c565b60405180910390fd5b6111ab3383836127b2565b603582815481106111e5577f4e487b7100000000000000000000000000000000000000000000000000000000600052603260045260246000fd5b906000526020600020906003020160020160009054906101000a900473ffffffffffffffffffffffffffffffffffffffff1673ffffffffffffffffffffffffffffffffffffffff166323b872dd333061123e8686612906565b6040518463ffffffff167c010000000000000000000000000000000000000000000000000000000002815260040161127893929190614181565b602060405180830381600087803b15801561129257600080fd5b505af11580156112a6573d6000803e3d6000fd5b505050506040513d601f19601f820116820180604052508101906112ca9190613517565b611309576040517f08c379a00000000000000000000000000000000000000000000000000000000081526004016113009061441c565b60405180910390fd5b611365565b6113188282612906565b3414611359576040517f08c379a00000000000000000000000000000000000000000000000000000000081526004016113509061443c565b60405180910390fd5b6113643383836127b2565b5b5050565b6000806040518061010001604052803373ffffffffffffffffffffffffffffffffffffffff1681526020018981526020018873ffffffffffffffffffffffffffffffffffffffff16815260200187878080601f016020809104026020016040519081016040528093929190818152602001838380828437600081840152601f19601f8201169050808301925050505050505081526020018581526020018481526020013481526020016000600581111561144c577f4e487b7100000000000000000000000000000000000000000000000000000000600052602160045260246000fd5b815250905061145a81612967565b9150509695505050505050565b603360009054906101000a900473ffffffffffffffffffffffffffffffffffffffff1681565b606060008383905067ffffffffffffffff8111156114d4577f4e487b7100000000000000000000000000000000000000000000000000000000600052604160045260246000fd5b6040519080825280602002602001820160405280156115025781602001602082028036833780820191505090505b50915060005b84849050811015611693576000806000806000808a8a88818110611555577f4e487b7100000000000000000000000000000000000000000000000000000000600052603260045260246000fd5b9050602002810190611567919061469e565b81019061157491906135d3565b955095509550955095509550808861158c9190614826565b97506116356040518061010001604052803373ffffffffffffffffffffffffffffffffffffffff1681526020018881526020018773ffffffffffffffffffffffffffffffffffffffff1681526020018681526020018581526020018481526020018381526020016000600581111561162d577f4e487b7100000000000000000000000000000000000000000000000000000000600052602160045260246000fd5b815250612967565b89888151811061166e577f4e487b7100000000000000000000000000000000000000000000000000000000600052603260045260246000fd5b602002602001018181525050505050505050808061168b90614a3d565b915050611508565b503481146116d6576040517f08c379a00000000000000000000000000000000000000000000000000000000081526004016116cd9061447c565b60405180910390fd5b5092915050565b603460009054906101000a900473ffffffffffffffffffffffffffffffffffffffff1681565b6035818154811061171357600080fd5b90600052602060002090600302016000915090508060000154908060010154908060020160009054906101000a900473ffffffffffffffffffffffffffffffffffffffff16908060020160149054906101000a900460ff16905084565b6036602052816000526040600020602052806000526040600020600091509150505481565b600080600084848101906117a99190613706565b915091503373ffffffffffffffffffffffffffffffffffffffff16603583815481106117fe577f4e487b7100000000000000000000000000000000000000000000000000000000600052603260045260246000fd5b906000526020600020906003020160020160009054906101000a900473ffffffffffffffffffffffffffffffffffffffff1673ffffffffffffffffffffffffffffffffffffffff1614611886576040517f08c379a000000000000000000000000000000000000000000000000000000000815260040161187d906143dc565b60405180910390fd5b6118908282612906565b86146118d1576040517f08c379a00000000000000000000000000000000000000000000000000000000081526004016118c89061443c565b60405180910390fd5b6118dc8783836127b2565b600192505050949350505050565b606081603860008673ffffffffffffffffffffffffffffffffffffffff1673ffffffffffffffffffffffffffffffffffffffff168152602001908152602001600020805490501015801561193d57508183105b61197c576040517f08c379a00000000000000000000000000000000000000000000000000000000081526004016119739061453c565b60405180910390fd5b828261198891906148d6565b67ffffffffffffffff8111156119c7577f4e487b7100000000000000000000000000000000000000000000000000000000600052604160045260246000fd5b604051908082528060200260200182016040528015611a0057816020015b6119ed612fbd565b8152602001906001900390816119e55790505b50905060008390505b82811015611afd57611a9b603860008773ffffffffffffffffffffffffffffffffffffffff1673ffffffffffffffffffffffffffffffffffffffff1681526020019081526020016000208281548110611a8b577f4e487b7100000000000000000000000000000000000000000000000000000000600052603260045260246000fd5b9060005260206000200154611b05565b828583611aa891906148d6565b81518110611adf577f4e487b7100000000000000000000000000000000000000000000000000000000600052603260045260246000fd5b60200260200101819052508080611af590614a3d565b915050611a09565b509392505050565b611b0d612fbd565b60376000838152602001908152602001600020604051806101000160405290816000820160009054906101000a900473ffffffffffffffffffffffffffffffffffffffff1673ffffffffffffffffffffffffffffffffffffffff1673ffffffffffffffffffffffffffffffffffffffff168152602001600182015481526020016002820160009054906101000a900473ffffffffffffffffffffffffffffffffffffffff1673ffffffffffffffffffffffffffffffffffffffff1673ffffffffffffffffffffffffffffffffffffffff168152602001600382018054611bf290614a0b565b80601f0160208091040260200160405190810160405280929190818152602001828054611c1e90614a0b565b8015611c6b5780601f10611c4057610100808354040283529160200191611c6b565b820191906000526020600020905b815481529060010190602001808311611c4e57829003601f168201915b505050505081526020016004820154815260200160058201548152602001600682015481526020016007820160009054906101000a900460ff166005811115611cdd577f4e487b7100000000000000000000000000000000000000000000000000000000600052602160045260246000fd5b6005811115611d15577f4e487b7100000000000000000000000000000000000000000000000000000000600052602160045260246000fd5b815250509050611d248261051f565b8160e001906005811115611d61577f4e487b7100000000000000000000000000000000000000000000000000000000600052602160045260246000fd5b90816005811115611d9b577f4e487b7100000000000000000000000000000000000000000000000000000000600052602160045260246000fd5b81525050919050565b603360009054906101000a900473ffffffffffffffffffffffffffffffffffffffff1673ffffffffffffffffffffffffffffffffffffffff163373ffffffffffffffffffffffffffffffffffffffff1614611e34576040517f08c379a0000000000000000000000000000000000000000000000000000000008152600401611e2b9061459c565b60405180910390fd5b603560405180608001604052808581526020018481526020018373ffffffffffffffffffffffffffffffffffffffff168152602001600115158152509080600181540180825580915050600190039060005260206000209060030201600090919091909150600082015181600001556020820151816001015560408201518160020160006101000a81548173ffffffffffffffffffffffffffffffffffffffff021916908373ffffffffffffffffffffffffffffffffffffffff16021790555060608201518160020160146101000a81548160ff02191690831515021790555050506001603580549050611f2891906148d6565b7f398c82e2ccf5aaee72a60b95d6543133e8fc843e113441e9a2d767274c8d8eef848385604051611f5b939291906145f9565b60405180910390a2505050565b60026001541415611fae576040517f08c379a0000000000000000000000000000000000000000000000000000000008152600401611fa59061457c565b60405180910390fd5b6002600181905550600060376000838152602001908152602001600020905060006005811115612007577f4e487b7100000000000000000000000000000000000000000000000000000000600052602160045260246000fd5b8160070160009054906101000a900460ff166005811115612051577f4e487b7100000000000000000000000000000000000000000000000000000000600052602160045260246000fd5b14612091576040517f08c379a0000000000000000000000000000000000000000000000000000000008152600401612088906143fc565b60405180910390fd5b4260358260010154815481106120d0577f4e487b7100000000000000000000000000000000000000000000000000000000600052603260045260246000fd5b90600052602060002090600302016001015482600501546120f191906148d6565b10612131576040517f08c379a0000000000000000000000000000000000000000000000000000000008152600401612128906144fc565b60405180910390fd5b6003600581111561216b577f4e487b7100000000000000000000000000000000000000000000000000000000600052602160045260246000fd5b6121748361051f565b60058111156121ac577f4e487b7100000000000000000000000000000000000000000000000000000000600052602160045260246000fd5b14156121c1576121bb82612d70565b5061267b565b6000808260020160009054906101000a900473ffffffffffffffffffffffffffffffffffffffff1673ffffffffffffffffffffffffffffffffffffffff16836004015484600601548560030160405161221a919061414f565b600060405180830381858888f193505050503d8060008114612258576040519150601f19603f3d011682016040523d82523d6000602084013e61225d565b606091505b5091509150837fbbb9534b79cda5e36feb34cc697d5e728db1a530363e152c539fb70b3f75f7ac83836040516122949291906142b6565b60405180910390a281156122fa5760018360070160006101000a81548160ff021916908360058111156122f0577f4e487b7100000000000000000000000000000000000000000000000000000000600052602160045260246000fd5b021790555061234e565b60028360070160006101000a81548160ff02191690836005811115612348577f4e487b7100000000000000000000000000000000000000000000000000000000600052602160045260246000fd5b02179055505b600073ffffffffffffffffffffffffffffffffffffffff1660358460010154815481106123a4577f4e487b7100000000000000000000000000000000000000000000000000000000600052603260045260246000fd5b906000526020600020906003020160020160009054906101000a900473ffffffffffffffffffffffffffffffffffffffff1673ffffffffffffffffffffffffffffffffffffffff16146125be57603583600101548154811061242f577f4e487b7100000000000000000000000000000000000000000000000000000000600052603260045260246000fd5b906000526020600020906003020160020160009054906101000a900473ffffffffffffffffffffffffffffffffffffffff1673ffffffffffffffffffffffffffffffffffffffff1663a9059cbb603460009054906101000a900473ffffffffffffffffffffffffffffffffffffffff1660358660010154815481106124dd577f4e487b7100000000000000000000000000000000000000000000000000000000600052603260045260246000fd5b9060005260206000209060030201600001546040518363ffffffff167c01000000000000000000000000000000000000000000000000000000000281526004016125289291906141b8565b602060405180830381600087803b15801561254257600080fd5b505af1158015612556573d6000803e3d6000fd5b505050506040513d601f19601f8201168201806040525081019061257a9190613517565b6125b9576040517f08c379a00000000000000000000000000000000000000000000000000000000081526004016125b09061435c565b60405180910390fd5b612677565b603460009054906101000a900473ffffffffffffffffffffffffffffffffffffffff1673ffffffffffffffffffffffffffffffffffffffff166108fc6035856001015481548110612638577f4e487b7100000000000000000000000000000000000000000000000000000000600052603260045260246000fd5b9060005260206000209060030201600001549081150290604051600060405180830381858888f19350505050158015612675573d6000803e3d6000fd5b505b5050505b6001808190555050565b6000603860008373ffffffffffffffffffffffffffffffffffffffff1673ffffffffffffffffffffffffffffffffffffffff168152602001908152602001600020805490509050919050565b600060019054906101000a900460ff16806126f7575060008054906101000a900460ff16155b612736576040517f08c379a000000000000000000000000000000000000000000000000000000000815260040161272d9061445c565b60405180910390fd5b60008060019054906101000a900460ff161590508015612786576001600060016101000a81548160ff02191690831515021790555060016000806101000a81548160ff0219169083151502179055505b61278e612edd565b80156127af5760008060016101000a81548160ff0219169083151502179055505b50565b603582815481106127ec577f4e487b7100000000000000000000000000000000000000000000000000000000600052603260045260246000fd5b906000526020600020906003020160020160149054906101000a900460ff1661284a576040517f08c379a00000000000000000000000000000000000000000000000000000000081526004016128419061455c565b60405180910390fd5b80603660008573ffffffffffffffffffffffffffffffffffffffff1673ffffffffffffffffffffffffffffffffffffffff168152602001908152602001600020600084815260200190815260200160002060008282546128aa9190614826565b925050819055508273ffffffffffffffffffffffffffffffffffffffff167f1d00f3ff8ba6a0ac98e7c747985ac34f1f706f5d0fa06abaa4c090a60598a65d83836040516128f9929190614630565b60405180910390a2505050565b600060358381548110612942577f4e487b7100000000000000000000000000000000000000000000000000000000600052603260045260246000fd5b9060005260206000209060030201600001548261295f919061487c565b905092915050565b6000816000015173ffffffffffffffffffffffffffffffffffffffff163373ffffffffffffffffffffffffffffffffffffffff16146129db576040517f08c379a00000000000000000000000000000000000000000000000000000000081526004016129d29061433c565b60405180910390fd5b6000603660003373ffffffffffffffffffffffffffffffffffffffff1673ffffffffffffffffffffffffffffffffffffffff1681526020019081526020016000206000846020015181526020019081526020016000205411612a72576040517f08c379a0000000000000000000000000000000000000000000000000000000008152600401612a699061439c565b60405180910390fd5b8160a00151421115612ab9576040517f08c379a0000000000000000000000000000000000000000000000000000000008152600401612ab0906144dc565b60405180910390fd5b612ac282611059565b90506000603760008381526020019081526020016000206005015414612b1d576040517f08c379a0000000000000000000000000000000000000000000000000000000008152600401612b14906143bc565b60405180910390fd5b6001603660003373ffffffffffffffffffffffffffffffffffffffff1673ffffffffffffffffffffffffffffffffffffffff1681526020019081526020016000206000846020015181526020019081526020016000206000828254612b8291906148d6565b92505081905550816037600083815260200190815260200160002060008201518160000160006101000a81548173ffffffffffffffffffffffffffffffffffffffff021916908373ffffffffffffffffffffffffffffffffffffffff1602179055506020820151816001015560408201518160020160006101000a81548173ffffffffffffffffffffffffffffffffffffffff021916908373ffffffffffffffffffffffffffffffffffffffff1602179055506060820151816003019080519060200190612c51929190613066565b506080820151816004015560a0820151816005015560c0820151816006015560e08201518160070160006101000a81548160ff02191690836005811115612cc1577f4e487b7100000000000000000000000000000000000000000000000000000000600052602160045260246000fd5b0217905550905050603860003373ffffffffffffffffffffffffffffffffffffffff1673ffffffffffffffffffffffffffffffffffffffff168152602001908152602001600020819080600181540180825580915050600190039060005260206000200160009091909190915055807fb19e7bab761c1d438a654faa449e3736081f6c0e0a0786ddd4d31853845283208360a00151604051612d6391906145de565b60405180910390a2919050565b60006037600083815260200190815260200160002090506001603660008360000160009054906101000a900473ffffffffffffffffffffffffffffffffffffffff1673ffffffffffffffffffffffffffffffffffffffff1673ffffffffffffffffffffffffffffffffffffffff1681526020019081526020016000206000836001015481526020019081526020016000206000828254612e109190614826565b9250508190555060048160070160006101000a81548160ff02191690836005811115612e65577f4e487b7100000000000000000000000000000000000000000000000000000000600052602160045260246000fd5b02179055508060000160009054906101000a900473ffffffffffffffffffffffffffffffffffffffff1673ffffffffffffffffffffffffffffffffffffffff166108fc82600601549081150290604051600060405180830381858888f19350505050158015612ed8573d6000803e3d6000fd5b505050565b600060019054906101000a900460ff1680612f03575060008054906101000a900460ff16155b612f42576040517f08c379a0000000000000000000000000000000000000000000000000000000008152600401612f399061445c565b60405180910390fd5b60008060019054906101000a900460ff161590508015612f92576001600060016101000a81548160ff02191690831515021790555060016000806101000a81548160ff0219169083151502179055505b600180819055508015612fba5760008060016101000a81548160ff0219169083151502179055505b50565b604051806101000160405280600073ffffffffffffffffffffffffffffffffffffffff16815260200160008152602001600073ffffffffffffffffffffffffffffffffffffffff1681526020016060815260200160008152602001600081526020016000815260200160006005811115613060577f4e487b7100000000000000000000000000000000000000000000000000000000600052602160045260246000fd5b81525090565b82805461307290614a0b565b90600052602060002090601f01602090048101928261309457600085556130db565b82601f106130ad57805160ff19168380011785556130db565b828001600101855582156130db579182015b828111156130da5782518255916020019190600101906130bf565b5b5090506130e891906130ec565b5090565b5b808211156131055760008160009055506001016130ed565b5090565b600061311c61311784614726565b6146f5565b90508281526020810184848401111561313457600080fd5b61313f8482856149c9565b509392505050565b60008135905061315681614b67565b92915050565b60008135905061316b81614b7e565b92915050565b60008083601f84011261318357600080fd5b8235905067ffffffffffffffff81111561319c57600080fd5b6020830191508360208202830111156131b457600080fd5b9250929050565b6000815190506131ca81614b95565b92915050565b6000813590506131df81614bac565b92915050565b60008083601f8401126131f757600080fd5b8235905067ffffffffffffffff81111561321057600080fd5b60208301915083600182028301111561322857600080fd5b9250929050565b600082601f83011261324057600080fd5b8135613250848260208601613109565b91505092915050565b60008135905061326881614bc3565b92915050565b60008135905061327d81614bda565b92915050565b6000610100828403121561329657600080fd5b6132a16101006146f5565b905060006132b184828501613147565b60008301525060206132c584828501613361565b60208301525060406132d984828501613147565b604083015250606082013567ffffffffffffffff8111156132f957600080fd5b6133058482850161322f565b606083015250608061331984828501613361565b60808301525060a061332d84828501613361565b60a08301525060c061334184828501613361565b60c08301525060e06133558482850161326e565b60e08301525092915050565b60008135905061337081614bea565b92915050565b60006020828403121561338857600080fd5b600061339684828501613147565b91505092915050565b600080604083850312156133b257600080fd5b60006133c085828601613147565b92505060206133d185828601613147565b9150509250929050565b600080604083850312156133ee57600080fd5b60006133fc85828601613147565b925050602061340d85828601613361565b9150509250929050565b6000806000806060858703121561342d57600080fd5b600061343b87828801613147565b945050602061344c87828801613361565b935050604085013567ffffffffffffffff81111561346957600080fd5b613475878288016131e5565b925092505092959194509250565b60008060006060848603121561349857600080fd5b60006134a686828701613147565b93505060206134b786828701613361565b92505060406134c886828701613361565b9150509250925092565b600080602083850312156134e557600080fd5b600083013567ffffffffffffffff8111156134ff57600080fd5b61350b85828601613171565b92509250509250929050565b60006020828403121561352957600080fd5b6000613537848285016131bb565b91505092915050565b60006020828403121561355257600080fd5b6000613560848285016131d0565b91505092915050565b60006020828403121561357b57600080fd5b600082013567ffffffffffffffff81111561359557600080fd5b6135a184828501613283565b91505092915050565b6000602082840312156135bc57600080fd5b60006135ca84828501613361565b91505092915050565b60008060008060008060c087890312156135ec57600080fd5b60006135fa89828a01613361565b965050602061360b89828a0161315c565b955050604087013567ffffffffffffffff81111561362857600080fd5b61363489828a0161322f565b945050606061364589828a01613361565b935050608061365689828a01613361565b92505060a061366789828a01613361565b9150509295509295509295565b60008060008060008060a0878903121561368d57600080fd5b600061369b89828a01613361565b96505060206136ac89828a01613147565b955050604087013567ffffffffffffffff8111156136c957600080fd5b6136d589828a016131e5565b945094505060606136e889828a01613361565b92505060806136f989828a01613361565b9150509295509295509295565b6000806040838503121561371957600080fd5b600061372785828601613361565b925050602061373885828601613361565b9150509250929050565b60008060006060848603121561375757600080fd5b600061376586828701613361565b935050602061377686828701613361565b925050604061378786828701613259565b9150509250925092565b600061379d83836138bd565b60208301905092915050565b60006137b58383613fd1565b905092915050565b6137c68161490a565b82525050565b6137d58161490a565b82525050565b60006137e68261478b565b6137f081856147c6565b93506137fb83614756565b8060005b8381101561382c5781516138138882613791565b975061381e836147ac565b9250506001810190506137ff565b5085935050505092915050565b600061384482614796565b61384e81856147d7565b93508360208202850161386085614766565b8060005b8581101561389c578484038952815161387d85826137a9565b9450613888836147b9565b925060208a01995050600181019050613864565b50829750879550505050505092915050565b6138b78161492e565b82525050565b6138c68161493a565b82525050565b6138d58161493a565b82525050565b60006138e6826147a1565b6138f081856147e8565b93506139008185602086016149d8565b61390981614b42565b840191505092915050565b600061391f826147a1565b61392981856147f9565b93506139398185602086016149d8565b61394281614b42565b840191505092915050565b6000815461395a81614a0b565b613964818661480a565b9450600182166000811461397f5760018114613990576139c3565b60ff198316865281860193506139c3565b61399985614776565b60005b838110156139bb5781548189015260018201915060208101905061399c565b838801955050505b50505092915050565b6139d581614993565b82525050565b6139e4816149b7565b82525050565b6139f3816149b7565b82525050565b6000613a06601c83614815565b91507f54686520706c616e20697320616c726561647920696e616374697665000000006000830152602082019050919050565b6000613a46601183614815565b91507f4e6f742074686520726571756573746f720000000000000000000000000000006000830152602082019050919050565b6000613a86601a83614815565b91507f436f756c646e2774207472616e7366657220746f2070617965650000000000006000830152602082019050919050565b6000613ac6601983614815565b91507f5472616e73616374696f6e206e6f74207363686564756c6564000000000000006000830152602082019050919050565b6000613b06601483614815565b91507f4e6f2062616c616e636520617661696c61626c650000000000000000000000006000830152602082019050919050565b6000613b46601183614815565b91507f416c7265616479207363686564756c65640000000000000000000000000000006000830152602082019050919050565b6000613b86600983614815565b91507f42616420746f6b656e00000000000000000000000000000000000000000000006000830152602082019050919050565b6000613bc6601083614815565b91507f416c7265616479206578656375746564000000000000000000000000000000006000830152602082019050919050565b6000613c06601283614815565b91507f5061796d656e74206469642774207061737300000000000000000000000000006000830152602082019050919050565b6000613c46602f83614815565b91507f5472616e7366657272656420616d6f756e7420646f65736e2774206d6174636860008301527f20746f74616c20707572636861736500000000000000000000000000000000006020830152604082019050919050565b6000613cac602e83614815565b91507f496e697469616c697a61626c653a20636f6e747261637420697320616c72656160008301527f647920696e697469616c697a65640000000000000000000000000000000000006020830152604082019050919050565b6000613d12602483614815565b91507f457865637574696f6e7320746f74616c2076616c756520646f65736e2774206d60008301527f61746368000000000000000000000000000000000000000000000000000000006020830152604082019050919050565b6000613d78601f83614815565b91507f72425443206e6f7420616363657074656420666f72207468697320706c616e006000830152602082019050919050565b6000613db8602683614815565b91507f536572766963652070726f766964657220616464726573732063616e6e6f742060008301527f62652030783000000000000000000000000000000000000000000000000000006020830152604082019050919050565b6000613e1e601e83614815565b91507f43616e6e6f74207363686564756c6520697420696e20746865207061737400006000830152602082019050919050565b6000613e5e600883614815565b91507f546f6f20736f6f6e0000000000000000000000000000000000000000000000006000830152602082019050919050565b6000613e9e601b83614815565b91507f506179656520616464726573732063616e6e6f742062652030783000000000006000830152602082019050919050565b6000613ede600c83614815565b91507f4f7574206f662072616e676500000000000000000000000000000000000000006000830152602082019050919050565b6000613f1e600d83614815565b91507f496e61637469766520706c616e000000000000000000000000000000000000006000830152602082019050919050565b6000613f5e601f83614815565b91507f5265656e7472616e637947756172643a207265656e7472616e742063616c6c006000830152602082019050919050565b6000613f9e600e83614815565b91507f4e6f7420617574686f72697a65640000000000000000000000000000000000006000830152602082019050919050565b600061010083016000830151613fea60008601826137bd565b506020830151613ffd6020860182614131565b50604083015161401060408601826137bd565b506060830151848203606086015261402882826138db565b915050608083015161403d6080860182614131565b5060a083015161405060a0860182614131565b5060c083015161406360c0860182614131565b5060e083015161407660e08601826139db565b508091505092915050565b60006101008301600083015161409a60008601826137bd565b5060208301516140ad6020860182614131565b5060408301516140c060408601826137bd565b50606083015184820360608601526140d882826138db565b91505060808301516140ed6080860182614131565b5060a083015161410060a0860182614131565b5060c083015161411360c0860182614131565b5060e083015161412660e08601826139db565b508091505092915050565b61413a81614989565b82525050565b61414981614989565b82525050565b600061415b828461394d565b915081905092915050565b600060208201905061417b60008301846137cc565b92915050565b600060608201905061419660008301866137cc565b6141a360208301856137cc565b6141b06040830184614140565b949350505050565b60006040820190506141cd60008301856137cc565b6141da6020830184614140565b9392505050565b600060e0820190506141f6600083018a6137cc565b6142036020830189614140565b61421060408301886137cc565b81810360608301526142228187613914565b90506142316080830186614140565b61423e60a0830185614140565b61424b60c0830184614140565b98975050505050505050565b6000602082019050818103600083015261427181846137db565b905092915050565b600060208201905081810360008301526142938184613839565b905092915050565b60006020820190506142b060008301846138ae565b92915050565b60006040820190506142cb60008301856138ae565b81810360208301526142dd8184613914565b90509392505050565b60006020820190506142fb60008301846138cc565b92915050565b600060208201905061431660008301846139ea565b92915050565b60006020820190508181036000830152614335816139f9565b9050919050565b6000602082019050818103600083015261435581613a39565b9050919050565b6000602082019050818103600083015261437581613a79565b9050919050565b6000602082019050818103600083015261439581613ab9565b9050919050565b600060208201905081810360008301526143b581613af9565b9050919050565b600060208201905081810360008301526143d581613b39565b9050919050565b600060208201905081810360008301526143f581613b79565b9050919050565b6000602082019050818103600083015261441581613bb9565b9050919050565b6000602082019050818103600083015261443581613bf9565b9050919050565b6000602082019050818103600083015261445581613c39565b9050919050565b6000602082019050818103600083015261447581613c9f565b9050919050565b6000602082019050818103600083015261449581613d05565b9050919050565b600060208201905081810360008301526144b581613d6b565b9050919050565b600060208201905081810360008301526144d581613dab565b9050919050565b600060208201905081810360008301526144f581613e11565b9050919050565b6000602082019050818103600083015261451581613e51565b9050919050565b6000602082019050818103600083015261453581613e91565b9050919050565b6000602082019050818103600083015261455581613ed1565b9050919050565b6000602082019050818103600083015261457581613f11565b9050919050565b6000602082019050818103600083015261459581613f51565b9050919050565b600060208201905081810360008301526145b581613f91565b9050919050565b600060208201905081810360008301526145d68184614081565b905092915050565b60006020820190506145f36000830184614140565b92915050565b600060608201905061460e6000830186614140565b61461b60208301856137cc565b6146286040830184614140565b949350505050565b60006040820190506146456000830185614140565b6146526020830184614140565b9392505050565b600060808201905061466e6000830187614140565b61467b6020830186614140565b61468860408301856139cc565b61469560608301846138ae565b95945050505050565b600080833560016020038436030381126146b757600080fd5b80840192508235915067ffffffffffffffff8211156146d557600080fd5b6020830192506001820236038313156146ed57600080fd5b509250929050565b6000604051905081810181811067ffffffffffffffff8211171561471c5761471b614b13565b5b8060405250919050565b600067ffffffffffffffff82111561474157614740614b13565b5b601f19601f8301169050602081019050919050565b6000819050602082019050919050565b6000819050602082019050919050565b60008190508160005260206000209050919050565b600081519050919050565b600081519050919050565b600081519050919050565b6000602082019050919050565b6000602082019050919050565b600082825260208201905092915050565b600082825260208201905092915050565b600082825260208201905092915050565b600082825260208201905092915050565b600081905092915050565b600082825260208201905092915050565b600061483182614989565b915061483c83614989565b9250827fffffffffffffffffffffffffffffffffffffffffffffffffffffffffffffffff0382111561487157614870614a86565b5b828201905092915050565b600061488782614989565b915061489283614989565b9250817fffffffffffffffffffffffffffffffffffffffffffffffffffffffffffffffff04831182151516156148cb576148ca614a86565b5b828202905092915050565b60006148e182614989565b91506148ec83614989565b9250828210156148ff576148fe614a86565b5b828203905092915050565b600061491582614969565b9050919050565b600061492782614969565b9050919050565b60008115159050919050565b6000819050919050565b600061494f8261490a565b9050919050565b600081905061496482614b53565b919050565b600073ffffffffffffffffffffffffffffffffffffffff82169050919050565b6000819050919050565b600061499e826149a5565b9050919050565b60006149b082614969565b9050919050565b60006149c282614956565b9050919050565b82818337600083830152505050565b60005b838110156149f65780820151818401526020810190506149db565b83811115614a05576000848401525b50505050565b60006002820490506001821680614a2357607f821691505b60208210811415614a3757614a36614ae4565b5b50919050565b6000614a4882614989565b91507fffffffffffffffffffffffffffffffffffffffffffffffffffffffffffffffff821415614a7b57614a7a614a86565b5b600182019050919050565b7f4e487b7100000000000000000000000000000000000000000000000000000000600052601160045260246000fd5b7f4e487b7100000000000000000000000000000000000000000000000000000000600052602160045260246000fd5b7f4e487b7100000000000000000000000000000000000000000000000000000000600052602260045260246000fd5b7f4e487b7100000000000000000000000000000000000000000000000000000000600052604160045260246000fd5b6000601f19601f8301169050919050565b60068110614b6457614b63614ab5565b5b50565b614b708161490a565b8114614b7b57600080fd5b50565b614b878161491c565b8114614b9257600080fd5b50565b614b9e8161492e565b8114614ba957600080fd5b50565b614bb58161493a565b8114614bc057600080fd5b50565b614bcc81614944565b8114614bd757600080fd5b50565b60068110614be757600080fd5b50565b614bf381614989565b8114614bfe57600080fd5b5056fea26469706673582212200240137610bca7c0dde33b53c939eba65086d65304484807f60435cf8d4b73f264736f6c63430008000033",
  "immutableReferences": {},
  "source": "// SPDX-License-Identifier: MIT\npragma solidity ^0.8.0;\nimport '@rsksmart/erc677/contracts/IERC677.sol';\nimport '@rsksmart/erc677/contracts/IERC677TransferReceiver.sol';\nimport '@openzeppelin/contracts-upgradeable/proxy/utils/Initializable.sol';\nimport '@openzeppelin/contracts-upgradeable/security/ReentrancyGuardUpgradeable.sol';\n\ncontract OneShotSchedule is IERC677TransferReceiver, Initializable, ReentrancyGuardUpgradeable {\n  enum ExecutionState { Scheduled, ExecutionSuccessful, ExecutionFailed, Overdue, Refunded, Cancelled }\n  // State transitions for scheduled executions:\n  //   Scheduled -> Cancelled (requestor cancelled execution)\n  //   Scheduled -> ExecutionSuccessful (call was executed in the given time and did not fail)\n  //   Scheduled -> ExecutionFailed (call was executed in the given time but failed)\n  //   Scheduled -> Overdue (execution window has passed, expected earlier)\n  //   Overdue -> Refunded (refund for overdue execution paid)\n\n  struct Execution {\n    address requestor;\n    uint256 plan;\n    address to;\n    bytes data;\n    uint256 gas;\n    uint256 timestamp;\n    uint256 value;\n    ExecutionState state;\n  }\n\n  struct Plan {\n    uint256 pricePerExecution;\n    uint256 window;\n    IERC677 token;\n    bool active;\n  }\n\n  address public serviceProvider;\n  address public payee;\n\n  Plan[] public plans;\n\n  mapping(address => mapping(uint256 => uint256)) public remainingExecutions;\n  mapping(bytes32 => Execution) private executions;\n  mapping(address => bytes32[]) private executionsByRequestor; // redundant with executions\n\n  // address private immutable self = address(this);\n\n  event PlanAdded(uint256 indexed index, uint256 price, address token, uint256 window);\n  event PlanRemoved(uint256 indexed index);\n\n  event ExecutionPurchased(address indexed requestor, uint256 plan, uint256 amount);\n  event ExecutionRequested(bytes32 indexed id, uint256 timestamp);\n  event Executed(bytes32 indexed id, bool success, bytes result);\n  event ExecutionCancelled(bytes32 indexed id);\n\n  modifier onlyProvider() {\n    require(address(msg.sender) == serviceProvider, 'Not authorized');\n    _;\n  }\n\n  function initialize(address serviceProvider_, address payee_) external initializer {\n    __ReentrancyGuard_init();\n    require(payee_ != address(0x0), 'Payee address cannot be 0x0');\n    require(serviceProvider_ != address(0x0), 'Service provider address cannot be 0x0');\n    serviceProvider = serviceProvider_;\n    payee = payee_;\n  }\n\n  ///////////\n  // ADMIN //\n  ///////////\n\n  function addPlan(\n    uint256 price,\n    uint256 window,\n    IERC677 token\n  ) external onlyProvider {\n    plans.push(Plan(price, window, token, true));\n    emit PlanAdded(plans.length - 1, price, address(token), window);\n  }\n\n  function removePlan(uint256 plan) external onlyProvider {\n    require(plans[plan].active, 'The plan is already inactive');\n    plans[plan].active = false;\n    emit PlanRemoved(plan);\n  }\n\n  function plansCount() external view returns (uint256) {\n    return plans.length;\n  }\n\n  function setPayee(address payee_) external onlyProvider {\n    require(payee_ != address(0x0), 'Payee address cannot be 0x0');\n    payee = payee_;\n  }\n\n  //////////////\n  // PURCHASE //\n  //////////////\n\n  function totalPrice(uint256 plan, uint256 quantity) private view returns (uint256) {\n    return quantity * plans[plan].pricePerExecution;\n  }\n\n  function doPurchase(\n    address requestor,\n    uint256 plan,\n    uint256 amount\n  ) private {\n    require(plans[plan].active, 'Inactive plan');\n    remainingExecutions[requestor][plan] += amount;\n    emit ExecutionPurchased(requestor, plan, amount);\n  }\n\n  // purcahse with ERC-20 and rBTC, for rBTC the plan's token address 0x0\n  function purchase(uint256 plan, uint256 quantity) external payable {\n    if (address(plans[plan].token) != address(0x0)) {\n      require(msg.value == 0, 'rBTC not accepted for this plan');\n      doPurchase(msg.sender, plan, quantity);\n      require(plans[plan].token.transferFrom(msg.sender, address(this), totalPrice(plan, quantity)), \"Payment did't pass\");\n    } else {\n      require(msg.value == totalPrice(plan, quantity), \"Transferred amount doesn't match total purchase\");\n      doPurchase(msg.sender, plan, quantity);\n    }\n  }\n\n  // purcahse with ERC-677\n  function tokenFallback(\n    address from,\n    uint256 amount,\n    bytes calldata data\n  ) external override returns (bool) {\n    (uint256 plan, uint256 quantity) = abi.decode(data, (uint256, uint256));\n\n    require(address(plans[plan].token) == address(msg.sender), 'Bad token');\n    require(amount == totalPrice(plan, quantity), \"Transferred amount doesn't match total purchase\");\n\n    doPurchase(from, plan, quantity);\n    return true;\n  }\n\n  ////////////////\n  // SCHEDULING //\n  ////////////////\n\n  // slither-disable-next-line timestamp\n  function getState(bytes32 id) public view returns (ExecutionState) {\n    Execution memory execution = executions[id];\n    if (execution.state == ExecutionState.Scheduled && ((execution.timestamp + plans[execution.plan].window) < block.timestamp)) {\n      return ExecutionState.Overdue;\n    } else {\n      return execution.state;\n    }\n  }\n\n  function hash(Execution memory execution) public pure returns (bytes32) {\n    return\n      keccak256(\n        abi.encode(execution.requestor, execution.plan, execution.to, execution.data, execution.gas, execution.timestamp, execution.value)\n      );\n  }\n\n  function _schedule(Execution memory execution) private returns (bytes32 id) {\n    require(msg.sender == execution.requestor, 'Not the requestor'); // just in case\n    require(remainingExecutions[msg.sender][execution.plan] > 0, 'No balance available');\n    // This is only to prevent errors, doesn't need to be exact\n    // timestamp manipulation should be considered in the window by the service provider\n    // slither-disable-next-line timestamp\n    require(block.timestamp <= execution.timestamp, 'Cannot schedule it in the past');\n    id = hash(execution);\n    // checking existence, no execution can be scheduled with timestamp 0\n    require(executions[id].timestamp == 0, 'Already scheduled');\n    remainingExecutions[msg.sender][execution.plan] -= 1;\n    executions[id] = execution;\n    executionsByRequestor[msg.sender].push(id);\n    emit ExecutionRequested(id, execution.timestamp);\n  }\n\n  function schedule(\n    uint256 plan,\n    address to,\n    bytes calldata data,\n    uint256 gas,\n    uint256 timestamp\n  ) external payable returns (bytes32 id) {\n    Execution memory execution = Execution(msg.sender, plan, to, data, gas, timestamp, msg.value, ExecutionState.Scheduled);\n    return (_schedule(execution));\n  }\n\n  function batchSchedule(bytes[] calldata data) external payable returns (bytes32[] memory ids) {\n    uint256 totalValue;\n    ids = new bytes32[](data.length);\n    for (uint256 i = 0; i < data.length; i++) {\n      (uint256 plan, address to, bytes memory txData, uint256 gas, uint256 timestamp, uint256 value) =\n        abi.decode(data[i], (uint256, address, bytes, uint256, uint256, uint256));\n      totalValue += value;\n      ids[i] = _schedule(Execution(msg.sender, plan, to, txData, gas, timestamp, value, ExecutionState.Scheduled));\n    }\n    require(totalValue == msg.value, \"Executions total value doesn't match\");\n  }\n\n  function getExecutionById(bytes32 id) public view returns (Execution memory execution) {\n    execution = executions[id];\n    execution.state = getState(id);\n  }\n\n  function executionsByRequestorCount(address requestor) external view returns (uint256) {\n    return executionsByRequestor[requestor].length;\n  }\n\n  function getExecutionsByRequestor(\n    address requestor,\n    uint256 fromIndex,\n    uint256 toIndex\n  ) external view returns (Execution[] memory executionList) {\n    require(executionsByRequestor[requestor].length >= toIndex && fromIndex < toIndex, 'Out of range');\n    executionList = new Execution[](toIndex - fromIndex);\n    for (uint256 i = fromIndex; i < toIndex; i++) {\n      executionList[i - fromIndex] = getExecutionById(executionsByRequestor[requestor][i]);\n    }\n  }\n\n  function cancelScheduling(bytes32 id) external {\n    Execution storage execution = executions[id];\n\n    require(getState(id) == ExecutionState.Scheduled, 'Transaction not scheduled');\n    require(msg.sender == execution.requestor, 'Not authorized');\n\n    execution.state = ExecutionState.Cancelled;\n    remainingExecutions[execution.requestor][execution.plan] += 1;\n    emit ExecutionCancelled(id);\n    payable(execution.requestor).transfer(execution.value);\n  }\n\n  ///////////////\n  // EXECUTION //\n  ///////////////\n  function refund(bytes32 id) private {\n    Execution storage execution = executions[id];\n    remainingExecutions[execution.requestor][execution.plan] += 1;\n    execution.state = ExecutionState.Refunded;\n    payable(execution.requestor).transfer(execution.value);\n  }\n\n  // The nonReentrant prevents this contract to be call again when the low level call is executed\n  // timestamp manipulation should be considered in the window by the service provider\n  // slither-disable-next-line timestamp\n  function execute(bytes32 id) external nonReentrant {\n    Execution storage execution = executions[id];\n\n    require(execution.state == ExecutionState.Scheduled, 'Already executed');\n    // timestamp manipulation should be considered in the window by the service provider\n    // slither-disable-next-line timestamp\n    require((execution.timestamp - plans[execution.plan].window) < block.timestamp, 'Too soon');\n\n    if (getState(id) == ExecutionState.Overdue) {\n      refund(id);\n      return;\n    }\n\n    // The contract makes an external call to execute the scheduled transaction on the specified contract.\n    // It needs to get the execution result before emitting the event and changing the matatransaction state.\n    // slither-disable-next-line low-level-calls\n    (bool success, bytes memory result) = payable(execution.to).call{ gas: execution.gas, value: execution.value }(execution.data);\n\n    // reentrancy prevented by nonReentrant modifier\n    // slither-disable-next-line reentrancy-events\n    emit Executed(id, success, result);\n\n    if (success) {\n      // reentrancy prevented by nonReentrant modifier\n      // slither-disable-next-line reentrancy-eth\n      execution.state = ExecutionState.ExecutionSuccessful;\n    } else {\n      // reentrancy prevented by nonReentrant modifier\n      // slither-disable-next-line reentrancy-eth\n      execution.state = ExecutionState.ExecutionFailed;\n    }\n\n    if (address(plans[execution.plan].token) != address(0x0)) {\n      require(plans[execution.plan].token.transfer(payee, plans[execution.plan].pricePerExecution), \"Couldn't transfer to payee\");\n    } else {\n      payable(payee).transfer(plans[execution.plan].pricePerExecution);\n    }\n  }\n\n  // function multicall(bytes[] calldata data) external returns (bytes[] memory results) {\n  //   require(address(this) != self); //This makes safe the use of delegatedcall, making it only viable on the proxy\n  //   results = new bytes[](data.length);\n  //   for (uint256 i = 0; i < data.length; i++) {\n  //     (bool success, bytes memory result) = address(this).delegatecall(data[i]);\n  //     require(success);\n  //     results[i] = result;\n  //   }\n  //   return results;\n  // }\n}\n",
  "sourcePath": "/Users/diegograsso/dev/rif-scheduler-contracts-poc/contracts/OneShotSchedule.sol",
  "compiler": {
    "name": "solc",
    "version": "0.8.0+commit.c7dfd78e.Emscripten.clang"
  },
  "schemaVersion": "3.3.4",
  "updatedAt": "2021-06-03T20:42:27.732Z",
  "networkType": "ethereum",
  "devdoc": {
    "kind": "dev",
    "methods": {},
    "version": 1
  },
  "userdoc": {
    "kind": "user",
    "methods": {},
    "version": 1
  }
}