{
  "contractName": "OneShotSchedule",
  "abi": [
    {
      "anonymous": false,
      "inputs": [
        {
          "indexed": true,
          "internalType": "bytes32",
          "name": "id",
          "type": "bytes32"
        },
        {
          "indexed": false,
          "internalType": "bool",
          "name": "success",
          "type": "bool"
        },
        {
          "indexed": false,
          "internalType": "bytes",
          "name": "result",
          "type": "bytes"
        }
      ],
      "name": "Executed",
      "type": "event"
    },
    {
      "anonymous": false,
      "inputs": [
        {
          "indexed": true,
          "internalType": "bytes32",
          "name": "id",
          "type": "bytes32"
        }
      ],
      "name": "ExecutionCancelled",
      "type": "event"
    },
    {
      "anonymous": false,
      "inputs": [
        {
          "indexed": true,
          "internalType": "address",
          "name": "requestor",
          "type": "address"
        },
        {
          "indexed": false,
          "internalType": "uint256",
          "name": "plan",
          "type": "uint256"
        },
        {
          "indexed": false,
          "internalType": "uint256",
          "name": "amount",
          "type": "uint256"
        }
      ],
      "name": "ExecutionPurchased",
      "type": "event"
    },
    {
      "anonymous": false,
      "inputs": [
        {
          "indexed": true,
          "internalType": "bytes32",
          "name": "id",
          "type": "bytes32"
        },
        {
          "indexed": false,
          "internalType": "uint256",
          "name": "timestamp",
          "type": "uint256"
        }
      ],
      "name": "ExecutionRequested",
      "type": "event"
    },
    {
      "anonymous": false,
      "inputs": [
        {
          "indexed": true,
          "internalType": "uint256",
          "name": "index",
          "type": "uint256"
        },
        {
          "indexed": false,
          "internalType": "uint256",
          "name": "price",
          "type": "uint256"
        },
        {
          "indexed": false,
          "internalType": "address",
          "name": "token",
          "type": "address"
        },
        {
          "indexed": false,
          "internalType": "uint256",
          "name": "window",
          "type": "uint256"
        }
      ],
      "name": "PlanAdded",
      "type": "event"
    },
    {
      "anonymous": false,
      "inputs": [
        {
          "indexed": true,
          "internalType": "uint256",
          "name": "index",
          "type": "uint256"
        }
      ],
      "name": "PlanRemoved",
      "type": "event"
    },
    {
      "inputs": [],
      "name": "payee",
      "outputs": [
        {
          "internalType": "address",
          "name": "",
          "type": "address"
        }
      ],
      "stateMutability": "view",
      "type": "function"
    },
    {
      "inputs": [
        {
          "internalType": "uint256",
          "name": "",
          "type": "uint256"
        }
      ],
      "name": "plans",
      "outputs": [
        {
          "internalType": "uint256",
          "name": "pricePerExecution",
          "type": "uint256"
        },
        {
          "internalType": "uint256",
          "name": "window",
          "type": "uint256"
        },
        {
          "internalType": "contract IERC677",
          "name": "token",
          "type": "address"
        },
        {
          "internalType": "bool",
          "name": "active",
          "type": "bool"
        }
      ],
      "stateMutability": "view",
      "type": "function"
    },
    {
      "inputs": [
        {
          "internalType": "address",
          "name": "",
          "type": "address"
        },
        {
          "internalType": "uint256",
          "name": "",
          "type": "uint256"
        }
      ],
      "name": "remainingExecutions",
      "outputs": [
        {
          "internalType": "uint256",
          "name": "",
          "type": "uint256"
        }
      ],
      "stateMutability": "view",
      "type": "function"
    },
    {
      "inputs": [],
      "name": "serviceProvider",
      "outputs": [
        {
          "internalType": "address",
          "name": "",
          "type": "address"
        }
      ],
      "stateMutability": "view",
      "type": "function"
    },
    {
      "inputs": [
        {
          "internalType": "address",
          "name": "serviceProvider_",
          "type": "address"
        },
        {
          "internalType": "address",
          "name": "payee_",
          "type": "address"
        }
      ],
      "name": "initialize",
      "outputs": [],
      "stateMutability": "nonpayable",
      "type": "function"
    },
    {
      "inputs": [
        {
          "internalType": "uint256",
          "name": "price",
          "type": "uint256"
        },
        {
          "internalType": "uint256",
          "name": "window",
          "type": "uint256"
        },
        {
          "internalType": "contract IERC677",
          "name": "token",
          "type": "address"
        }
      ],
      "name": "addPlan",
      "outputs": [],
      "stateMutability": "nonpayable",
      "type": "function"
    },
    {
      "inputs": [
        {
          "internalType": "uint256",
          "name": "plan",
          "type": "uint256"
        }
      ],
      "name": "removePlan",
      "outputs": [],
      "stateMutability": "nonpayable",
      "type": "function"
    },
    {
      "inputs": [],
      "name": "plansCount",
      "outputs": [
        {
          "internalType": "uint256",
          "name": "",
          "type": "uint256"
        }
      ],
      "stateMutability": "view",
      "type": "function"
    },
    {
      "inputs": [
        {
          "internalType": "address",
          "name": "payee_",
          "type": "address"
        }
      ],
      "name": "setPayee",
      "outputs": [],
      "stateMutability": "nonpayable",
      "type": "function"
    },
    {
      "inputs": [
        {
          "internalType": "uint256",
          "name": "plan",
          "type": "uint256"
        },
        {
          "internalType": "uint256",
          "name": "quantity",
          "type": "uint256"
        }
      ],
      "name": "purchase",
      "outputs": [],
      "stateMutability": "nonpayable",
      "type": "function"
    },
    {
      "inputs": [
        {
          "internalType": "address",
          "name": "from",
          "type": "address"
        },
        {
          "internalType": "uint256",
          "name": "amount",
          "type": "uint256"
        },
        {
          "internalType": "bytes",
          "name": "data",
          "type": "bytes"
        }
      ],
      "name": "tokenFallback",
      "outputs": [
        {
          "internalType": "bool",
          "name": "",
          "type": "bool"
        }
      ],
      "stateMutability": "nonpayable",
      "type": "function"
    },
    {
      "inputs": [
        {
          "internalType": "bytes32",
          "name": "id",
          "type": "bytes32"
        }
      ],
      "name": "getState",
      "outputs": [
        {
          "internalType": "enum OneShotSchedule.ExecutionState",
          "name": "",
          "type": "uint8"
        }
      ],
      "stateMutability": "view",
      "type": "function"
    },
    {
      "inputs": [
        {
          "components": [
            {
              "internalType": "address",
              "name": "requestor",
              "type": "address"
            },
            {
              "internalType": "uint256",
              "name": "plan",
              "type": "uint256"
            },
            {
              "internalType": "address",
              "name": "to",
              "type": "address"
            },
            {
              "internalType": "bytes",
              "name": "data",
              "type": "bytes"
            },
            {
              "internalType": "uint256",
              "name": "gas",
              "type": "uint256"
            },
            {
              "internalType": "uint256",
              "name": "timestamp",
              "type": "uint256"
            },
            {
              "internalType": "uint256",
              "name": "value",
              "type": "uint256"
            },
            {
              "internalType": "enum OneShotSchedule.ExecutionState",
              "name": "state",
              "type": "uint8"
            }
          ],
          "internalType": "struct OneShotSchedule.Execution",
          "name": "execution",
          "type": "tuple"
        }
      ],
      "name": "hash",
      "outputs": [
        {
          "internalType": "bytes32",
          "name": "",
          "type": "bytes32"
        }
      ],
      "stateMutability": "pure",
      "type": "function"
    },
    {
      "inputs": [
        {
          "internalType": "uint256",
          "name": "plan",
          "type": "uint256"
        },
        {
          "internalType": "address",
          "name": "to",
          "type": "address"
        },
        {
          "internalType": "bytes",
          "name": "data",
          "type": "bytes"
        },
        {
          "internalType": "uint256",
          "name": "gas",
          "type": "uint256"
        },
        {
          "internalType": "uint256",
          "name": "timestamp",
          "type": "uint256"
        }
      ],
      "name": "schedule",
      "outputs": [
        {
          "internalType": "bytes32",
          "name": "id",
          "type": "bytes32"
        }
      ],
      "stateMutability": "payable",
      "type": "function"
    },
    {
      "inputs": [
        {
          "internalType": "bytes[]",
          "name": "data",
          "type": "bytes[]"
        }
      ],
      "name": "batchSchedule",
      "outputs": [
        {
          "internalType": "bytes32[]",
          "name": "ids",
          "type": "bytes32[]"
        }
      ],
      "stateMutability": "payable",
      "type": "function"
    },
    {
      "inputs": [
        {
          "internalType": "bytes32",
          "name": "id",
          "type": "bytes32"
        }
      ],
      "name": "getSchedule",
      "outputs": [
        {
          "internalType": "address",
          "name": "requestor",
          "type": "address"
        },
        {
          "internalType": "uint256",
          "name": "plan",
          "type": "uint256"
        },
        {
          "internalType": "address",
          "name": "to",
          "type": "address"
        },
        {
          "internalType": "bytes",
          "name": "data",
          "type": "bytes"
        },
        {
          "internalType": "uint256",
          "name": "gas",
          "type": "uint256"
        },
        {
          "internalType": "uint256",
          "name": "timestamp",
          "type": "uint256"
        },
        {
          "internalType": "uint256",
          "name": "value",
          "type": "uint256"
        },
        {
          "internalType": "enum OneShotSchedule.ExecutionState",
          "name": "state",
          "type": "uint8"
        }
      ],
      "stateMutability": "view",
      "type": "function"
    },
    {
      "inputs": [
        {
          "internalType": "bytes32",
          "name": "id",
          "type": "bytes32"
        }
      ],
      "name": "cancelScheduling",
      "outputs": [],
      "stateMutability": "nonpayable",
      "type": "function"
    },
    {
      "inputs": [
        {
          "internalType": "bytes32",
          "name": "id",
          "type": "bytes32"
        }
      ],
      "name": "execute",
      "outputs": [],
      "stateMutability": "nonpayable",
      "type": "function"
    },
    {
      "inputs": [
        {
          "internalType": "bytes[]",
          "name": "data",
          "type": "bytes[]"
        }
      ],
      "name": "multicall",
      "outputs": [
        {
          "internalType": "bytes[]",
          "name": "results",
          "type": "bytes[]"
        }
      ],
      "stateMutability": "nonpayable",
      "type": "function"
    }
  ],
  "bytecode": "0x60a06040523073ffffffffffffffffffffffffffffffffffffffff1660809073ffffffffffffffffffffffffffffffffffffffff166c010000000000000000000000000281525034801561005257600080fd5b506080516c0100000000000000000000000090046145d561007e60003960006117d401526145d56000f3fe608060405260043610610131576000357c01000000000000000000000000000000000000000000000000000000009004806373eab687116100bd578063b162061611610081578063b1620616146103df578063b395bb4b1461041f578063c0ee0b8a1461045c578063debd4c3d14610499578063e751f271146104c257610131565b806373eab687146102ec5780638d69e95e1461031c57806393a1b8d914610347578063ac9650d814610377578063ae90b213146103b457610131565b8063485cc95511610104578063485cc9551461020957806354ceba0a1461023257806358fa1d9d1461025b578063591c613c1461029857806370876c98146102c357610131565b806309648a9d1461013657806328e550e6146101735780633adc277a1461019c578063410459ad146101e0575b600080fd5b34801561014257600080fd5b5061015d6004803603810190610158919061308a565b6104eb565b60405161016a9190613d01565b60405180910390f35b34801561017f57600080fd5b5061019a600480360381019061019591906130f4565b6107fa565b005b3480156101a857600080fd5b506101c360048036038101906101be919061308a565b6109b5565b6040516101d7989796959493929190613bd2565b60405180910390f35b3480156101ec57600080fd5b5061020760048036038101906102029190612f0f565b610c1a565b005b34801561021557600080fd5b50610230600480360381019061022b9190612f38565b610d5e565b005b34801561023e57600080fd5b506102596004803603810190610254919061308a565b610fa3565b005b34801561026757600080fd5b50610282600480360381019061027d91906130b3565b61128a565b60405161028f9190613ce6565b60405180910390f35b3480156102a457600080fd5b506102ad6112e2565b6040516102ba9190613f7c565b60405180910390f35b3480156102cf57600080fd5b506102ea60048036038101906102e59190613250565b6112ef565b005b610306600480360381019061030191906131be565b61145c565b6040516103139190613ce6565b60405180910390f35b34801561032857600080fd5b5061033161155a565b60405161033e9190613ae1565b60405180910390f35b610361600480360381019061035c919061301c565b611580565b60405161036e9190613c57565b60405180910390f35b34801561038357600080fd5b5061039e6004803603810190610399919061301c565b6117d0565b6040516103ab9190613c79565b60405180910390f35b3480156103c057600080fd5b506103c96119d5565b6040516103d69190613ae1565b60405180910390f35b3480156103eb57600080fd5b50610406600480360381019061040191906130f4565b6119fb565b6040516104169493929190613ff7565b60405180910390f35b34801561042b57600080fd5b5061044660048036038101906104419190612f74565b611a68565b6040516104539190613f7c565b60405180910390f35b34801561046857600080fd5b50610483600480360381019061047e9190612fb0565b611a8d565b6040516104909190613c9b565b60405180910390f35b3480156104a557600080fd5b506104c060048036038101906104bb919061328c565b611be2565b005b3480156104ce57600080fd5b506104e960048036038101906104e4919061308a565b611e16565b005b60008060376000848152602001908152602001600020604051806101000160405290816000820160009054906101000a900473ffffffffffffffffffffffffffffffffffffffff1673ffffffffffffffffffffffffffffffffffffffff1673ffffffffffffffffffffffffffffffffffffffff168152602001600182015481526020016002820160009054906101000a900473ffffffffffffffffffffffffffffffffffffffff1673ffffffffffffffffffffffffffffffffffffffff1673ffffffffffffffffffffffffffffffffffffffff1681526020016003820180546105d3906143a9565b80601f01602080910402602001604051908101604052809291908181526020018280546105ff906143a9565b801561064c5780601f106106215761010080835404028352916020019161064c565b820191906000526020600020905b81548152906001019060200180831161062f57829003601f168201915b505050505081526020016004820154815260200160058201548152602001600682015481526020016007820160009054906101000a900460ff1660058111156106be577f4e487b7100000000000000000000000000000000000000000000000000000000600052602160045260246000fd5b60058111156106f6577f4e487b7100000000000000000000000000000000000000000000000000000000600052602160045260246000fd5b81525050905060006005811115610736577f4e487b7100000000000000000000000000000000000000000000000000000000600052602160045260246000fd5b8160e001516005811115610773577f4e487b7100000000000000000000000000000000000000000000000000000000600052602160045260246000fd5b1480156107dd57504260358260200151815481106107ba577f4e487b7100000000000000000000000000000000000000000000000000000000600052603260045260246000fd5b9060005260206000209060030201600101548260a001516107db91906141c4565b105b156107ec5760039150506107f5565b8060e001519150505b919050565b603360009054906101000a900473ffffffffffffffffffffffffffffffffffffffff1673ffffffffffffffffffffffffffffffffffffffff163373ffffffffffffffffffffffffffffffffffffffff161461088a576040517f08c379a000000000000000000000000000000000000000000000000000000000815260040161088190613f5c565b60405180910390fd5b603581815481106108c4577f4e487b7100000000000000000000000000000000000000000000000000000000600052603260045260246000fd5b906000526020600020906003020160020160149054906101000a900460ff16610922576040517f08c379a000000000000000000000000000000000000000000000000000000000815260040161091990613d1c565b60405180910390fd5b60006035828154811061095e577f4e487b7100000000000000000000000000000000000000000000000000000000600052603260045260246000fd5b906000526020600020906003020160020160146101000a81548160ff021916908315150217905550807e4c797e6739331fc6d5c1ebdf112d63e6a68297fdfd28f35f54561e28fd868d60405160405180910390a250565b600080600060606000806000806000603760008b8152602001908152602001600020604051806101000160405290816000820160009054906101000a900473ffffffffffffffffffffffffffffffffffffffff1673ffffffffffffffffffffffffffffffffffffffff1673ffffffffffffffffffffffffffffffffffffffff168152602001600182015481526020016002820160009054906101000a900473ffffffffffffffffffffffffffffffffffffffff1673ffffffffffffffffffffffffffffffffffffffff1673ffffffffffffffffffffffffffffffffffffffff168152602001600382018054610aa9906143a9565b80601f0160208091040260200160405190810160405280929190818152602001828054610ad5906143a9565b8015610b225780601f10610af757610100808354040283529160200191610b22565b820191906000526020600020905b815481529060010190602001808311610b0557829003601f168201915b505050505081526020016004820154815260200160058201548152602001600682015481526020016007820160009054906101000a900460ff166005811115610b94577f4e487b7100000000000000000000000000000000000000000000000000000000600052602160045260246000fd5b6005811115610bcc577f4e487b7100000000000000000000000000000000000000000000000000000000600052602160045260246000fd5b81525050905080600001519850806020015197508060400151965080606001519550806080015194508060a0015193508060c001519250610c0c8a6104eb565b915050919395975091939597565b603360009054906101000a900473ffffffffffffffffffffffffffffffffffffffff1673ffffffffffffffffffffffffffffffffffffffff163373ffffffffffffffffffffffffffffffffffffffff1614610caa576040517f08c379a0000000000000000000000000000000000000000000000000000000008152600401610ca190613f5c565b60405180910390fd5b600073ffffffffffffffffffffffffffffffffffffffff168173ffffffffffffffffffffffffffffffffffffffff161415610d1a576040517f08c379a0000000000000000000000000000000000000000000000000000000008152600401610d1190613efc565b60405180910390fd5b80603460006101000a81548173ffffffffffffffffffffffffffffffffffffffff021916908373ffffffffffffffffffffffffffffffffffffffff16021790555050565b600060019054906101000a900460ff1680610d84575060008054906101000a900460ff16155b610dc3576040517f08c379a0000000000000000000000000000000000000000000000000000000008152600401610dba90613e3c565b60405180910390fd5b60008060019054906101000a900460ff161590508015610e13576001600060016101000a81548160ff02191690831515021790555060016000806101000a81548160ff0219169083151502179055505b610e1b6123d2565b600073ffffffffffffffffffffffffffffffffffffffff168273ffffffffffffffffffffffffffffffffffffffff161415610e8b576040517f08c379a0000000000000000000000000000000000000000000000000000000008152600401610e8290613efc565b60405180910390fd5b600073ffffffffffffffffffffffffffffffffffffffff168373ffffffffffffffffffffffffffffffffffffffff161415610efb576040517f08c379a0000000000000000000000000000000000000000000000000000000008152600401610ef290613e7c565b60405180910390fd5b82603360006101000a81548173ffffffffffffffffffffffffffffffffffffffff021916908373ffffffffffffffffffffffffffffffffffffffff16021790555081603460006101000a81548173ffffffffffffffffffffffffffffffffffffffff021916908373ffffffffffffffffffffffffffffffffffffffff1602179055508015610f9e5760008060016101000a81548160ff0219169083151502179055505b505050565b600060376000838152602001908152602001600020905060006005811115610ff4577f4e487b7100000000000000000000000000000000000000000000000000000000600052602160045260246000fd5b610ffd836104eb565b6005811115611035577f4e487b7100000000000000000000000000000000000000000000000000000000600052602160045260246000fd5b14611075576040517f08c379a000000000000000000000000000000000000000000000000000000000815260040161106c90613d7c565b60405180910390fd5b8060000160009054906101000a900473ffffffffffffffffffffffffffffffffffffffff1673ffffffffffffffffffffffffffffffffffffffff163373ffffffffffffffffffffffffffffffffffffffff1614611107576040517f08c379a00000000000000000000000000000000000000000000000000000000081526004016110fe90613f5c565b60405180910390fd5b60058160070160006101000a81548160ff02191690836005811115611155577f4e487b7100000000000000000000000000000000000000000000000000000000600052602160045260246000fd5b02179055506001603660008360000160009054906101000a900473ffffffffffffffffffffffffffffffffffffffff1673ffffffffffffffffffffffffffffffffffffffff1673ffffffffffffffffffffffffffffffffffffffff16815260200190815260200160002060008360010154815260200190815260200160002060008282546111e391906141c4565b92505081905550817fa9492956e3406e5fabb393f5ac68540da3bb42721d741519c0eadd27a15d83c060405160405180910390a28060000160009054906101000a900473ffffffffffffffffffffffffffffffffffffffff1673ffffffffffffffffffffffffffffffffffffffff166108fc82600601549081150290604051600060405180830381858888f19350505050158015611285573d6000803e3d6000fd5b505050565b6000816000015182602001518360400151846060015185608001518660a001518760c001516040516020016112c59796959493929190613b5c565b604051602081830303815290604052805190602001209050919050565b6000603580549050905090565b6112fa3383836124b3565b60358281548110611334577f4e487b7100000000000000000000000000000000000000000000000000000000600052603260045260246000fd5b906000526020600020906003020160020160009054906101000a900473ffffffffffffffffffffffffffffffffffffffff1673ffffffffffffffffffffffffffffffffffffffff166323b872dd333061138d8686612607565b6040518463ffffffff167c01000000000000000000000000000000000000000000000000000000000281526004016113c793929190613afc565b602060405180830381600087803b1580156113e157600080fd5b505af11580156113f5573d6000803e3d6000fd5b505050506040513d601f19601f820116820180604052508101906114199190613061565b611458576040517f08c379a000000000000000000000000000000000000000000000000000000000815260040161144f90613dfc565b60405180910390fd5b5050565b6000806040518061010001604052803373ffffffffffffffffffffffffffffffffffffffff1681526020018981526020018873ffffffffffffffffffffffffffffffffffffffff16815260200187878080601f016020809104026020016040519081016040528093929190818152602001838380828437600081840152601f19601f8201169050808301925050505050505081526020018581526020018481526020013481526020016000600581111561153f577f4e487b7100000000000000000000000000000000000000000000000000000000600052602160045260246000fd5b815250905061154d81612668565b9150509695505050505050565b603360009054906101000a900473ffffffffffffffffffffffffffffffffffffffff1681565b606060008383905067ffffffffffffffff8111156115c7577f4e487b7100000000000000000000000000000000000000000000000000000000600052604160045260246000fd5b6040519080825280602002602001820160405280156115f55781602001602082028036833780820191505090505b50915060005b84849050811015611786576000806000806000808a8a88818110611648577f4e487b7100000000000000000000000000000000000000000000000000000000600052603260045260246000fd5b905060200281019061165a919061403c565b810190611667919061311d565b955095509550955095509550808861167f91906141c4565b97506117286040518061010001604052803373ffffffffffffffffffffffffffffffffffffffff1681526020018881526020018773ffffffffffffffffffffffffffffffffffffffff16815260200186815260200185815260200184815260200183815260200160006005811115611720577f4e487b7100000000000000000000000000000000000000000000000000000000600052602160045260246000fd5b815250612668565b898881518110611761577f4e487b7100000000000000000000000000000000000000000000000000000000600052603260045260246000fd5b602002602001018181525050505050505050808061177e906143db565b9150506115fb565b503481146117c9576040517f08c379a00000000000000000000000000000000000000000000000000000000081526004016117c090613e5c565b60405180910390fd5b5092915050565b60607f000000000000000000000000000000000000000000000000000000000000000073ffffffffffffffffffffffffffffffffffffffff163073ffffffffffffffffffffffffffffffffffffffff16141561182b57600080fd5b8282905067ffffffffffffffff81111561186e577f4e487b7100000000000000000000000000000000000000000000000000000000600052604160045260246000fd5b6040519080825280602002602001820160405280156118a157816020015b606081526020019060019003908161188c5790505b50905060005b838390508110156119ce576000803073ffffffffffffffffffffffffffffffffffffffff16868685818110611905577f4e487b7100000000000000000000000000000000000000000000000000000000600052603260045260246000fd5b9050602002810190611917919061403c565b604051611925929190613ab1565b600060405180830381855af49150503d8060008114611960576040519150601f19603f3d011682016040523d82523d6000602084013e611965565b606091505b50915091508161197457600080fd5b808484815181106119ae577f4e487b7100000000000000000000000000000000000000000000000000000000600052603260045260246000fd5b6020026020010181905250505080806119c6906143db565b9150506118a7565b5092915050565b603460009054906101000a900473ffffffffffffffffffffffffffffffffffffffff1681565b60358181548110611a0b57600080fd5b90600052602060002090600302016000915090508060000154908060010154908060020160009054906101000a900473ffffffffffffffffffffffffffffffffffffffff16908060020160149054906101000a900460ff16905084565b6036602052816000526040600020602052806000526040600020600091509150505481565b60008060008484810190611aa19190613250565b915091503373ffffffffffffffffffffffffffffffffffffffff1660358381548110611af6577f4e487b7100000000000000000000000000000000000000000000000000000000600052603260045260246000fd5b906000526020600020906003020160020160009054906101000a900473ffffffffffffffffffffffffffffffffffffffff1673ffffffffffffffffffffffffffffffffffffffff1614611b7e576040517f08c379a0000000000000000000000000000000000000000000000000000000008152600401611b7590613dbc565b60405180910390fd5b611b888282612607565b8614611bc9576040517f08c379a0000000000000000000000000000000000000000000000000000000008152600401611bc090613e1c565b60405180910390fd5b611bd48783836124b3565b600192505050949350505050565b603360009054906101000a900473ffffffffffffffffffffffffffffffffffffffff1673ffffffffffffffffffffffffffffffffffffffff163373ffffffffffffffffffffffffffffffffffffffff1614611c72576040517f08c379a0000000000000000000000000000000000000000000000000000000008152600401611c6990613f5c565b60405180910390fd5b600073ffffffffffffffffffffffffffffffffffffffff168173ffffffffffffffffffffffffffffffffffffffff161415611ce2576040517f08c379a0000000000000000000000000000000000000000000000000000000008152600401611cd990613edc565b60405180910390fd5b603560405180608001604052808581526020018481526020018373ffffffffffffffffffffffffffffffffffffffff168152602001600115158152509080600181540180825580915050600190039060005260206000209060030201600090919091909150600082015181600001556020820151816001015560408201518160020160006101000a81548173ffffffffffffffffffffffffffffffffffffffff021916908373ffffffffffffffffffffffffffffffffffffffff16021790555060608201518160020160146101000a81548160ff02191690831515021790555050506001603580549050611dd69190614274565b7f398c82e2ccf5aaee72a60b95d6543133e8fc843e113441e9a2d767274c8d8eef848385604051611e0993929190613f97565b60405180910390a2505050565b60026001541415611e5c576040517f08c379a0000000000000000000000000000000000000000000000000000000008152600401611e5390613f3c565b60405180910390fd5b6002600181905550600060376000838152602001908152602001600020905060006005811115611eb5577f4e487b7100000000000000000000000000000000000000000000000000000000600052602160045260246000fd5b8160070160009054906101000a900460ff166005811115611eff577f4e487b7100000000000000000000000000000000000000000000000000000000600052602160045260246000fd5b14611f3f576040517f08c379a0000000000000000000000000000000000000000000000000000000008152600401611f3690613ddc565b60405180910390fd5b426035826001015481548110611f7e577f4e487b7100000000000000000000000000000000000000000000000000000000600052603260045260246000fd5b9060005260206000209060030201600101548260050154611f9f9190614274565b10611fdf576040517f08c379a0000000000000000000000000000000000000000000000000000000008152600401611fd690613ebc565b60405180910390fd5b60036005811115612019577f4e487b7100000000000000000000000000000000000000000000000000000000600052602160045260246000fd5b612022836104eb565b600581111561205a577f4e487b7100000000000000000000000000000000000000000000000000000000600052602160045260246000fd5b141561206f57612069826129b2565b506123c8565b6000808260020160009054906101000a900473ffffffffffffffffffffffffffffffffffffffff1673ffffffffffffffffffffffffffffffffffffffff1683600401548460060154856003016040516120c89190613aca565b600060405180830381858888f193505050503d8060008114612106576040519150601f19603f3d011682016040523d82523d6000602084013e61210b565b606091505b5091509150837fbbb9534b79cda5e36feb34cc697d5e728db1a530363e152c539fb70b3f75f7ac8383604051612142929190613cb6565b60405180910390a281156121a85760018360070160006101000a81548160ff0219169083600581111561219e577f4e487b7100000000000000000000000000000000000000000000000000000000600052602160045260246000fd5b02179055506121fc565b60028360070160006101000a81548160ff021916908360058111156121f6577f4e487b7100000000000000000000000000000000000000000000000000000000600052602160045260246000fd5b02179055505b603583600101548154811061223a577f4e487b7100000000000000000000000000000000000000000000000000000000600052603260045260246000fd5b906000526020600020906003020160020160009054906101000a900473ffffffffffffffffffffffffffffffffffffffff1673ffffffffffffffffffffffffffffffffffffffff1663a9059cbb603460009054906101000a900473ffffffffffffffffffffffffffffffffffffffff1660358660010154815481106122e8577f4e487b7100000000000000000000000000000000000000000000000000000000600052603260045260246000fd5b9060005260206000209060030201600001546040518363ffffffff167c0100000000000000000000000000000000000000000000000000000000028152600401612333929190613b33565b602060405180830381600087803b15801561234d57600080fd5b505af1158015612361573d6000803e3d6000fd5b505050506040513d601f19601f820116820180604052508101906123859190613061565b6123c4576040517f08c379a00000000000000000000000000000000000000000000000000000000081526004016123bb90613d5c565b60405180910390fd5b5050505b6001808190555050565b600060019054906101000a900460ff16806123f8575060008054906101000a900460ff16155b612437576040517f08c379a000000000000000000000000000000000000000000000000000000000815260040161242e90613e3c565b60405180910390fd5b60008060019054906101000a900460ff161590508015612487576001600060016101000a81548160ff02191690831515021790555060016000806101000a81548160ff0219169083151502179055505b61248f612b1f565b80156124b05760008060016101000a81548160ff0219169083151502179055505b50565b603582815481106124ed577f4e487b7100000000000000000000000000000000000000000000000000000000600052603260045260246000fd5b906000526020600020906003020160020160149054906101000a900460ff1661254b576040517f08c379a000000000000000000000000000000000000000000000000000000000815260040161254290613f1c565b60405180910390fd5b80603660008573ffffffffffffffffffffffffffffffffffffffff1673ffffffffffffffffffffffffffffffffffffffff168152602001908152602001600020600084815260200190815260200160002060008282546125ab91906141c4565b925050819055508273ffffffffffffffffffffffffffffffffffffffff167f1d00f3ff8ba6a0ac98e7c747985ac34f1f706f5d0fa06abaa4c090a60598a65d83836040516125fa929190613fce565b60405180910390a2505050565b600060358381548110612643577f4e487b7100000000000000000000000000000000000000000000000000000000600052603260045260246000fd5b90600052602060002090600302016000015482612660919061421a565b905092915050565b6000816000015173ffffffffffffffffffffffffffffffffffffffff163373ffffffffffffffffffffffffffffffffffffffff16146126dc576040517f08c379a00000000000000000000000000000000000000000000000000000000081526004016126d390613d3c565b60405180910390fd5b6000603660003373ffffffffffffffffffffffffffffffffffffffff1673ffffffffffffffffffffffffffffffffffffffff1681526020019081526020016000206000846020015181526020019081526020016000205411612773576040517f08c379a000000000000000000000000000000000000000000000000000000000815260040161276a90613d9c565b60405180910390fd5b8160a001514211156127ba576040517f08c379a00000000000000000000000000000000000000000000000000000000081526004016127b190613e9c565b60405180910390fd5b6001603660003373ffffffffffffffffffffffffffffffffffffffff1673ffffffffffffffffffffffffffffffffffffffff168152602001908152602001600020600084602001518152602001908152602001600020600082825461281f9190614274565b9250508190555061282f8261128a565b9050816037600083815260200190815260200160002060008201518160000160006101000a81548173ffffffffffffffffffffffffffffffffffffffff021916908373ffffffffffffffffffffffffffffffffffffffff1602179055506020820151816001015560408201518160020160006101000a81548173ffffffffffffffffffffffffffffffffffffffff021916908373ffffffffffffffffffffffffffffffffffffffff16021790555060608201518160030190805190602001906128f9929190612bff565b506080820151816004015560a0820151816005015560c0820151816006015560e08201518160070160006101000a81548160ff02191690836005811115612969577f4e487b7100000000000000000000000000000000000000000000000000000000600052602160045260246000fd5b0217905550905050807fb19e7bab761c1d438a654faa449e3736081f6c0e0a0786ddd4d31853845283208360a001516040516129a59190613f7c565b60405180910390a2919050565b60006037600083815260200190815260200160002090506001603660008360000160009054906101000a900473ffffffffffffffffffffffffffffffffffffffff1673ffffffffffffffffffffffffffffffffffffffff1673ffffffffffffffffffffffffffffffffffffffff1681526020019081526020016000206000836001015481526020019081526020016000206000828254612a5291906141c4565b9250508190555060048160070160006101000a81548160ff02191690836005811115612aa7577f4e487b7100000000000000000000000000000000000000000000000000000000600052602160045260246000fd5b02179055508060000160009054906101000a900473ffffffffffffffffffffffffffffffffffffffff1673ffffffffffffffffffffffffffffffffffffffff166108fc82600601549081150290604051600060405180830381858888f19350505050158015612b1a573d6000803e3d6000fd5b505050565b600060019054906101000a900460ff1680612b45575060008054906101000a900460ff16155b612b84576040517f08c379a0000000000000000000000000000000000000000000000000000000008152600401612b7b90613e3c565b60405180910390fd5b60008060019054906101000a900460ff161590508015612bd4576001600060016101000a81548160ff02191690831515021790555060016000806101000a81548160ff0219169083151502179055505b600180819055508015612bfc5760008060016101000a81548160ff0219169083151502179055505b50565b828054612c0b906143a9565b90600052602060002090601f016020900481019282612c2d5760008555612c74565b82601f10612c4657805160ff1916838001178555612c74565b82800160010185558215612c74579182015b82811115612c73578251825591602001919060010190612c58565b5b509050612c819190612c85565b5090565b5b80821115612c9e576000816000905550600101612c86565b5090565b6000612cb5612cb0846140c4565b614093565b905082815260208101848484011115612ccd57600080fd5b612cd8848285614367565b509392505050565b600081359050612cef81614505565b92915050565b600081359050612d048161451c565b92915050565b60008083601f840112612d1c57600080fd5b8235905067ffffffffffffffff811115612d3557600080fd5b602083019150836020820283011115612d4d57600080fd5b9250929050565b600081519050612d6381614533565b92915050565b600081359050612d788161454a565b92915050565b60008083601f840112612d9057600080fd5b8235905067ffffffffffffffff811115612da957600080fd5b602083019150836001820283011115612dc157600080fd5b9250929050565b600082601f830112612dd957600080fd5b8135612de9848260208601612ca2565b91505092915050565b600081359050612e0181614561565b92915050565b600081359050612e1681614578565b92915050565b60006101008284031215612e2f57600080fd5b612e3a610100614093565b90506000612e4a84828501612ce0565b6000830152506020612e5e84828501612efa565b6020830152506040612e7284828501612ce0565b604083015250606082013567ffffffffffffffff811115612e9257600080fd5b612e9e84828501612dc8565b6060830152506080612eb284828501612efa565b60808301525060a0612ec684828501612efa565b60a08301525060c0612eda84828501612efa565b60c08301525060e0612eee84828501612e07565b60e08301525092915050565b600081359050612f0981614588565b92915050565b600060208284031215612f2157600080fd5b6000612f2f84828501612ce0565b91505092915050565b60008060408385031215612f4b57600080fd5b6000612f5985828601612ce0565b9250506020612f6a85828601612ce0565b9150509250929050565b60008060408385031215612f8757600080fd5b6000612f9585828601612ce0565b9250506020612fa685828601612efa565b9150509250929050565b60008060008060608587031215612fc657600080fd5b6000612fd487828801612ce0565b9450506020612fe587828801612efa565b935050604085013567ffffffffffffffff81111561300257600080fd5b61300e87828801612d7e565b925092505092959194509250565b6000806020838503121561302f57600080fd5b600083013567ffffffffffffffff81111561304957600080fd5b61305585828601612d0a565b92509250509250929050565b60006020828403121561307357600080fd5b600061308184828501612d54565b91505092915050565b60006020828403121561309c57600080fd5b60006130aa84828501612d69565b91505092915050565b6000602082840312156130c557600080fd5b600082013567ffffffffffffffff8111156130df57600080fd5b6130eb84828501612e1c565b91505092915050565b60006020828403121561310657600080fd5b600061311484828501612efa565b91505092915050565b60008060008060008060c0878903121561313657600080fd5b600061314489828a01612efa565b965050602061315589828a01612cf5565b955050604087013567ffffffffffffffff81111561317257600080fd5b61317e89828a01612dc8565b945050606061318f89828a01612efa565b93505060806131a089828a01612efa565b92505060a06131b189828a01612efa565b9150509295509295509295565b60008060008060008060a087890312156131d757600080fd5b60006131e589828a01612efa565b96505060206131f689828a01612ce0565b955050604087013567ffffffffffffffff81111561321357600080fd5b61321f89828a01612d7e565b9450945050606061323289828a01612efa565b925050608061324389828a01612efa565b9150509295509295509295565b6000806040838503121561326357600080fd5b600061327185828601612efa565b925050602061328285828601612efa565b9150509250929050565b6000806000606084860312156132a157600080fd5b60006132af86828701612efa565b93505060206132c086828701612efa565b92505060406132d186828701612df2565b9150509250925092565b60006132e783836133f8565b60208301905092915050565b60006132ff838361343b565b905092915050565b613310816142a8565b82525050565b600061332182614129565b61332b8185614164565b9350613336836140f4565b8060005b8381101561336757815161334e88826132db565b97506133598361414a565b92505060018101905061333a565b5085935050505092915050565b600061337f82614134565b6133898185614175565b93508360208202850161339b85614104565b8060005b858110156133d757848403895281516133b885826132f3565b94506133c383614157565b925060208a0199505060018101905061339f565b50829750879550505050505092915050565b6133f2816142cc565b82525050565b613401816142d8565b82525050565b613410816142d8565b82525050565b600061342283856141a8565b935061342f838584614367565b82840190509392505050565b60006134468261413f565b6134508185614186565b9350613460818560208601614376565b613469816144e0565b840191505092915050565b600061347f8261413f565b6134898185614197565b9350613499818560208601614376565b6134a2816144e0565b840191505092915050565b600081546134ba816143a9565b6134c481866141a8565b945060018216600081146134df57600181146134f057613523565b60ff19831686528186019350613523565b6134f985614114565b60005b8381101561351b578154818901526001820191506020810190506134fc565b838801955050505b50505092915050565b61353581614331565b82525050565b61354481614355565b82525050565b6000613557601c836141b3565b91507f54686520706c616e20697320616c726561647920696e616374697665000000006000830152602082019050919050565b60006135976011836141b3565b91507f4e6f742074686520726571756573746f720000000000000000000000000000006000830152602082019050919050565b60006135d7601a836141b3565b91507f436f756c646e2774207472616e7366657220746f2070617965650000000000006000830152602082019050919050565b60006136176019836141b3565b91507f5472616e73616374696f6e206e6f74207363686564756c6564000000000000006000830152602082019050919050565b60006136576014836141b3565b91507f4e6f2062616c616e636520617661696c61626c650000000000000000000000006000830152602082019050919050565b60006136976009836141b3565b91507f42616420746f6b656e00000000000000000000000000000000000000000000006000830152602082019050919050565b60006136d76010836141b3565b91507f416c7265616479206578656375746564000000000000000000000000000000006000830152602082019050919050565b60006137176012836141b3565b91507f5061796d656e74206469642774207061737300000000000000000000000000006000830152602082019050919050565b6000613757602f836141b3565b91507f5472616e7366657272656420616d6f756e7420646f65736e2774206d6174636860008301527f20746f74616c20707572636861736500000000000000000000000000000000006020830152604082019050919050565b60006137bd602e836141b3565b91507f496e697469616c697a61626c653a20636f6e747261637420697320616c72656160008301527f647920696e697469616c697a65640000000000000000000000000000000000006020830152604082019050919050565b60006138236024836141b3565b91507f457865637574696f6e7320746f74616c2076616c756520646f65736e2774206d60008301527f61746368000000000000000000000000000000000000000000000000000000006020830152604082019050919050565b60006138896026836141b3565b91507f536572766963652070726f766964657220616464726573732063616e6e6f742060008301527f62652030783000000000000000000000000000000000000000000000000000006020830152604082019050919050565b60006138ef601e836141b3565b91507f43616e6e6f74207363686564756c6520697420696e20746865207061737400006000830152602082019050919050565b600061392f6008836141b3565b91507f546f6f20736f6f6e0000000000000000000000000000000000000000000000006000830152602082019050919050565b600061396f601b836141b3565b91507f546f6b656e20616464726573732063616e6e6f742062652030783000000000006000830152602082019050919050565b60006139af601b836141b3565b91507f506179656520616464726573732063616e6e6f742062652030783000000000006000830152602082019050919050565b60006139ef600d836141b3565b91507f496e61637469766520706c616e000000000000000000000000000000000000006000830152602082019050919050565b6000613a2f601f836141b3565b91507f5265656e7472616e637947756172643a207265656e7472616e742063616c6c006000830152602082019050919050565b6000613a6f600e836141b3565b91507f4e6f7420617574686f72697a65640000000000000000000000000000000000006000830152602082019050919050565b613aab81614327565b82525050565b6000613abe828486613416565b91508190509392505050565b6000613ad682846134ad565b915081905092915050565b6000602082019050613af66000830184613307565b92915050565b6000606082019050613b116000830186613307565b613b1e6020830185613307565b613b2b6040830184613aa2565b949350505050565b6000604082019050613b486000830185613307565b613b556020830184613aa2565b9392505050565b600060e082019050613b71600083018a613307565b613b7e6020830189613aa2565b613b8b6040830188613307565b8181036060830152613b9d8187613474565b9050613bac6080830186613aa2565b613bb960a0830185613aa2565b613bc660c0830184613aa2565b98975050505050505050565b600061010082019050613be8600083018b613307565b613bf5602083018a613aa2565b613c026040830189613307565b8181036060830152613c148188613474565b9050613c236080830187613aa2565b613c3060a0830186613aa2565b613c3d60c0830185613aa2565b613c4a60e083018461353b565b9998505050505050505050565b60006020820190508181036000830152613c718184613316565b905092915050565b60006020820190508181036000830152613c938184613374565b905092915050565b6000602082019050613cb060008301846133e9565b92915050565b6000604082019050613ccb60008301856133e9565b8181036020830152613cdd8184613474565b90509392505050565b6000602082019050613cfb6000830184613407565b92915050565b6000602082019050613d16600083018461353b565b92915050565b60006020820190508181036000830152613d358161354a565b9050919050565b60006020820190508181036000830152613d558161358a565b9050919050565b60006020820190508181036000830152613d75816135ca565b9050919050565b60006020820190508181036000830152613d958161360a565b9050919050565b60006020820190508181036000830152613db58161364a565b9050919050565b60006020820190508181036000830152613dd58161368a565b9050919050565b60006020820190508181036000830152613df5816136ca565b9050919050565b60006020820190508181036000830152613e158161370a565b9050919050565b60006020820190508181036000830152613e358161374a565b9050919050565b60006020820190508181036000830152613e55816137b0565b9050919050565b60006020820190508181036000830152613e7581613816565b9050919050565b60006020820190508181036000830152613e958161387c565b9050919050565b60006020820190508181036000830152613eb5816138e2565b9050919050565b60006020820190508181036000830152613ed581613922565b9050919050565b60006020820190508181036000830152613ef581613962565b9050919050565b60006020820190508181036000830152613f15816139a2565b9050919050565b60006020820190508181036000830152613f35816139e2565b9050919050565b60006020820190508181036000830152613f5581613a22565b9050919050565b60006020820190508181036000830152613f7581613a62565b9050919050565b6000602082019050613f916000830184613aa2565b92915050565b6000606082019050613fac6000830186613aa2565b613fb96020830185613307565b613fc66040830184613aa2565b949350505050565b6000604082019050613fe36000830185613aa2565b613ff06020830184613aa2565b9392505050565b600060808201905061400c6000830187613aa2565b6140196020830186613aa2565b614026604083018561352c565b61403360608301846133e9565b95945050505050565b6000808335600160200384360303811261405557600080fd5b80840192508235915067ffffffffffffffff82111561407357600080fd5b60208301925060018202360383131561408b57600080fd5b509250929050565b6000604051905081810181811067ffffffffffffffff821117156140ba576140b96144b1565b5b8060405250919050565b600067ffffffffffffffff8211156140df576140de6144b1565b5b601f19601f8301169050602081019050919050565b6000819050602082019050919050565b6000819050602082019050919050565b60008190508160005260206000209050919050565b600081519050919050565b600081519050919050565b600081519050919050565b6000602082019050919050565b6000602082019050919050565b600082825260208201905092915050565b600082825260208201905092915050565b600082825260208201905092915050565b600082825260208201905092915050565b600081905092915050565b600082825260208201905092915050565b60006141cf82614327565b91506141da83614327565b9250827fffffffffffffffffffffffffffffffffffffffffffffffffffffffffffffffff0382111561420f5761420e614424565b5b828201905092915050565b600061422582614327565b915061423083614327565b9250817fffffffffffffffffffffffffffffffffffffffffffffffffffffffffffffffff048311821515161561426957614268614424565b5b828202905092915050565b600061427f82614327565b915061428a83614327565b92508282101561429d5761429c614424565b5b828203905092915050565b60006142b382614307565b9050919050565b60006142c582614307565b9050919050565b60008115159050919050565b6000819050919050565b60006142ed826142a8565b9050919050565b6000819050614302826144f1565b919050565b600073ffffffffffffffffffffffffffffffffffffffff82169050919050565b6000819050919050565b600061433c82614343565b9050919050565b600061434e82614307565b9050919050565b6000614360826142f4565b9050919050565b82818337600083830152505050565b60005b83811015614394578082015181840152602081019050614379565b838111156143a3576000848401525b50505050565b600060028204905060018216806143c157607f821691505b602082108114156143d5576143d4614482565b5b50919050565b60006143e682614327565b91507fffffffffffffffffffffffffffffffffffffffffffffffffffffffffffffffff82141561441957614418614424565b5b600182019050919050565b7f4e487b7100000000000000000000000000000000000000000000000000000000600052601160045260246000fd5b7f4e487b7100000000000000000000000000000000000000000000000000000000600052602160045260246000fd5b7f4e487b7100000000000000000000000000000000000000000000000000000000600052602260045260246000fd5b7f4e487b7100000000000000000000000000000000000000000000000000000000600052604160045260246000fd5b6000601f19601f8301169050919050565b6006811061450257614501614453565b5b50565b61450e816142a8565b811461451957600080fd5b50565b614525816142ba565b811461453057600080fd5b50565b61453c816142cc565b811461454757600080fd5b50565b614553816142d8565b811461455e57600080fd5b50565b61456a816142e2565b811461457557600080fd5b50565b6006811061458557600080fd5b50565b61459181614327565b811461459c57600080fd5b5056fea264697066735822122021240022afb0caca767366e85315fc3cc927d88b1e2a687c22745b1a2fe86b2664736f6c63430008000033",
  "immutableReferences": {
    "104": [
      {
        "length": 32,
        "start": 6100
      }
    ]
  },
  "source": "// SPDX-License-Identifier: MIT\npragma solidity ^0.8.0;\nimport '@rsksmart/erc677/contracts/IERC677.sol';\nimport '@rsksmart/erc677/contracts/IERC677TransferReceiver.sol';\nimport '@openzeppelin/contracts-upgradeable/proxy/utils/Initializable.sol';\nimport '@openzeppelin/contracts-upgradeable/security/ReentrancyGuardUpgradeable.sol';\n\ncontract OneShotSchedule is IERC677TransferReceiver, Initializable, ReentrancyGuardUpgradeable {\n  enum ExecutionState { Scheduled, ExecutionSuccessful, ExecutionFailed, Overdue, Refunded, Cancelled }\n  // State transitions for scheduled executions:\n  //   Scheduled -> Cancelled (requestor cancelled execution)\n  //   Scheduled -> ExecutionSuccessful (call was executed in the given time and did not fail)\n  //   Scheduled -> ExecutionFailed (call was executed in the given time but failed)\n  //   Scheduled -> Overdue (execution window has passed, expected earlier)\n  //   Overdue -> Refunded (refund for overdue execution paid)\n\n  struct Execution {\n    address requestor;\n    uint256 plan;\n    address to;\n    bytes data;\n    uint256 gas;\n    uint256 timestamp;\n    uint256 value;\n    ExecutionState state;\n  }\n\n  struct Plan {\n    uint256 pricePerExecution;\n    uint256 window;\n    IERC677 token;\n    bool active;\n  }\n\n  address public serviceProvider;\n  address public payee;\n\n  Plan[] public plans;\n\n  mapping(address => mapping(uint256 => uint256)) public remainingExecutions;\n  mapping(bytes32 => Execution) private executions;\n\n  address private immutable self = address(this);\n\n  event PlanAdded(uint256 indexed index, uint256 price, address token, uint256 window);\n  event PlanRemoved(uint256 indexed index);\n\n  event ExecutionPurchased(address indexed requestor, uint256 plan, uint256 amount);\n  event ExecutionRequested(bytes32 indexed id, uint256 timestamp);\n  event Executed(bytes32 indexed id, bool success, bytes result);\n  event ExecutionCancelled(bytes32 indexed id);\n\n  modifier onlyProvider() {\n    require(address(msg.sender) == serviceProvider, 'Not authorized');\n    _;\n  }\n\n  function initialize(address serviceProvider_, address payee_) external initializer {\n    __ReentrancyGuard_init();\n    require(payee_ != address(0x0), 'Payee address cannot be 0x0');\n    require(serviceProvider_ != address(0x0), 'Service provider address cannot be 0x0');\n    serviceProvider = serviceProvider_;\n    payee = payee_;\n  }\n\n  ///////////\n  // ADMIN //\n  ///////////\n\n  function addPlan(\n    uint256 price,\n    uint256 window,\n    IERC677 token\n  ) external onlyProvider {\n    require(address(token) != address(0x0), 'Token address cannot be 0x0');\n    plans.push(Plan(price, window, token, true));\n    emit PlanAdded(plans.length - 1, price, address(token), window);\n  }\n\n  function removePlan(uint256 plan) external onlyProvider {\n    require(plans[plan].active, 'The plan is already inactive');\n    plans[plan].active = false;\n    emit PlanRemoved(plan);\n  }\n\n  function plansCount() external view returns (uint256) {\n    return plans.length;\n  }\n\n  function setPayee(address payee_) external onlyProvider {\n    require(payee_ != address(0x0), 'Payee address cannot be 0x0');\n    payee = payee_;\n  }\n\n  //////////////\n  // PURCHASE //\n  //////////////\n\n  function totalPrice(uint256 plan, uint256 quantity) private view returns (uint256) {\n    return quantity * plans[plan].pricePerExecution;\n  }\n\n  function doPurchase(\n    address requestor,\n    uint256 plan,\n    uint256 amount\n  ) private {\n    require(plans[plan].active, 'Inactive plan');\n    remainingExecutions[requestor][plan] += amount;\n    emit ExecutionPurchased(requestor, plan, amount);\n  }\n\n  // purcahse with ERC-20\n  function purchase(uint256 plan, uint256 quantity) external {\n    doPurchase(msg.sender, plan, quantity);\n\n    require(plans[plan].token.transferFrom(msg.sender, address(this), totalPrice(plan, quantity)), \"Payment did't pass\");\n  }\n\n  // purcahse with ERC-677\n  function tokenFallback(\n    address from,\n    uint256 amount,\n    bytes calldata data\n  ) external override returns (bool) {\n    (uint256 plan, uint256 quantity) = abi.decode(data, (uint256, uint256));\n\n    require(address(plans[plan].token) == address(msg.sender), 'Bad token');\n    require(amount == totalPrice(plan, quantity), \"Transferred amount doesn't match total purchase\");\n\n    doPurchase(from, plan, quantity);\n    return true;\n  }\n\n  ////////////////\n  // SCHEDULING //\n  ////////////////\n\n  // slither-disable-next-line timestamp\n  function getState(bytes32 id) public view returns (ExecutionState) {\n    Execution memory execution = executions[id];\n    if (execution.state == ExecutionState.Scheduled && ((execution.timestamp + plans[execution.plan].window) < block.timestamp)) {\n      return ExecutionState.Overdue;\n    } else {\n      return execution.state;\n    }\n  }\n\n  function hash(Execution memory execution) public pure returns (bytes32) {\n    return\n      keccak256(\n        abi.encode(execution.requestor, execution.plan, execution.to, execution.data, execution.gas, execution.timestamp, execution.value)\n      );\n  }\n\n  function _schedule(Execution memory execution) private returns (bytes32 id) {\n    require(msg.sender == execution.requestor, 'Not the requestor'); // just in case\n    require(remainingExecutions[msg.sender][execution.plan] > 0, 'No balance available');\n    // This is only to prevent errors, doesn't need to be exact\n    // timestamp manipulation should be considered in the window by the service provider\n    // slither-disable-next-line timestamp\n    require(block.timestamp <= execution.timestamp, 'Cannot schedule it in the past');\n    remainingExecutions[msg.sender][execution.plan] -= 1;\n    id = hash(execution);\n    executions[id] = execution;\n    emit ExecutionRequested(id, execution.timestamp);\n  }\n\n  function schedule(\n    uint256 plan,\n    address to,\n    bytes calldata data,\n    uint256 gas,\n    uint256 timestamp\n  ) external payable returns (bytes32 id) {\n    Execution memory execution = Execution(msg.sender, plan, to, data, gas, timestamp, msg.value, ExecutionState.Scheduled);\n    return (_schedule(execution));\n  }\n\n  function batchSchedule(bytes[] calldata data) external payable returns (bytes32[] memory ids) {\n    uint256 totalValue = 0;\n    ids = new bytes32[](data.length);\n    for (uint256 i = 0; i < data.length; i++) {\n      (uint256 plan, address to, bytes memory txData, uint256 gas, uint256 timestamp, uint256 value) =\n        abi.decode(data[i], (uint256, address, bytes, uint256, uint256, uint256));\n      totalValue += value;\n      ids[i] = _schedule(Execution(msg.sender, plan, to, txData, gas, timestamp, value, ExecutionState.Scheduled));\n    }\n    require(totalValue == msg.value, \"Executions total value doesn't match\");\n  }\n\n  function getSchedule(bytes32 id)\n    external\n    view\n    returns (\n      address requestor,\n      uint256 plan,\n      address to,\n      bytes memory data,\n      uint256 gas,\n      uint256 timestamp,\n      uint256 value,\n      ExecutionState state\n    )\n  {\n    Execution memory execution = executions[id];\n\n    requestor = execution.requestor;\n    plan = execution.plan;\n    to = execution.to;\n    data = execution.data;\n    gas = execution.gas;\n    timestamp = execution.timestamp;\n    value = execution.value;\n    state = getState(id);\n  }\n\n  function cancelScheduling(bytes32 id) external {\n    Execution storage execution = executions[id];\n\n    require(getState(id) == ExecutionState.Scheduled, 'Transaction not scheduled');\n    require(msg.sender == execution.requestor, 'Not authorized');\n\n    execution.state = ExecutionState.Cancelled;\n    remainingExecutions[execution.requestor][execution.plan] += 1;\n    emit ExecutionCancelled(id);\n    payable(execution.requestor).transfer(execution.value);\n  }\n\n  ///////////////\n  // EXECUTION //\n  ///////////////\n  function refund(bytes32 id) private {\n    Execution storage execution = executions[id];\n    remainingExecutions[execution.requestor][execution.plan] += 1;\n    execution.state = ExecutionState.Refunded;\n    payable(execution.requestor).transfer(execution.value);\n  }\n\n  // The nonReentrant prevents this contract to be call again when the low level call is executed\n  // timestamp manipulation should be considered in the window by the service provider\n  // slither-disable-next-line timestamp\n  function execute(bytes32 id) external nonReentrant {\n    Execution storage execution = executions[id];\n\n    require(execution.state == ExecutionState.Scheduled, 'Already executed');\n    // timestamp manipulation should be considered in the window by the service provider\n    // slither-disable-next-line timestamp\n    require((execution.timestamp - plans[execution.plan].window) < block.timestamp, 'Too soon');\n\n    if (getState(id) == ExecutionState.Overdue) {\n      refund(id);\n      return;\n    }\n\n    // The contract makes an external call to execute the scheduled transaction on the specified contract.\n    // It needs to get the execution result before emitting the event and changing the matatransaction state.\n    // slither-disable-next-line low-level-calls\n    (bool success, bytes memory result) = payable(execution.to).call{ gas: execution.gas, value: execution.value }(execution.data);\n\n    // reentrancy prevented by nonReentrant modifier\n    // slither-disable-next-line reentrancy-events\n    emit Executed(id, success, result);\n\n    if (success) {\n      // reentrancy prevented by nonReentrant modifier\n      // slither-disable-next-line reentrancy-eth\n      execution.state = ExecutionState.ExecutionSuccessful;\n    } else {\n      // reentrancy prevented by nonReentrant modifier\n      // slither-disable-next-line reentrancy-eth\n      execution.state = ExecutionState.ExecutionFailed;\n    }\n\n    require(plans[execution.plan].token.transfer(payee, plans[execution.plan].pricePerExecution), \"Couldn't transfer to payee\");\n  }\n\n  function multicall(bytes[] calldata data) external returns (bytes[] memory results) {\n    require(address(this) != self); //This makes safe the use of delegatedcall, making it only viable on the proxy\n    results = new bytes[](data.length);\n    for (uint256 i = 0; i < data.length; i++) {\n      (bool success, bytes memory result) = address(this).delegatecall(data[i]);\n      require(success);\n      results[i] = result;\n    }\n    return results;\n  }\n}\n",
  "sourcePath": "/Users/diegograsso/dev/rif-scheduler-contracts-poc/contracts/OneShotSchedule.sol",
  "compiler": {
    "name": "solc",
    "version": "0.8.0+commit.c7dfd78e.Emscripten.clang"
  },
  "schemaVersion": "3.3.4",
  "updatedAt": "2021-05-27T17:46:24.992Z",
  "devdoc": {
    "kind": "dev",
    "methods": {},
    "version": 1
  },
  "userdoc": {
    "kind": "user",
    "methods": {},
    "version": 1
  }
}