{
  "contractName": "OneShotSchedule",
  "abi": [
    {
      "anonymous": false,
      "inputs": [
        {
          "indexed": true,
          "internalType": "bytes32",
          "name": "id",
          "type": "bytes32"
        },
        {
          "indexed": false,
          "internalType": "bool",
          "name": "success",
          "type": "bool"
        },
        {
          "indexed": false,
          "internalType": "bytes",
          "name": "result",
          "type": "bytes"
        }
      ],
      "name": "Executed",
      "type": "event"
    },
    {
      "anonymous": false,
      "inputs": [
        {
          "indexed": true,
          "internalType": "bytes32",
          "name": "id",
          "type": "bytes32"
        }
      ],
      "name": "ExecutionCancelled",
      "type": "event"
    },
    {
      "anonymous": false,
      "inputs": [
        {
          "indexed": true,
          "internalType": "address",
          "name": "requestor",
          "type": "address"
        },
        {
          "indexed": false,
          "internalType": "uint256",
          "name": "plan",
          "type": "uint256"
        },
        {
          "indexed": false,
          "internalType": "uint256",
          "name": "amount",
          "type": "uint256"
        }
      ],
      "name": "ExecutionPurchased",
      "type": "event"
    },
    {
      "anonymous": false,
      "inputs": [
        {
          "indexed": true,
          "internalType": "bytes32",
          "name": "id",
          "type": "bytes32"
        }
      ],
      "name": "ExecutionRequested",
      "type": "event"
    },
    {
      "anonymous": false,
      "inputs": [
        {
          "indexed": true,
          "internalType": "uint256",
          "name": "index",
          "type": "uint256"
        },
        {
          "indexed": false,
          "internalType": "uint256",
          "name": "price",
          "type": "uint256"
        },
        {
          "indexed": false,
          "internalType": "address",
          "name": "token",
          "type": "address"
        },
        {
          "indexed": false,
          "internalType": "uint256",
          "name": "window",
          "type": "uint256"
        }
      ],
      "name": "PlanAdded",
      "type": "event"
    },
    {
      "anonymous": false,
      "inputs": [
        {
          "indexed": true,
          "internalType": "uint256",
          "name": "index",
          "type": "uint256"
        }
      ],
      "name": "PlanRemoved",
      "type": "event"
    },
    {
      "inputs": [],
      "name": "payee",
      "outputs": [
        {
          "internalType": "address",
          "name": "",
          "type": "address"
        }
      ],
      "stateMutability": "view",
      "type": "function"
    },
    {
      "inputs": [
        {
          "internalType": "uint256",
          "name": "",
          "type": "uint256"
        }
      ],
      "name": "plans",
      "outputs": [
        {
          "internalType": "uint256",
          "name": "pricePerExecution",
          "type": "uint256"
        },
        {
          "internalType": "uint256",
          "name": "window",
          "type": "uint256"
        },
        {
          "internalType": "contract IERC677",
          "name": "token",
          "type": "address"
        },
        {
          "internalType": "bool",
          "name": "active",
          "type": "bool"
        }
      ],
      "stateMutability": "view",
      "type": "function"
    },
    {
      "inputs": [
        {
          "internalType": "address",
          "name": "",
          "type": "address"
        },
        {
          "internalType": "uint256",
          "name": "",
          "type": "uint256"
        }
      ],
      "name": "remainingExecutions",
      "outputs": [
        {
          "internalType": "uint256",
          "name": "",
          "type": "uint256"
        }
      ],
      "stateMutability": "view",
      "type": "function"
    },
    {
      "inputs": [],
      "name": "serviceProvider",
      "outputs": [
        {
          "internalType": "address",
          "name": "",
          "type": "address"
        }
      ],
      "stateMutability": "view",
      "type": "function"
    },
    {
      "inputs": [
        {
          "internalType": "address",
          "name": "serviceProvider_",
          "type": "address"
        },
        {
          "internalType": "address",
          "name": "payee_",
          "type": "address"
        }
      ],
      "name": "initialize",
      "outputs": [],
      "stateMutability": "nonpayable",
      "type": "function"
    },
    {
      "inputs": [
        {
          "internalType": "uint256",
          "name": "price",
          "type": "uint256"
        },
        {
          "internalType": "uint256",
          "name": "window",
          "type": "uint256"
        },
        {
          "internalType": "contract IERC677",
          "name": "token",
          "type": "address"
        }
      ],
      "name": "addPlan",
      "outputs": [],
      "stateMutability": "nonpayable",
      "type": "function"
    },
    {
      "inputs": [
        {
          "internalType": "uint256",
          "name": "plan",
          "type": "uint256"
        }
      ],
      "name": "removePlan",
      "outputs": [],
      "stateMutability": "nonpayable",
      "type": "function"
    },
    {
      "inputs": [
        {
          "internalType": "address",
          "name": "payee_",
          "type": "address"
        }
      ],
      "name": "setPayee",
      "outputs": [],
      "stateMutability": "nonpayable",
      "type": "function"
    },
    {
      "inputs": [
        {
          "internalType": "uint256",
          "name": "plan",
          "type": "uint256"
        },
        {
          "internalType": "uint256",
          "name": "quantity",
          "type": "uint256"
        }
      ],
      "name": "purchase",
      "outputs": [],
      "stateMutability": "nonpayable",
      "type": "function"
    },
    {
      "inputs": [
        {
          "internalType": "address",
          "name": "from",
          "type": "address"
        },
        {
          "internalType": "uint256",
          "name": "amount",
          "type": "uint256"
        },
        {
          "internalType": "bytes",
          "name": "data",
          "type": "bytes"
        }
      ],
      "name": "tokenFallback",
      "outputs": [
        {
          "internalType": "bool",
          "name": "",
          "type": "bool"
        }
      ],
      "stateMutability": "nonpayable",
      "type": "function"
    },
    {
      "inputs": [
        {
          "internalType": "bytes32",
          "name": "id",
          "type": "bytes32"
        }
      ],
      "name": "getState",
      "outputs": [
        {
          "internalType": "enum OneShotSchedule.ExecutionState",
          "name": "",
          "type": "uint8"
        }
      ],
      "stateMutability": "view",
      "type": "function"
    },
    {
      "inputs": [
        {
          "components": [
            {
              "internalType": "address",
              "name": "requestor",
              "type": "address"
            },
            {
              "internalType": "uint256",
              "name": "plan",
              "type": "uint256"
            },
            {
              "internalType": "address",
              "name": "to",
              "type": "address"
            },
            {
              "internalType": "bytes",
              "name": "data",
              "type": "bytes"
            },
            {
              "internalType": "uint256",
              "name": "gas",
              "type": "uint256"
            },
            {
              "internalType": "uint256",
              "name": "timestamp",
              "type": "uint256"
            },
            {
              "internalType": "uint256",
              "name": "value",
              "type": "uint256"
            },
            {
              "internalType": "enum OneShotSchedule.ExecutionState",
              "name": "state",
              "type": "uint8"
            }
          ],
          "internalType": "struct OneShotSchedule.Execution",
          "name": "execution",
          "type": "tuple"
        }
      ],
      "name": "hash",
      "outputs": [
        {
          "internalType": "bytes32",
          "name": "",
          "type": "bytes32"
        }
      ],
      "stateMutability": "pure",
      "type": "function"
    },
    {
      "inputs": [
        {
          "internalType": "uint256",
          "name": "plan",
          "type": "uint256"
        },
        {
          "internalType": "address",
          "name": "to",
          "type": "address"
        },
        {
          "internalType": "bytes",
          "name": "data",
          "type": "bytes"
        },
        {
          "internalType": "uint256",
          "name": "gas",
          "type": "uint256"
        },
        {
          "internalType": "uint256",
          "name": "timestamp",
          "type": "uint256"
        }
      ],
      "name": "schedule",
      "outputs": [],
      "stateMutability": "payable",
      "type": "function"
    },
    {
      "inputs": [
        {
          "internalType": "bytes32",
          "name": "id",
          "type": "bytes32"
        }
      ],
      "name": "getSchedule",
      "outputs": [
        {
          "internalType": "address",
          "name": "",
          "type": "address"
        },
        {
          "internalType": "uint256",
          "name": "",
          "type": "uint256"
        },
        {
          "internalType": "address",
          "name": "",
          "type": "address"
        },
        {
          "internalType": "bytes",
          "name": "",
          "type": "bytes"
        },
        {
          "internalType": "uint256",
          "name": "",
          "type": "uint256"
        },
        {
          "internalType": "uint256",
          "name": "",
          "type": "uint256"
        },
        {
          "internalType": "uint256",
          "name": "",
          "type": "uint256"
        },
        {
          "internalType": "enum OneShotSchedule.ExecutionState",
          "name": "",
          "type": "uint8"
        }
      ],
      "stateMutability": "view",
      "type": "function"
    },
    {
      "inputs": [
        {
          "internalType": "bytes32",
          "name": "id",
          "type": "bytes32"
        }
      ],
      "name": "cancelScheduling",
      "outputs": [],
      "stateMutability": "nonpayable",
      "type": "function"
    },
    {
      "inputs": [
        {
          "internalType": "bytes32",
          "name": "id",
          "type": "bytes32"
        }
      ],
      "name": "execute",
      "outputs": [],
      "stateMutability": "nonpayable",
      "type": "function"
    }
  ],
  "bytecode": "0x608060405234801561001057600080fd5b50613acd806100206000396000f3fe608060405260043610610110576000357c01000000000000000000000000000000000000000000000000000000009004806373eab687116100a7578063b395bb4b11610076578063b395bb4b14610352578063c0ee0b8a1461038f578063debd4c3d146103cc578063e751f271146103f557610110565b806373eab687146102a05780638d69e95e146102bc578063ae90b213146102e7578063b16206161461031257610110565b8063485cc955116100e3578063485cc955146101e857806354ceba0a1461021157806358fa1d9d1461023a57806370876c981461027757610110565b806309648a9d1461011557806328e550e6146101525780633adc277a1461017b578063410459ad146101bf575b600080fd5b34801561012157600080fd5b5061013c60048036038101906101379190612a1e565b61041e565b6040516101499190613385565b60405180910390f35b34801561015e57600080fd5b5061017960048036038101906101749190612a88565b61072d565b005b34801561018757600080fd5b506101a2600480360381019061019d9190612a1e565b6108e8565b6040516101b698979695949392919061329a565b60405180910390f35b3480156101cb57600080fd5b506101e660048036038101906101e191906128e8565b610b53565b005b3480156101f457600080fd5b5061020f600480360381019061020a9190612911565b610c97565b005b34801561021d57600080fd5b5061023860048036038101906102339190612a1e565b610edc565b005b34801561024657600080fd5b50610261600480360381019061025c9190612a47565b6111c3565b60405161026e919061336a565b60405180910390f35b34801561028357600080fd5b5061029e60048036038101906102999190612b43565b61121b565b005b6102ba60048036038101906102b59190612ab1565b611388565b005b3480156102c857600080fd5b506102d1611731565b6040516102de91906131a9565b60405180910390f35b3480156102f357600080fd5b506102fc611757565b60405161030991906131a9565b60405180910390f35b34801561031e57600080fd5b5061033960048036038101906103349190612a88565b61177d565b604051610349949392919061363b565b60405180910390f35b34801561035e57600080fd5b506103796004803603810190610374919061294d565b6117ea565b60405161038691906135c0565b60405180910390f35b34801561039b57600080fd5b506103b660048036038101906103b19190612989565b61180f565b6040516103c3919061331f565b60405180910390f35b3480156103d857600080fd5b506103f360048036038101906103ee9190612b7f565b611964565b005b34801561040157600080fd5b5061041c60048036038101906104179190612a1e565b611b98565b005b60008060376000848152602001908152602001600020604051806101000160405290816000820160009054906101000a900473ffffffffffffffffffffffffffffffffffffffff1673ffffffffffffffffffffffffffffffffffffffff1673ffffffffffffffffffffffffffffffffffffffff168152602001600182015481526020016002820160009054906101000a900473ffffffffffffffffffffffffffffffffffffffff1673ffffffffffffffffffffffffffffffffffffffff1673ffffffffffffffffffffffffffffffffffffffff16815260200160038201805461050690613901565b80601f016020809104026020016040519081016040528092919081815260200182805461053290613901565b801561057f5780601f106105545761010080835404028352916020019161057f565b820191906000526020600020905b81548152906001019060200180831161056257829003601f168201915b505050505081526020016004820154815260200160058201548152602001600682015481526020016007820160009054906101000a900460ff1660058111156105f1577f4e487b7100000000000000000000000000000000000000000000000000000000600052602160045260246000fd5b6005811115610629577f4e487b7100000000000000000000000000000000000000000000000000000000600052602160045260246000fd5b81525050905060006005811115610669577f4e487b7100000000000000000000000000000000000000000000000000000000600052602160045260246000fd5b8160e0015160058111156106a6577f4e487b7100000000000000000000000000000000000000000000000000000000600052602160045260246000fd5b14801561071057504260358260200151815481106106ed577f4e487b7100000000000000000000000000000000000000000000000000000000600052603260045260246000fd5b9060005260206000209060030201600101548260a0015161070e919061372e565b105b1561071f576003915050610728565b8060e001519150505b919050565b603360009054906101000a900473ffffffffffffffffffffffffffffffffffffffff1673ffffffffffffffffffffffffffffffffffffffff163373ffffffffffffffffffffffffffffffffffffffff16146107bd576040517f08c379a00000000000000000000000000000000000000000000000000000000081526004016107b4906135a0565b60405180910390fd5b603581815481106107f7577f4e487b7100000000000000000000000000000000000000000000000000000000600052603260045260246000fd5b906000526020600020906003020160020160149054906101000a900460ff16610855576040517f08c379a000000000000000000000000000000000000000000000000000000000815260040161084c906133a0565b60405180910390fd5b600060358281548110610891577f4e487b7100000000000000000000000000000000000000000000000000000000600052603260045260246000fd5b906000526020600020906003020160020160146101000a81548160ff021916908315150217905550807e4c797e6739331fc6d5c1ebdf112d63e6a68297fdfd28f35f54561e28fd868d60405160405180910390a250565b600080600060606000806000806000603760008b8152602001908152602001600020604051806101000160405290816000820160009054906101000a900473ffffffffffffffffffffffffffffffffffffffff1673ffffffffffffffffffffffffffffffffffffffff1673ffffffffffffffffffffffffffffffffffffffff168152602001600182015481526020016002820160009054906101000a900473ffffffffffffffffffffffffffffffffffffffff1673ffffffffffffffffffffffffffffffffffffffff1673ffffffffffffffffffffffffffffffffffffffff1681526020016003820180546109dc90613901565b80601f0160208091040260200160405190810160405280929190818152602001828054610a0890613901565b8015610a555780601f10610a2a57610100808354040283529160200191610a55565b820191906000526020600020905b815481529060010190602001808311610a3857829003601f168201915b505050505081526020016004820154815260200160058201548152602001600682015481526020016007820160009054906101000a900460ff166005811115610ac7577f4e487b7100000000000000000000000000000000000000000000000000000000600052602160045260246000fd5b6005811115610aff577f4e487b7100000000000000000000000000000000000000000000000000000000600052602160045260246000fd5b8152505090506000610b108b61041e565b9050816000015182602001518360400151846060015185608001518660a001518760c0015187995099509950995099509950995099505050919395975091939597565b603360009054906101000a900473ffffffffffffffffffffffffffffffffffffffff1673ffffffffffffffffffffffffffffffffffffffff163373ffffffffffffffffffffffffffffffffffffffff1614610be3576040517f08c379a0000000000000000000000000000000000000000000000000000000008152600401610bda906135a0565b60405180910390fd5b600073ffffffffffffffffffffffffffffffffffffffff168173ffffffffffffffffffffffffffffffffffffffff161415610c53576040517f08c379a0000000000000000000000000000000000000000000000000000000008152600401610c4a90613540565b60405180910390fd5b80603460006101000a81548173ffffffffffffffffffffffffffffffffffffffff021916908373ffffffffffffffffffffffffffffffffffffffff16021790555050565b600060019054906101000a900460ff1680610cbd575060008054906101000a900460ff16155b610cfc576040517f08c379a0000000000000000000000000000000000000000000000000000000008152600401610cf3906134a0565b60405180910390fd5b60008060019054906101000a900460ff161590508015610d4c576001600060016101000a81548160ff02191690831515021790555060016000806101000a81548160ff0219169083151502179055505b610d54612154565b600073ffffffffffffffffffffffffffffffffffffffff168273ffffffffffffffffffffffffffffffffffffffff161415610dc4576040517f08c379a0000000000000000000000000000000000000000000000000000000008152600401610dbb90613540565b60405180910390fd5b600073ffffffffffffffffffffffffffffffffffffffff168373ffffffffffffffffffffffffffffffffffffffff161415610e34576040517f08c379a0000000000000000000000000000000000000000000000000000000008152600401610e2b906134c0565b60405180910390fd5b82603360006101000a81548173ffffffffffffffffffffffffffffffffffffffff021916908373ffffffffffffffffffffffffffffffffffffffff16021790555081603460006101000a81548173ffffffffffffffffffffffffffffffffffffffff021916908373ffffffffffffffffffffffffffffffffffffffff1602179055508015610ed75760008060016101000a81548160ff0219169083151502179055505b505050565b600060376000838152602001908152602001600020905060006005811115610f2d577f4e487b7100000000000000000000000000000000000000000000000000000000600052602160045260246000fd5b610f368361041e565b6005811115610f6e577f4e487b7100000000000000000000000000000000000000000000000000000000600052602160045260246000fd5b14610fae576040517f08c379a0000000000000000000000000000000000000000000000000000000008152600401610fa5906133e0565b60405180910390fd5b8060000160009054906101000a900473ffffffffffffffffffffffffffffffffffffffff1673ffffffffffffffffffffffffffffffffffffffff163373ffffffffffffffffffffffffffffffffffffffff1614611040576040517f08c379a0000000000000000000000000000000000000000000000000000000008152600401611037906135a0565b60405180910390fd5b60058160070160006101000a81548160ff0219169083600581111561108e577f4e487b7100000000000000000000000000000000000000000000000000000000600052602160045260246000fd5b02179055506001603660008360000160009054906101000a900473ffffffffffffffffffffffffffffffffffffffff1673ffffffffffffffffffffffffffffffffffffffff1673ffffffffffffffffffffffffffffffffffffffff168152602001908152602001600020600083600101548152602001908152602001600020600082825461111c919061372e565b92505081905550817fa9492956e3406e5fabb393f5ac68540da3bb42721d741519c0eadd27a15d83c060405160405180910390a28060000160009054906101000a900473ffffffffffffffffffffffffffffffffffffffff1673ffffffffffffffffffffffffffffffffffffffff166108fc82600601549081150290604051600060405180830381858888f193505050501580156111be573d6000803e3d6000fd5b505050565b6000816000015182602001518360400151846060015185608001518660a001518760c001516040516020016111fe9796959493929190613224565b604051602081830303815290604052805190602001209050919050565b611226338383612235565b60358281548110611260577f4e487b7100000000000000000000000000000000000000000000000000000000600052603260045260246000fd5b906000526020600020906003020160020160009054906101000a900473ffffffffffffffffffffffffffffffffffffffff1673ffffffffffffffffffffffffffffffffffffffff166323b872dd33306112b98686612389565b6040518463ffffffff167c01000000000000000000000000000000000000000000000000000000000281526004016112f3939291906131c4565b602060405180830381600087803b15801561130d57600080fd5b505af1158015611321573d6000803e3d6000fd5b505050506040513d601f19601f8201168201806040525081019061134591906129f5565b611384576040517f08c379a000000000000000000000000000000000000000000000000000000000815260040161137b90613460565b60405180910390fd5b5050565b6000603660003373ffffffffffffffffffffffffffffffffffffffff1673ffffffffffffffffffffffffffffffffffffffff1681526020019081526020016000206000888152602001908152602001600020541161141b576040517f08c379a000000000000000000000000000000000000000000000000000000000815260040161141290613400565b60405180910390fd5b6001603660003373ffffffffffffffffffffffffffffffffffffffff1673ffffffffffffffffffffffffffffffffffffffff1681526020019081526020016000206000888152602001908152602001600020600082825461147c91906137de565b92505081905550804211156114c6576040517f08c379a00000000000000000000000000000000000000000000000000000000081526004016114bd906134e0565b60405180910390fd5b60006040518061010001604052803373ffffffffffffffffffffffffffffffffffffffff1681526020018881526020018773ffffffffffffffffffffffffffffffffffffffff16815260200186868080601f016020809104026020016040519081016040528093929190818152602001838380828437600081840152601f19601f820116905080830192505050505050508152602001848152602001838152602001348152602001600060058111156115a8577f4e487b7100000000000000000000000000000000000000000000000000000000600052602160045260246000fd5b815250905060006115b8826111c3565b9050816037600083815260200190815260200160002060008201518160000160006101000a81548173ffffffffffffffffffffffffffffffffffffffff021916908373ffffffffffffffffffffffffffffffffffffffff1602179055506020820151816001015560408201518160020160006101000a81548173ffffffffffffffffffffffffffffffffffffffff021916908373ffffffffffffffffffffffffffffffffffffffff1602179055506060820151816003019080519060200190611682929190612637565b506080820151816004015560a0820151816005015560c0820151816006015560e08201518160070160006101000a81548160ff021916908360058111156116f2577f4e487b7100000000000000000000000000000000000000000000000000000000600052602160045260246000fd5b0217905550905050807f4352366ad6ebd2dce312bff7a3a5691396c030f8f92c6ed8cad31e745016850460405160405180910390a25050505050505050565b603360009054906101000a900473ffffffffffffffffffffffffffffffffffffffff1681565b603460009054906101000a900473ffffffffffffffffffffffffffffffffffffffff1681565b6035818154811061178d57600080fd5b90600052602060002090600302016000915090508060000154908060010154908060020160009054906101000a900473ffffffffffffffffffffffffffffffffffffffff16908060020160149054906101000a900460ff16905084565b6036602052816000526040600020602052806000526040600020600091509150505481565b600080600084848101906118239190612b43565b915091503373ffffffffffffffffffffffffffffffffffffffff1660358381548110611878577f4e487b7100000000000000000000000000000000000000000000000000000000600052603260045260246000fd5b906000526020600020906003020160020160009054906101000a900473ffffffffffffffffffffffffffffffffffffffff1673ffffffffffffffffffffffffffffffffffffffff1614611900576040517f08c379a00000000000000000000000000000000000000000000000000000000081526004016118f790613420565b60405180910390fd5b61190a8282612389565b861461194b576040517f08c379a000000000000000000000000000000000000000000000000000000000815260040161194290613480565b60405180910390fd5b611956878383612235565b600192505050949350505050565b603360009054906101000a900473ffffffffffffffffffffffffffffffffffffffff1673ffffffffffffffffffffffffffffffffffffffff163373ffffffffffffffffffffffffffffffffffffffff16146119f4576040517f08c379a00000000000000000000000000000000000000000000000000000000081526004016119eb906135a0565b60405180910390fd5b600073ffffffffffffffffffffffffffffffffffffffff168173ffffffffffffffffffffffffffffffffffffffff161415611a64576040517f08c379a0000000000000000000000000000000000000000000000000000000008152600401611a5b90613520565b60405180910390fd5b603560405180608001604052808581526020018481526020018373ffffffffffffffffffffffffffffffffffffffff168152602001600115158152509080600181540180825580915050600190039060005260206000209060030201600090919091909150600082015181600001556020820151816001015560408201518160020160006101000a81548173ffffffffffffffffffffffffffffffffffffffff021916908373ffffffffffffffffffffffffffffffffffffffff16021790555060608201518160020160146101000a81548160ff02191690831515021790555050506001603580549050611b5891906137de565b7f398c82e2ccf5aaee72a60b95d6543133e8fc843e113441e9a2d767274c8d8eef848385604051611b8b939291906135db565b60405180910390a2505050565b60026001541415611bde576040517f08c379a0000000000000000000000000000000000000000000000000000000008152600401611bd590613580565b60405180910390fd5b6002600181905550600060376000838152602001908152602001600020905060006005811115611c37577f4e487b7100000000000000000000000000000000000000000000000000000000600052602160045260246000fd5b8160070160009054906101000a900460ff166005811115611c81577f4e487b7100000000000000000000000000000000000000000000000000000000600052602160045260246000fd5b14611cc1576040517f08c379a0000000000000000000000000000000000000000000000000000000008152600401611cb890613440565b60405180910390fd5b426035826001015481548110611d00577f4e487b7100000000000000000000000000000000000000000000000000000000600052603260045260246000fd5b9060005260206000209060030201600101548260050154611d2191906137de565b10611d61576040517f08c379a0000000000000000000000000000000000000000000000000000000008152600401611d5890613500565b60405180910390fd5b60036005811115611d9b577f4e487b7100000000000000000000000000000000000000000000000000000000600052602160045260246000fd5b611da48361041e565b6005811115611ddc577f4e487b7100000000000000000000000000000000000000000000000000000000600052602160045260246000fd5b1415611df157611deb826123ea565b5061214a565b6000808260020160009054906101000a900473ffffffffffffffffffffffffffffffffffffffff1673ffffffffffffffffffffffffffffffffffffffff168360040154846006015485600301604051611e4a9190613192565b600060405180830381858888f193505050503d8060008114611e88576040519150601f19603f3d011682016040523d82523d6000602084013e611e8d565b606091505b5091509150837fbbb9534b79cda5e36feb34cc697d5e728db1a530363e152c539fb70b3f75f7ac8383604051611ec492919061333a565b60405180910390a28115611f2a5760018360070160006101000a81548160ff02191690836005811115611f20577f4e487b7100000000000000000000000000000000000000000000000000000000600052602160045260246000fd5b0217905550611f7e565b60028360070160006101000a81548160ff02191690836005811115611f78577f4e487b7100000000000000000000000000000000000000000000000000000000600052602160045260246000fd5b02179055505b6035836001015481548110611fbc577f4e487b7100000000000000000000000000000000000000000000000000000000600052603260045260246000fd5b906000526020600020906003020160020160009054906101000a900473ffffffffffffffffffffffffffffffffffffffff1673ffffffffffffffffffffffffffffffffffffffff1663a9059cbb603460009054906101000a900473ffffffffffffffffffffffffffffffffffffffff16603586600101548154811061206a577f4e487b7100000000000000000000000000000000000000000000000000000000600052603260045260246000fd5b9060005260206000209060030201600001546040518363ffffffff167c01000000000000000000000000000000000000000000000000000000000281526004016120b59291906131fb565b602060405180830381600087803b1580156120cf57600080fd5b505af11580156120e3573d6000803e3d6000fd5b505050506040513d601f19601f8201168201806040525081019061210791906129f5565b612146576040517f08c379a000000000000000000000000000000000000000000000000000000000815260040161213d906133c0565b60405180910390fd5b5050505b6001808190555050565b600060019054906101000a900460ff168061217a575060008054906101000a900460ff16155b6121b9576040517f08c379a00000000000000000000000000000000000000000000000000000000081526004016121b0906134a0565b60405180910390fd5b60008060019054906101000a900460ff161590508015612209576001600060016101000a81548160ff02191690831515021790555060016000806101000a81548160ff0219169083151502179055505b612211612557565b80156122325760008060016101000a81548160ff0219169083151502179055505b50565b6035828154811061226f577f4e487b7100000000000000000000000000000000000000000000000000000000600052603260045260246000fd5b906000526020600020906003020160020160149054906101000a900460ff166122cd576040517f08c379a00000000000000000000000000000000000000000000000000000000081526004016122c490613560565b60405180910390fd5b80603660008573ffffffffffffffffffffffffffffffffffffffff1673ffffffffffffffffffffffffffffffffffffffff1681526020019081526020016000206000848152602001908152602001600020600082825461232d919061372e565b925050819055508273ffffffffffffffffffffffffffffffffffffffff167f1d00f3ff8ba6a0ac98e7c747985ac34f1f706f5d0fa06abaa4c090a60598a65d838360405161237c929190613612565b60405180910390a2505050565b6000603583815481106123c5577f4e487b7100000000000000000000000000000000000000000000000000000000600052603260045260246000fd5b906000526020600020906003020160000154826123e29190613784565b905092915050565b60006037600083815260200190815260200160002090506001603660008360000160009054906101000a900473ffffffffffffffffffffffffffffffffffffffff1673ffffffffffffffffffffffffffffffffffffffff1673ffffffffffffffffffffffffffffffffffffffff168152602001908152602001600020600083600101548152602001908152602001600020600082825461248a919061372e565b9250508190555060048160070160006101000a81548160ff021916908360058111156124df577f4e487b7100000000000000000000000000000000000000000000000000000000600052602160045260246000fd5b02179055508060000160009054906101000a900473ffffffffffffffffffffffffffffffffffffffff1673ffffffffffffffffffffffffffffffffffffffff166108fc82600601549081150290604051600060405180830381858888f19350505050158015612552573d6000803e3d6000fd5b505050565b600060019054906101000a900460ff168061257d575060008054906101000a900460ff16155b6125bc576040517f08c379a00000000000000000000000000000000000000000000000000000000081526004016125b3906134a0565b60405180910390fd5b60008060019054906101000a900460ff16159050801561260c576001600060016101000a81548160ff02191690831515021790555060016000806101000a81548160ff0219169083151502179055505b6001808190555080156126345760008060016101000a81548160ff0219169083151502179055505b50565b82805461264390613901565b90600052602060002090601f01602090048101928261266557600085556126ac565b82601f1061267e57805160ff19168380011785556126ac565b828001600101855582156126ac579182015b828111156126ab578251825591602001919060010190612690565b5b5090506126b991906126bd565b5090565b5b808211156126d65760008160009055506001016126be565b5090565b60006126ed6126e8846136b1565b613680565b90508281526020810184848401111561270557600080fd5b6127108482856138bf565b509392505050565b60008135905061272781613a14565b92915050565b60008151905061273c81613a2b565b92915050565b60008135905061275181613a42565b92915050565b60008083601f84011261276957600080fd5b8235905067ffffffffffffffff81111561278257600080fd5b60208301915083600182028301111561279a57600080fd5b9250929050565b600082601f8301126127b257600080fd5b81356127c28482602086016126da565b91505092915050565b6000813590506127da81613a59565b92915050565b6000813590506127ef81613a70565b92915050565b6000610100828403121561280857600080fd5b612813610100613680565b9050600061282384828501612718565b6000830152506020612837848285016128d3565b602083015250604061284b84828501612718565b604083015250606082013567ffffffffffffffff81111561286b57600080fd5b612877848285016127a1565b606083015250608061288b848285016128d3565b60808301525060a061289f848285016128d3565b60a08301525060c06128b3848285016128d3565b60c08301525060e06128c7848285016127e0565b60e08301525092915050565b6000813590506128e281613a80565b92915050565b6000602082840312156128fa57600080fd5b600061290884828501612718565b91505092915050565b6000806040838503121561292457600080fd5b600061293285828601612718565b925050602061294385828601612718565b9150509250929050565b6000806040838503121561296057600080fd5b600061296e85828601612718565b925050602061297f858286016128d3565b9150509250929050565b6000806000806060858703121561299f57600080fd5b60006129ad87828801612718565b94505060206129be878288016128d3565b935050604085013567ffffffffffffffff8111156129db57600080fd5b6129e787828801612757565b925092505092959194509250565b600060208284031215612a0757600080fd5b6000612a158482850161272d565b91505092915050565b600060208284031215612a3057600080fd5b6000612a3e84828501612742565b91505092915050565b600060208284031215612a5957600080fd5b600082013567ffffffffffffffff811115612a7357600080fd5b612a7f848285016127f5565b91505092915050565b600060208284031215612a9a57600080fd5b6000612aa8848285016128d3565b91505092915050565b60008060008060008060a08789031215612aca57600080fd5b6000612ad889828a016128d3565b9650506020612ae989828a01612718565b955050604087013567ffffffffffffffff811115612b0657600080fd5b612b1289828a01612757565b94509450506060612b2589828a016128d3565b9250506080612b3689828a016128d3565b9150509295509295509295565b60008060408385031215612b5657600080fd5b6000612b64858286016128d3565b9250506020612b75858286016128d3565b9150509250929050565b600080600060608486031215612b9457600080fd5b6000612ba2868287016128d3565b9350506020612bb3868287016128d3565b9250506040612bc4868287016127cb565b9150509250925092565b612bd781613812565b82525050565b612be681613824565b82525050565b612bf581613830565b82525050565b6000612c06826136f6565b612c108185613701565b9350612c208185602086016138ce565b612c29816139ef565b840191505092915050565b60008154612c4181613901565b612c4b8186613712565b94506001821660008114612c665760018114612c7757612caa565b60ff19831686528186019350612caa565b612c80856136e1565b60005b83811015612ca257815481890152600182019150602081019050612c83565b838801955050505b50505092915050565b612cbc81613889565b82525050565b612ccb816138ad565b82525050565b6000612cde601c8361371d565b91507f54686520706c616e20697320616c726561647920696e616374697665000000006000830152602082019050919050565b6000612d1e601a8361371d565b91507f436f756c646e2774207472616e7366657220746f2070617965650000000000006000830152602082019050919050565b6000612d5e60198361371d565b91507f5472616e73616374696f6e206e6f74207363686564756c6564000000000000006000830152602082019050919050565b6000612d9e60148361371d565b91507f4e6f2062616c616e636520617661696c61626c650000000000000000000000006000830152602082019050919050565b6000612dde60098361371d565b91507f42616420746f6b656e00000000000000000000000000000000000000000000006000830152602082019050919050565b6000612e1e60108361371d565b91507f416c7265616479206578656375746564000000000000000000000000000000006000830152602082019050919050565b6000612e5e60128361371d565b91507f5061796d656e74206469642774207061737300000000000000000000000000006000830152602082019050919050565b6000612e9e602f8361371d565b91507f5472616e7366657272656420616d6f756e7420646f65736e2774206d6174636860008301527f20746f74616c20707572636861736500000000000000000000000000000000006020830152604082019050919050565b6000612f04602e8361371d565b91507f496e697469616c697a61626c653a20636f6e747261637420697320616c72656160008301527f647920696e697469616c697a65640000000000000000000000000000000000006020830152604082019050919050565b6000612f6a60268361371d565b91507f536572766963652070726f766964657220616464726573732063616e6e6f742060008301527f62652030783000000000000000000000000000000000000000000000000000006020830152604082019050919050565b6000612fd0601e8361371d565b91507f43616e6e6f74207363686564756c6520697420696e20746865207061737400006000830152602082019050919050565b600061301060088361371d565b91507f546f6f20736f6f6e0000000000000000000000000000000000000000000000006000830152602082019050919050565b6000613050601b8361371d565b91507f546f6b656e20616464726573732063616e6e6f742062652030783000000000006000830152602082019050919050565b6000613090601b8361371d565b91507f506179656520616464726573732063616e6e6f742062652030783000000000006000830152602082019050919050565b60006130d0600d8361371d565b91507f496e61637469766520706c616e000000000000000000000000000000000000006000830152602082019050919050565b6000613110601f8361371d565b91507f5265656e7472616e637947756172643a207265656e7472616e742063616c6c006000830152602082019050919050565b6000613150600e8361371d565b91507f4e6f7420617574686f72697a65640000000000000000000000000000000000006000830152602082019050919050565b61318c8161387f565b82525050565b600061319e8284612c34565b915081905092915050565b60006020820190506131be6000830184612bce565b92915050565b60006060820190506131d96000830186612bce565b6131e66020830185612bce565b6131f36040830184613183565b949350505050565b60006040820190506132106000830185612bce565b61321d6020830184613183565b9392505050565b600060e082019050613239600083018a612bce565b6132466020830189613183565b6132536040830188612bce565b81810360608301526132658187612bfb565b90506132746080830186613183565b61328160a0830185613183565b61328e60c0830184613183565b98975050505050505050565b6000610100820190506132b0600083018b612bce565b6132bd602083018a613183565b6132ca6040830189612bce565b81810360608301526132dc8188612bfb565b90506132eb6080830187613183565b6132f860a0830186613183565b61330560c0830185613183565b61331260e0830184612cc2565b9998505050505050505050565b60006020820190506133346000830184612bdd565b92915050565b600060408201905061334f6000830185612bdd565b81810360208301526133618184612bfb565b90509392505050565b600060208201905061337f6000830184612bec565b92915050565b600060208201905061339a6000830184612cc2565b92915050565b600060208201905081810360008301526133b981612cd1565b9050919050565b600060208201905081810360008301526133d981612d11565b9050919050565b600060208201905081810360008301526133f981612d51565b9050919050565b6000602082019050818103600083015261341981612d91565b9050919050565b6000602082019050818103600083015261343981612dd1565b9050919050565b6000602082019050818103600083015261345981612e11565b9050919050565b6000602082019050818103600083015261347981612e51565b9050919050565b6000602082019050818103600083015261349981612e91565b9050919050565b600060208201905081810360008301526134b981612ef7565b9050919050565b600060208201905081810360008301526134d981612f5d565b9050919050565b600060208201905081810360008301526134f981612fc3565b9050919050565b6000602082019050818103600083015261351981613003565b9050919050565b6000602082019050818103600083015261353981613043565b9050919050565b6000602082019050818103600083015261355981613083565b9050919050565b60006020820190508181036000830152613579816130c3565b9050919050565b6000602082019050818103600083015261359981613103565b9050919050565b600060208201905081810360008301526135b981613143565b9050919050565b60006020820190506135d56000830184613183565b92915050565b60006060820190506135f06000830186613183565b6135fd6020830185612bce565b61360a6040830184613183565b949350505050565b60006040820190506136276000830185613183565b6136346020830184613183565b9392505050565b60006080820190506136506000830187613183565b61365d6020830186613183565b61366a6040830185612cb3565b6136776060830184612bdd565b95945050505050565b6000604051905081810181811067ffffffffffffffff821117156136a7576136a66139c0565b5b8060405250919050565b600067ffffffffffffffff8211156136cc576136cb6139c0565b5b601f19601f8301169050602081019050919050565b60008190508160005260206000209050919050565b600081519050919050565b600082825260208201905092915050565b600081905092915050565b600082825260208201905092915050565b60006137398261387f565b91506137448361387f565b9250827fffffffffffffffffffffffffffffffffffffffffffffffffffffffffffffffff0382111561377957613778613933565b5b828201905092915050565b600061378f8261387f565b915061379a8361387f565b9250817fffffffffffffffffffffffffffffffffffffffffffffffffffffffffffffffff04831182151516156137d3576137d2613933565b5b828202905092915050565b60006137e98261387f565b91506137f48361387f565b92508282101561380757613806613933565b5b828203905092915050565b600061381d8261385f565b9050919050565b60008115159050919050565b6000819050919050565b600061384582613812565b9050919050565b600081905061385a82613a00565b919050565b600073ffffffffffffffffffffffffffffffffffffffff82169050919050565b6000819050919050565b60006138948261389b565b9050919050565b60006138a68261385f565b9050919050565b60006138b88261384c565b9050919050565b82818337600083830152505050565b60005b838110156138ec5780820151818401526020810190506138d1565b838111156138fb576000848401525b50505050565b6000600282049050600182168061391957607f821691505b6020821081141561392d5761392c613991565b5b50919050565b7f4e487b7100000000000000000000000000000000000000000000000000000000600052601160045260246000fd5b7f4e487b7100000000000000000000000000000000000000000000000000000000600052602160045260246000fd5b7f4e487b7100000000000000000000000000000000000000000000000000000000600052602260045260246000fd5b7f4e487b7100000000000000000000000000000000000000000000000000000000600052604160045260246000fd5b6000601f19601f8301169050919050565b60068110613a1157613a10613962565b5b50565b613a1d81613812565b8114613a2857600080fd5b50565b613a3481613824565b8114613a3f57600080fd5b50565b613a4b81613830565b8114613a5657600080fd5b50565b613a628161383a565b8114613a6d57600080fd5b50565b60068110613a7d57600080fd5b50565b613a898161387f565b8114613a9457600080fd5b5056fea26469706673582212202246af44dd7959cce3dc42b1c4479d7dca037fcc554e9130eaf11d910f93788264736f6c63430008000033",
  "immutableReferences": {},
  "source": "// SPDX-License-Identifier: MIT\npragma solidity ^0.8.0;\nimport '@rsksmart/erc677/contracts/IERC677.sol';\nimport '@rsksmart/erc677/contracts/IERC677TransferReceiver.sol';\nimport '@openzeppelin/contracts-upgradeable/proxy/utils/Initializable.sol';\nimport '@openzeppelin/contracts-upgradeable/security/ReentrancyGuardUpgradeable.sol';\n\ncontract OneShotSchedule is IERC677TransferReceiver, Initializable, ReentrancyGuardUpgradeable {\n  enum ExecutionState { Scheduled, ExecutionSuccessful, ExecutionFailed, Overdue, Refunded, Cancelled }\n  // State transitions for scheduled executions:\n  //   Scheduled -> Cancelled (requestor cancelled execution)\n  //   Scheduled -> ExecutionSuccessful (call was executed in the given time and did not fail)\n  //   Scheduled -> ExecutionFailed (call was executed in the given time but failed)\n  //   Scheduled -> Overdue (execution window has passed, expected earlier)\n  //   Overdue -> Refunded (refund for overdue execution paid)\n\n  struct Execution {\n    address requestor;\n    uint256 plan;\n    address to;\n    bytes data;\n    uint256 gas;\n    uint256 timestamp;\n    uint256 value;\n    ExecutionState state;\n  }\n\n  struct Plan {\n    uint256 pricePerExecution;\n    uint256 window;\n    IERC677 token;\n    bool active;\n  }\n\n  address public serviceProvider;\n  address public payee;\n\n  Plan[] public plans;\n  mapping(address => mapping(uint256 => uint256)) public remainingExecutions;\n  mapping(bytes32 => Execution) private executions;\n\n  event PlanAdded(uint256 indexed index, uint256 price, address token, uint256 window);\n  event PlanRemoved(uint256 indexed index);\n\n  event ExecutionPurchased(address indexed requestor, uint256 plan, uint256 amount);\n  event ExecutionRequested(bytes32 indexed id);\n  event Executed(bytes32 indexed id, bool success, bytes result);\n  event ExecutionCancelled(bytes32 indexed id);\n\n  modifier onlyProvider() {\n    require(address(msg.sender) == serviceProvider, 'Not authorized');\n    _;\n  }\n\n  function initialize(address serviceProvider_, address payee_) public initializer {\n    __ReentrancyGuard_init();\n    require(payee_ != address(0x0), 'Payee address cannot be 0x0');\n    require(serviceProvider_ != address(0x0), 'Service provider address cannot be 0x0');\n    serviceProvider = serviceProvider_;\n    payee = payee_;\n  }\n\n  ///////////\n  // ADMIN //\n  ///////////\n\n  function addPlan(\n    uint256 price,\n    uint256 window,\n    IERC677 token\n  ) external onlyProvider {\n    require(address(token) != address(0x0), 'Token address cannot be 0x0');\n    plans.push(Plan(price, window, token, true));\n    emit PlanAdded(plans.length - 1, price, address(token), window);\n  }\n\n  function removePlan(uint256 plan) external onlyProvider {\n    require(plans[plan].active, 'The plan is already inactive');\n    plans[plan].active = false;\n    emit PlanRemoved(plan);\n  }\n\n  function setPayee(address payee_) external onlyProvider {\n    require(payee_ != address(0x0), 'Payee address cannot be 0x0');\n    payee = payee_;\n  }\n\n  //////////////\n  // PURCHASE //\n  //////////////\n\n  function totalPrice(uint256 plan, uint256 quantity) private view returns (uint256) {\n    return quantity * plans[plan].pricePerExecution;\n  }\n\n  function doPurchase(\n    address requestor,\n    uint256 plan,\n    uint256 amount\n  ) private {\n    require(plans[plan].active, 'Inactive plan');\n    remainingExecutions[requestor][plan] += amount;\n    emit ExecutionPurchased(requestor, plan, amount);\n  }\n\n  // purcahse with ERC-20\n  function purchase(uint256 plan, uint256 quantity) external {\n    doPurchase(msg.sender, plan, quantity);\n\n    require(plans[plan].token.transferFrom(msg.sender, address(this), totalPrice(plan, quantity)), \"Payment did't pass\");\n  }\n\n  // purcahse with ERC-677\n  function tokenFallback(\n    address from,\n    uint256 amount,\n    bytes calldata data\n  ) external override returns (bool) {\n    (uint256 plan, uint256 quantity) = abi.decode(data, (uint256, uint256));\n\n    require(address(plans[plan].token) == address(msg.sender), 'Bad token');\n    require(amount == totalPrice(plan, quantity), \"Transferred amount doesn't match total purchase\");\n\n    doPurchase(from, plan, quantity);\n    return true;\n  }\n\n  ////////////////\n  // SCHEDULING //\n  ////////////////\n\n  // slither-disable-next-line timestamp\n  function getState(bytes32 id) public view returns (ExecutionState) {\n    Execution memory execution = executions[id];\n    if (execution.state == ExecutionState.Scheduled && ((execution.timestamp + plans[execution.plan].window) < block.timestamp)) {\n      return ExecutionState.Overdue;\n    } else {\n      return execution.state;\n    }\n  }\n\n  function hash(Execution memory execution) public pure returns (bytes32) {\n    return\n      keccak256(\n        abi.encode(execution.requestor, execution.plan, execution.to, execution.data, execution.gas, execution.timestamp, execution.value)\n      );\n  }\n\n  function schedule(\n    uint256 plan,\n    address to,\n    bytes calldata data,\n    uint256 gas,\n    uint256 timestamp\n  ) external payable {\n    require(remainingExecutions[msg.sender][plan] > 0, 'No balance available');\n    remainingExecutions[msg.sender][plan] -= 1;\n\n    // This is only to prevent errors, doesn't need to be exact\n    // timestamp manipulation should be considered in the window by the service provider\n    // slither-disable-next-line timestamp\n    require(block.timestamp <= timestamp, 'Cannot schedule it in the past');\n\n    Execution memory execution = Execution(msg.sender, plan, to, data, gas, timestamp, msg.value, ExecutionState.Scheduled);\n    bytes32 id = hash(execution);\n    executions[id] = execution;\n    emit ExecutionRequested(id);\n  }\n\n  function getSchedule(bytes32 id)\n    external\n    view\n    returns (\n      address,\n      uint256,\n      address,\n      bytes memory,\n      uint256,\n      uint256,\n      uint256,\n      ExecutionState\n    )\n  {\n    Execution memory execution = executions[id];\n    ExecutionState state = getState(id);\n    return (execution.requestor, execution.plan, execution.to, execution.data, execution.gas, execution.timestamp, execution.value, state);\n  }\n\n  function cancelScheduling(bytes32 id) external {\n    Execution storage execution = executions[id];\n\n    require(getState(id) == ExecutionState.Scheduled, 'Transaction not scheduled');\n    require(msg.sender == execution.requestor, 'Not authorized');\n\n    execution.state = ExecutionState.Cancelled;\n    remainingExecutions[execution.requestor][execution.plan] += 1;\n    emit ExecutionCancelled(id);\n    payable(execution.requestor).transfer(execution.value);\n  }\n\n  ///////////////\n  // EXECUTION //\n  ///////////////\n  function refund(bytes32 id) private {\n    Execution storage execution = executions[id];\n    remainingExecutions[execution.requestor][execution.plan] += 1;\n    execution.state = ExecutionState.Refunded;\n    payable(execution.requestor).transfer(execution.value);\n  }\n\n  // The nonReentrant prevents this contract to be call again when the low level call is executed\n  // timestamp manipulation should be considered in the window by the service provider\n  // slither-disable-next-line timestamp\n  function execute(bytes32 id) external nonReentrant {\n    Execution storage execution = executions[id];\n\n    require(execution.state == ExecutionState.Scheduled, 'Already executed');\n    // timestamp manipulation should be considered in the window by the service provider\n    // slither-disable-next-line timestamp\n    require((execution.timestamp - plans[execution.plan].window) < block.timestamp, 'Too soon');\n\n    if (getState(id) == ExecutionState.Overdue) {\n      refund(id);\n      return;\n    }\n\n    // The contract makes an external call to execute the scheduled transaction on the specified contract.\n    // It needs to get the execution result before emitting the event and changing the matatransaction state.\n    // slither-disable-next-line low-level-calls\n    (bool success, bytes memory result) = payable(execution.to).call{ gas: execution.gas, value: execution.value }(execution.data);\n\n    // reentrancy prevented by nonReentrant modifier\n    // slither-disable-next-line reentrancy-events\n    emit Executed(id, success, result);\n\n    if (success) {\n      // reentrancy prevented by nonReentrant modifier\n      // slither-disable-next-line reentrancy-eth\n      execution.state = ExecutionState.ExecutionSuccessful;\n    } else {\n      // reentrancy prevented by nonReentrant modifier\n      // slither-disable-next-line reentrancy-eth\n      execution.state = ExecutionState.ExecutionFailed;\n    }\n\n    require(plans[execution.plan].token.transfer(payee, plans[execution.plan].pricePerExecution), \"Couldn't transfer to payee\");\n  }\n}\n",
  "sourcePath": "/Users/diegograsso/dev/rif-scheduler-contracts-poc/contracts/OneShotSchedule.sol",
  "compiler": {
    "name": "solc",
    "version": "0.8.0+commit.c7dfd78e.Emscripten.clang"
  },
  "schemaVersion": "3.3.4",
  "updatedAt": "2021-05-13T13:56:29.025Z",
  "devdoc": {
    "kind": "dev",
    "methods": {},
    "version": 1
  },
  "userdoc": {
    "kind": "user",
    "methods": {},
    "version": 1
  }
}