{
  "contractName": "RIFScheduler",
  "abi": [
    {
      "inputs": [
        {
          "internalType": "address",
          "name": "serviceProvider_",
          "type": "address"
        },
        {
          "internalType": "address",
          "name": "payee_",
          "type": "address"
        }
      ],
      "stateMutability": "nonpayable",
      "type": "constructor"
    },
    {
      "anonymous": false,
      "inputs": [
        {
          "indexed": true,
          "internalType": "bytes32",
          "name": "id",
          "type": "bytes32"
        },
        {
          "indexed": false,
          "internalType": "bool",
          "name": "success",
          "type": "bool"
        },
        {
          "indexed": false,
          "internalType": "bytes",
          "name": "result",
          "type": "bytes"
        }
      ],
      "name": "Executed",
      "type": "event"
    },
    {
      "anonymous": false,
      "inputs": [
        {
          "indexed": true,
          "internalType": "bytes32",
          "name": "id",
          "type": "bytes32"
        }
      ],
      "name": "ExecutionCancelled",
      "type": "event"
    },
    {
      "anonymous": false,
      "inputs": [
        {
          "indexed": true,
          "internalType": "address",
          "name": "requestor",
          "type": "address"
        },
        {
          "indexed": false,
          "internalType": "uint256",
          "name": "plan",
          "type": "uint256"
        },
        {
          "indexed": false,
          "internalType": "uint256",
          "name": "amount",
          "type": "uint256"
        }
      ],
      "name": "ExecutionPurchased",
      "type": "event"
    },
    {
      "anonymous": false,
      "inputs": [
        {
          "indexed": true,
          "internalType": "bytes32",
          "name": "id",
          "type": "bytes32"
        },
        {
          "indexed": false,
          "internalType": "uint256",
          "name": "timestamp",
          "type": "uint256"
        }
      ],
      "name": "ExecutionRequested",
      "type": "event"
    },
    {
      "anonymous": false,
      "inputs": [
        {
          "indexed": false,
          "internalType": "address",
          "name": "account",
          "type": "address"
        }
      ],
      "name": "Paused",
      "type": "event"
    },
    {
      "anonymous": false,
      "inputs": [
        {
          "indexed": true,
          "internalType": "uint256",
          "name": "index",
          "type": "uint256"
        },
        {
          "indexed": false,
          "internalType": "uint256",
          "name": "price",
          "type": "uint256"
        },
        {
          "indexed": false,
          "internalType": "address",
          "name": "token",
          "type": "address"
        },
        {
          "indexed": false,
          "internalType": "uint256",
          "name": "window",
          "type": "uint256"
        }
      ],
      "name": "PlanAdded",
      "type": "event"
    },
    {
      "anonymous": false,
      "inputs": [
        {
          "indexed": true,
          "internalType": "uint256",
          "name": "index",
          "type": "uint256"
        }
      ],
      "name": "PlanRemoved",
      "type": "event"
    },
    {
      "anonymous": false,
      "inputs": [
        {
          "indexed": false,
          "internalType": "address",
          "name": "account",
          "type": "address"
        }
      ],
      "name": "Unpaused",
      "type": "event"
    },
    {
      "inputs": [],
      "name": "paused",
      "outputs": [
        {
          "internalType": "bool",
          "name": "",
          "type": "bool"
        }
      ],
      "stateMutability": "view",
      "type": "function"
    },
    {
      "inputs": [],
      "name": "payee",
      "outputs": [
        {
          "internalType": "address",
          "name": "",
          "type": "address"
        }
      ],
      "stateMutability": "view",
      "type": "function"
    },
    {
      "inputs": [
        {
          "internalType": "uint256",
          "name": "",
          "type": "uint256"
        }
      ],
      "name": "plans",
      "outputs": [
        {
          "internalType": "uint256",
          "name": "pricePerExecution",
          "type": "uint256"
        },
        {
          "internalType": "uint256",
          "name": "window",
          "type": "uint256"
        },
        {
          "internalType": "contract IERC677",
          "name": "token",
          "type": "address"
        },
        {
          "internalType": "bool",
          "name": "active",
          "type": "bool"
        }
      ],
      "stateMutability": "view",
      "type": "function"
    },
    {
      "inputs": [
        {
          "internalType": "address",
          "name": "",
          "type": "address"
        },
        {
          "internalType": "uint256",
          "name": "",
          "type": "uint256"
        }
      ],
      "name": "remainingExecutions",
      "outputs": [
        {
          "internalType": "uint256",
          "name": "",
          "type": "uint256"
        }
      ],
      "stateMutability": "view",
      "type": "function"
    },
    {
      "inputs": [],
      "name": "serviceProvider",
      "outputs": [
        {
          "internalType": "address",
          "name": "",
          "type": "address"
        }
      ],
      "stateMutability": "view",
      "type": "function"
    },
    {
      "inputs": [
        {
          "internalType": "uint256",
          "name": "price",
          "type": "uint256"
        },
        {
          "internalType": "uint256",
          "name": "window",
          "type": "uint256"
        },
        {
          "internalType": "contract IERC677",
          "name": "token",
          "type": "address"
        }
      ],
      "name": "addPlan",
      "outputs": [],
      "stateMutability": "nonpayable",
      "type": "function"
    },
    {
      "inputs": [
        {
          "internalType": "uint256",
          "name": "plan",
          "type": "uint256"
        }
      ],
      "name": "removePlan",
      "outputs": [],
      "stateMutability": "nonpayable",
      "type": "function"
    },
    {
      "inputs": [],
      "name": "plansCount",
      "outputs": [
        {
          "internalType": "uint256",
          "name": "",
          "type": "uint256"
        }
      ],
      "stateMutability": "view",
      "type": "function"
    },
    {
      "inputs": [
        {
          "internalType": "address",
          "name": "payee_",
          "type": "address"
        }
      ],
      "name": "setPayee",
      "outputs": [],
      "stateMutability": "nonpayable",
      "type": "function"
    },
    {
      "inputs": [],
      "name": "pause",
      "outputs": [],
      "stateMutability": "nonpayable",
      "type": "function"
    },
    {
      "inputs": [],
      "name": "unpause",
      "outputs": [],
      "stateMutability": "nonpayable",
      "type": "function"
    },
    {
      "inputs": [
        {
          "internalType": "uint256",
          "name": "plan",
          "type": "uint256"
        },
        {
          "internalType": "uint256",
          "name": "quantity",
          "type": "uint256"
        }
      ],
      "name": "purchase",
      "outputs": [],
      "stateMutability": "payable",
      "type": "function"
    },
    {
      "inputs": [
        {
          "internalType": "address",
          "name": "from",
          "type": "address"
        },
        {
          "internalType": "uint256",
          "name": "amount",
          "type": "uint256"
        },
        {
          "internalType": "bytes",
          "name": "data",
          "type": "bytes"
        }
      ],
      "name": "tokenFallback",
      "outputs": [
        {
          "internalType": "bool",
          "name": "",
          "type": "bool"
        }
      ],
      "stateMutability": "nonpayable",
      "type": "function"
    },
    {
      "inputs": [
        {
          "internalType": "uint256",
          "name": "plan",
          "type": "uint256"
        }
      ],
      "name": "requestPlanRefund",
      "outputs": [],
      "stateMutability": "nonpayable",
      "type": "function"
    },
    {
      "inputs": [
        {
          "components": [
            {
              "internalType": "address",
              "name": "requestor",
              "type": "address"
            },
            {
              "internalType": "uint256",
              "name": "plan",
              "type": "uint256"
            },
            {
              "internalType": "address",
              "name": "to",
              "type": "address"
            },
            {
              "internalType": "bytes",
              "name": "data",
              "type": "bytes"
            },
            {
              "internalType": "uint256",
              "name": "gas",
              "type": "uint256"
            },
            {
              "internalType": "uint256",
              "name": "timestamp",
              "type": "uint256"
            },
            {
              "internalType": "uint256",
              "name": "value",
              "type": "uint256"
            },
            {
              "internalType": "enum RIFScheduler.ExecutionState",
              "name": "state",
              "type": "uint8"
            }
          ],
          "internalType": "struct RIFScheduler.Execution",
          "name": "execution",
          "type": "tuple"
        }
      ],
      "name": "getExecutionId",
      "outputs": [
        {
          "internalType": "bytes32",
          "name": "",
          "type": "bytes32"
        }
      ],
      "stateMutability": "pure",
      "type": "function"
    },
    {
      "inputs": [
        {
          "internalType": "uint256",
          "name": "plan",
          "type": "uint256"
        },
        {
          "internalType": "address",
          "name": "to",
          "type": "address"
        },
        {
          "internalType": "bytes",
          "name": "data",
          "type": "bytes"
        },
        {
          "internalType": "uint256",
          "name": "gas",
          "type": "uint256"
        },
        {
          "internalType": "uint256",
          "name": "timestamp",
          "type": "uint256"
        }
      ],
      "name": "schedule",
      "outputs": [
        {
          "internalType": "bytes32",
          "name": "id",
          "type": "bytes32"
        }
      ],
      "stateMutability": "payable",
      "type": "function"
    },
    {
      "inputs": [
        {
          "internalType": "bytes[]",
          "name": "data",
          "type": "bytes[]"
        }
      ],
      "name": "batchSchedule",
      "outputs": [
        {
          "internalType": "bytes32[]",
          "name": "ids",
          "type": "bytes32[]"
        }
      ],
      "stateMutability": "payable",
      "type": "function"
    },
    {
      "inputs": [
        {
          "internalType": "bytes32",
          "name": "id",
          "type": "bytes32"
        }
      ],
      "name": "getState",
      "outputs": [
        {
          "internalType": "enum RIFScheduler.ExecutionState",
          "name": "",
          "type": "uint8"
        }
      ],
      "stateMutability": "view",
      "type": "function"
    },
    {
      "inputs": [
        {
          "internalType": "bytes32",
          "name": "id",
          "type": "bytes32"
        }
      ],
      "name": "getExecutionById",
      "outputs": [
        {
          "components": [
            {
              "internalType": "address",
              "name": "requestor",
              "type": "address"
            },
            {
              "internalType": "uint256",
              "name": "plan",
              "type": "uint256"
            },
            {
              "internalType": "address",
              "name": "to",
              "type": "address"
            },
            {
              "internalType": "bytes",
              "name": "data",
              "type": "bytes"
            },
            {
              "internalType": "uint256",
              "name": "gas",
              "type": "uint256"
            },
            {
              "internalType": "uint256",
              "name": "timestamp",
              "type": "uint256"
            },
            {
              "internalType": "uint256",
              "name": "value",
              "type": "uint256"
            },
            {
              "internalType": "enum RIFScheduler.ExecutionState",
              "name": "state",
              "type": "uint8"
            }
          ],
          "internalType": "struct RIFScheduler.Execution",
          "name": "execution",
          "type": "tuple"
        }
      ],
      "stateMutability": "view",
      "type": "function"
    },
    {
      "inputs": [
        {
          "internalType": "address",
          "name": "requestor",
          "type": "address"
        }
      ],
      "name": "executionsByRequestorCount",
      "outputs": [
        {
          "internalType": "uint256",
          "name": "",
          "type": "uint256"
        }
      ],
      "stateMutability": "view",
      "type": "function"
    },
    {
      "inputs": [
        {
          "internalType": "address",
          "name": "requestor",
          "type": "address"
        },
        {
          "internalType": "uint256",
          "name": "fromIndex",
          "type": "uint256"
        },
        {
          "internalType": "uint256",
          "name": "toIndex",
          "type": "uint256"
        }
      ],
      "name": "getExecutionsByRequestor",
      "outputs": [
        {
          "components": [
            {
              "internalType": "address",
              "name": "requestor",
              "type": "address"
            },
            {
              "internalType": "uint256",
              "name": "plan",
              "type": "uint256"
            },
            {
              "internalType": "address",
              "name": "to",
              "type": "address"
            },
            {
              "internalType": "bytes",
              "name": "data",
              "type": "bytes"
            },
            {
              "internalType": "uint256",
              "name": "gas",
              "type": "uint256"
            },
            {
              "internalType": "uint256",
              "name": "timestamp",
              "type": "uint256"
            },
            {
              "internalType": "uint256",
              "name": "value",
              "type": "uint256"
            },
            {
              "internalType": "enum RIFScheduler.ExecutionState",
              "name": "state",
              "type": "uint8"
            }
          ],
          "internalType": "struct RIFScheduler.Execution[]",
          "name": "executionList",
          "type": "tuple[]"
        }
      ],
      "stateMutability": "view",
      "type": "function"
    },
    {
      "inputs": [
        {
          "internalType": "bytes32",
          "name": "id",
          "type": "bytes32"
        }
      ],
      "name": "cancelScheduling",
      "outputs": [],
      "stateMutability": "nonpayable",
      "type": "function"
    },
    {
      "inputs": [
        {
          "internalType": "bytes32",
          "name": "id",
          "type": "bytes32"
        }
      ],
      "name": "execute",
      "outputs": [],
      "stateMutability": "nonpayable",
      "type": "function"
    },
    {
      "inputs": [
        {
          "internalType": "bytes[]",
          "name": "data",
          "type": "bytes[]"
        }
      ],
      "name": "multicall",
      "outputs": [
        {
          "internalType": "bytes[]",
          "name": "results",
          "type": "bytes[]"
        }
      ],
      "stateMutability": "nonpayable",
      "type": "function"
    }
  ],
  "bytecode": "0x60806040523480156200001157600080fd5b50604051620032e0380380620032e083398101604081905262000034916200012b565b60016000819055805460ff19169055600160a060020a0381166200008f576040517f08c379a00000000000000000000000000000000000000000000000000000000081526004016200008690620001bf565b60405180910390fd5b600160a060020a038216620000d2576040517f08c379a0000000000000000000000000000000000000000000000000000000008152600401620000869062000162565b6001805461010060a860020a031916610100600160a060020a039485160217905560028054600160a060020a03191691909216179055620001f6565b8051600160a060020a03811681146200012657600080fd5b919050565b600080604083850312156200013e578182fd5b62000149836200010e565b915062000159602084016200010e565b90509250929050565b60208082526026908201527f536572766963652070726f766964657220616464726573732063616e6e6f742060408201527f6265203078300000000000000000000000000000000000000000000000000000606082015260800190565b6020808252601b908201527f506179656520616464726573732063616e6e6f74206265203078300000000000604082015260600190565b6130da80620002066000396000f3fe60806040526004361061014f5760003560e060020a9004806393a1b8d9116100ba578063c0ee0b8a11610073578063c0ee0b8a14610394578063dcd90b8f146103b4578063dd437ac2146103e1578063debd4c3d1461040e578063e751f2711461042e578063eb6f263d1461044e5761014f565b806393a1b8d9146102c25780639e54517a146102e2578063ac9650d814610302578063ae90b2131461032f578063b162061614610344578063b395bb4b146103745761014f565b80635c8f16c31161010c5780635c8f16c3146102235780635c975abb1461024357806370876c981461026557806373eab687146102785780638456cb591461028b5780638d69e95e146102a05761014f565b806309648a9d1461015457806328e550e61461018a5780633f4ba83a146101ac578063410459ad146101c157806354ceba0a146101e1578063591c613c14610201575b600080fd5b34801561016057600080fd5b5061017461016f36600461244b565b61046e565b60405161018191906129c7565b60405180910390f35b34801561019657600080fd5b506101aa6101a536600461244b565b61065e565b005b3480156101b857600080fd5b506101aa61079a565b3480156101cd57600080fd5b506101aa6101dc3660046122e7565b6107d6565b3480156101ed57600080fd5b506101aa6101fc36600461244b565b610860565b34801561020d57600080fd5b506102166109b6565b60405161018191906129be565b34801561022f57600080fd5b5061021661023e366004612463565b6109bc565b34801561024f57600080fd5b50610258610a0e565b6040516101819190612990565b6101aa61027336600461260c565b610a17565b6102166102863660046125a0565b610bb7565b34801561029757600080fd5b506101aa610c0a565b3480156102ac57600080fd5b506102b5610c44565b60405161018191906127f7565b6102d56102d03660046123bc565b610c58565b6040516101819190612899565b3480156102ee57600080fd5b506101aa6102fd36600461244b565b610da2565b34801561030e57600080fd5b5061032261031d3660046123bc565b610fca565b60405161018191906128dd565b34801561033b57600080fd5b506102b561113f565b34801561035057600080fd5b5061036461035f36600461244b565b61114e565b6040516101819493929190612f1b565b34801561038057600080fd5b5061021661038f366004612303565b6111a7565b3480156103a057600080fd5b506102586103af36600461232e565b6111c4565b3480156103c057600080fd5b506103d46103cf366004612388565b611286565b604051610181919061293d565b3480156103ed57600080fd5b506104016103fc36600461244b565b6113ea565b6040516101819190612edb565b34801561041a57600080fd5b506101aa61042936600461262d565b6115a1565b34801561043a57600080fd5b506101aa61044936600461244b565b611758565b34801561045a57600080fd5b506102166104693660046122e7565b611b8d565b60008181526005602090815260408083208151610100810183528154600160a060020a0390811682526001830154948201949094526002820154909316918301919091526003810180548493929160608401916104ca9061300a565b80601f01602080910402602001604051908101604052809291908181526020018280546104f69061300a565b80156105435780601f1061051857610100808354040283529160200191610543565b820191906000526020600020905b81548152906001019060200180831161052657829003601f168201915b505050918352505060048201546020820152600582015460408201526006808301546060830152600783015460809092019160ff16908111156105995760e060020a634e487b7102600052602160045260246000fd5b60068111156105bb5760e060020a634e487b7102600052602160045260246000fd5b905250905060018160e0015160068111156105e95760e060020a634e487b7102600052602160045260246000fd5b14801561063d575042600382602001518154811061061a5760e060020a634e487b7102600052603260045260246000fd5b9060005260206000209060030201600101548260a0015161063b9190612fbc565b105b1561064c576004915050610659565b60e001519050610659565b505b919050565b6001546101009004600160a060020a031633146106995760405160e560020a62461bcd02815260040161069090612ea4565b60405180910390fd5b600381815481106106bd5760e060020a634e487b7102600052603260045260246000fd5b906000526020600020906003020160020160149054906101000a900460ff166106fb5760405160e560020a62461bcd028152600401610690906129d5565b6000600382815481106107215760e060020a634e487b7102600052603260045260246000fd5b6000918252602082206002600390920201018054921515740100000000000000000000000000000000000000000274ff0000000000000000000000000000000000000000199093169290921790915560405182917e4c797e6739331fc6d5c1ebdf112d63e6a68297fdfd28f35f54561e28fd868d91a250565b6001546101009004600160a060020a031633146107cc5760405160e560020a62461bcd02815260040161069090612ea4565b6107d4611ba8565b565b6001546101009004600160a060020a031633146108085760405160e560020a62461bcd02815260040161069090612ea4565b600160a060020a0381166108315760405160e560020a62461bcd02815260040161069090612dc8565b6002805473ffffffffffffffffffffffffffffffffffffffff1916600160a060020a0392909216919091179055565b600160008281526005602052604090206007015460ff1660068111156108995760e060020a634e487b7102600052602160045260246000fd5b146108b95760405160e560020a62461bcd02815260040161069090612a7a565b600081815260056020526040902054600160a060020a031633146108f25760405160e560020a62461bcd02815260040161069090612ea4565b600081815260056020908152604080832060078101805460ff191660061790558054600160a060020a031684526004835281842060018083015486529352908320805491939091610944908490612fbc565b909155505060405182907fa9492956e3406e5fabb393f5ac68540da3bb42721d741519c0eadd27a15d83c090600090a280546006820154604051600160a060020a039092169181156108fc0291906000818181858888f193505050501580156109b1573d6000803e3d6000fd5b505050565b60035490565b80516020808301516040808501516060860151608087015160a088015160c089015194516000986109f1989097969101612848565b604051602081830303815290604052805190602001209050919050565b60015460ff1690565b6000600160a060020a031660038381548110610a465760e060020a634e487b7102600052603260045260246000fd5b6000918252602090912060026003909202010154600160a060020a031614610b7d573415610a895760405160e560020a62461bcd02815260040161069090612cec565b610a94338383611c19565b60038281548110610ab85760e060020a634e487b7102600052603260045260246000fd5b6000918252602090912060026003909202010154600160a060020a03166323b872dd3330610ae68686611d18565b6040518463ffffffff1660e060020a028152600401610b079392919061280b565b602060405180830381600087803b158015610b2157600080fd5b505af1158015610b35573d6000803e3d6000fd5b505050506040513d601f19601f82011682018060405250810190610b59919061242b565b610b785760405160e560020a62461bcd02815260040161069090612b8d565b610bb3565b610b878282611d18565b3414610ba85760405160e560020a62461bcd02815260040161069090612c32565b610bb3338383611c19565b5050565b6000610bff878787878080601f016020809104026020016040519081016040528093929190818152602001838380828437600092019190915250899250889150349050611d62565b979650505050505050565b6001546101009004600160a060020a03163314610c3c5760405160e560020a62461bcd02815260040161069090612ea4565b6107d4612015565b6001546101009004600160a060020a031681565b606060008267ffffffffffffffff811115610c865760e060020a634e487b7102600052604160045260246000fd5b604051908082528060200260200182016040528015610caf578160200160208202803683370190505b50915060005b83811015610d78576000806000806000808a8a88818110610ce95760e060020a634e487b7102600052603260045260246000fd5b9050602002810190610cfb9190612f41565b810190610d08919061252d565b9550955095509550955095508088610d209190612fbc565b9750610d30868686868686611d62565b898881518110610d535760e060020a634e487b7102600052603260045260246000fd5b6020026020010181815250505050505050508080610d7090613042565b915050610cb5565b50348114610d9b5760405160e560020a62461bcd02815260040161069090612c8f565b5092915050565b610daa610a0e565b610dc95760405160e560020a62461bcd02815260040161069090612a0c565b336000908152600460209081526040808320848452909152902054610e035760405160e560020a62461bcd02815260040161069090612bc4565b336000908152600460209081526040808320848452909152812054610e29908390611d18565b336000908152600460209081526040808320868452909152812055905080610e515750610fc7565b6000600160a060020a031660038381548110610e805760e060020a634e487b7102600052603260045260246000fd5b6000918252602090912060026003909202010154600160a060020a03161415610ed657604051339082156108fc029083906000818181858888f19350505050158015610ed0573d6000803e3d6000fd5b50610bb3565b60038281548110610efa5760e060020a634e487b7102600052603260045260246000fd5b60009182526020909120600260039092020101546040517fa9059cbb000000000000000000000000000000000000000000000000000000008152600160a060020a039091169063a9059cbb90610f56903390859060040161282f565b602060405180830381600087803b158015610f7057600080fd5b505af1158015610f84573d6000803e3d6000fd5b505050506040513d601f19601f82011682018060405250810190610fa8919061242b565b610bb35760405160e560020a62461bcd02815260040161069090612d23565b50565b6060610fd4610a0e565b15610ff45760405160e560020a62461bcd02815260040161069090612bfb565b8167ffffffffffffffff81111561101e5760e060020a634e487b7102600052604160045260246000fd5b60405190808252806020026020018201604052801561105157816020015b606081526020019060019003908161103c5790505b50905060005b82811015610d9b57600080308686858181106110865760e060020a634e487b7102600052603260045260246000fd5b90506020028101906110989190612f41565b6040516110a6929190612749565b600060405180830381855af49150503d80600081146110e1576040519150601f19603f3d011682016040523d82523d6000602084013e6110e6565b606091505b5091509150816110f557600080fd5b808484815181106111195760e060020a634e487b7102600052603260045260246000fd5b60200260200101819052505050808061113190613042565b915050611057565b92915050565b600254600160a060020a031681565b6003818154811061115e57600080fd5b6000918252602090912060039091020180546001820154600290920154909250600160a060020a0381169074010000000000000000000000000000000000000000900460ff1684565b600460209081526000928352604080842090915290825290205481565b600080806111d48486018661260c565b9150915033600160a060020a0316600383815481106112065760e060020a634e487b7102600052603260045260246000fd5b6000918252602090912060026003909202010154600160a060020a0316146112435760405160e560020a62461bcd02815260040161069090612b1f565b61124d8282611d18565b861461126e5760405160e560020a62461bcd02815260040161069090612c32565b611279878383611c19565b5060019695505050505050565b600160a060020a03831660009081526006602052604090205460609082118015906112b057508183105b6112cf5760405160e560020a62461bcd02815260040161069090612dff565b6112d98383612ff3565b67ffffffffffffffff8111156113025760e060020a634e487b7102600052604160045260246000fd5b60405190808252806020026020018201604052801561133b57816020015b61132861210a565b8152602001906001900390816113205790505b509050825b828110156113e257600160a060020a038516600090815260066020526040902080546113989190839081106113885760e060020a634e487b7102600052603260045260246000fd5b90600052602060002001546113ea565b826113a38684612ff3565b815181106113c45760e060020a634e487b7102600052603260045260246000fd5b602002602001018190525080806113da90613042565b915050611340565b509392505050565b6113f261210a565b6000828152600560209081526040918290208251610100810184528154600160a060020a03908116825260018301549382019390935260028201549092169282019290925260038201805491929160608401919061144f9061300a565b80601f016020809104026020016040519081016040528092919081815260200182805461147b9061300a565b80156114c85780601f1061149d576101008083540402835291602001916114c8565b820191906000526020600020905b8154815290600101906020018083116114ab57829003601f168201915b505050918352505060048201546020820152600582015460408201526006808301546060830152600783015460809092019160ff169081111561151e5760e060020a634e487b7102600052602160045260246000fd5b60068111156115405760e060020a634e487b7102600052602160045260246000fd5b905250905061154e8261046e565b8160e0019060068111156115755760e060020a634e487b7102600052602160045260246000fd5b908160068111156115995760e060020a634e487b7102600052602160045260246000fd5b905250919050565b6001546101009004600160a060020a031633146115d35760405160e560020a62461bcd02815260040161069090612ea4565b6115db610a0e565b156115fb5760405160e560020a62461bcd02815260040161069090612bfb565b6040805160808101825284815260208101848152600160a060020a03808516938301938452600160608401818152600380548084018255600082905295519581027fc2575a0e9e593c00f959f8c92f12db2869c3395a3b0502d05e2516446f71f85b81019690965593517fc2575a0e9e593c00f959f8c92f12db2869c3395a3b0502d05e2516446f71f85c86015594517fc2575a0e9e593c00f959f8c92f12db2869c3395a3b0502d05e2516446f71f85d909401805495511515740100000000000000000000000000000000000000000274ff0000000000000000000000000000000000000000199590931673ffffffffffffffffffffffffffffffffffffffff1990961695909517939093161790925590546117189190612ff3565b7f398c82e2ccf5aaee72a60b95d6543133e8fc843e113441e9a2d767274c8d8eef84838560405161174b93929190612eee565b60405180910390a2505050565b6002600054141561177e5760405160e560020a62461bcd02815260040161069090612e6d565b600260005561178b610a0e565b156117ab5760405160e560020a62461bcd02815260040161069090612bfb565b60008181526005602052604090206001600782015460ff1660068111156117e55760e060020a634e487b7102600052602160045260246000fd5b146118055760405160e560020a62461bcd02815260040161069090612b56565b42600382600101548154811061182e5760e060020a634e487b7102600052603260045260246000fd5b906000526020600020906003020160010154826005015461184f9190612ff3565b1061186f5760405160e560020a62461bcd02815260040161069090612d91565b600461187a8361046e565b600681111561189c5760e060020a634e487b7102600052602160045260246000fd5b14156118b1576118ab82612072565b50611b85565b6002810154600482015460068301546040516000938493600160a060020a039091169290916118e4906003880190612759565b600060405180830381858888f193505050503d8060008114611922576040519150601f19603f3d011682016040523d82523d6000602084013e611927565b606091505b5091509150837fbbb9534b79cda5e36feb34cc697d5e728db1a530363e152c539fb70b3f75f7ac838360405161195e92919061299b565b60405180910390a281156119805760078301805460ff19166002179055611990565b60078301805460ff191660031790555b6000600160a060020a031660038460010154815481106119c35760e060020a634e487b7102600052603260045260246000fd5b6000918252602090912060026003909202010154600160a060020a031614611b0b576003836001015481548110611a0d5760e060020a634e487b7102600052603260045260246000fd5b60009182526020909120600391820201600290810154905460018601548354600160a060020a039384169463a9059cbb949093169291908110611a635760e060020a634e487b7102600052603260045260246000fd5b9060005260206000209060030201600001546040518363ffffffff1660e060020a028152600401611a9592919061282f565b602060405180830381600087803b158015611aaf57600080fd5b505af1158015611ac3573d6000803e3d6000fd5b505050506040513d601f19601f82011682018060405250810190611ae7919061242b565b611b065760405160e560020a62461bcd02815260040161069090612a43565b611b81565b600254600184015460038054600160a060020a03909316926108fc92908110611b475760e060020a634e487b7102600052603260045260246000fd5b600091825260208220600390910201546040518115909302929091818181858888f19350505050158015611b7f573d6000803e3d6000fd5b505b5050505b506001600055565b600160a060020a031660009081526006602052604090205490565b611bb0610a0e565b611bcf5760405160e560020a62461bcd02815260040161069090612a0c565b6001805460ff191690557f5db9ee0a495bf2e6ff9c91a7834c1ba4fdd244a5e8aa4e537bd38aeae4b073aa611c02612106565b604051611c0f91906127f7565b60405180910390a1565b611c21610a0e565b15611c415760405160e560020a62461bcd02815260040161069090612bfb565b60038281548110611c655760e060020a634e487b7102600052603260045260246000fd5b906000526020600020906003020160020160149054906101000a900460ff16611ca35760405160e560020a62461bcd02815260040161069090612e36565b600160a060020a038316600090815260046020908152604080832085845290915281208054839290611cd6908490612fbc565b9250508190555082600160a060020a03167f1d00f3ff8ba6a0ac98e7c747985ac34f1f706f5d0fa06abaa4c090a60598a65d838360405161174b929190612f0d565b600060038381548110611d3e5760e060020a634e487b7102600052603260045260246000fd5b90600052602060002090600302016000015482611d5b9190612fd4565b9392505050565b6000611d6c610a0e565b15611d8c5760405160e560020a62461bcd02815260040161069090612bfb565b600060405180610100016040528033600160a060020a0316815260200189815260200188600160a060020a0316815260200187815260200186815260200185815260200184815260200160016006811115611dfa5760e060020a634e487b7102600052602160045260246000fd5b90529050611e07816109bc565b336000908152600460209081526040808320858301518452909152902054909250611e475760405160e560020a62461bcd02815260040161069090612ab1565b8060a00151421115611e6e5760405160e560020a62461bcd02815260040161069090612d5a565b6000828152600560208190526040909120015415611ea15760405160e560020a62461bcd02815260040161069090612ae8565b3360009081526004602090815260408083208483015184529091528120805460019290611ecf908490612ff3565b90915550506000828152600560209081526040918290208351815473ffffffffffffffffffffffffffffffffffffffff19908116600160a060020a039283161783558584015160018401559385015160028301805490951691161790925560608301518051849392611f48926003850192910190612182565b506080820151816004015560a0820151816005015560c0820151816006015560e08201518160070160006101000a81548160ff02191690836006811115611fa25760e060020a634e487b7102600052602160045260246000fd5b0217905550503360009081526006602090815260408083208054600181018255908452919092200184905560a083015190518492507fb19e7bab761c1d438a654faa449e3736081f6c0e0a0786ddd4d318538452832091612002916129be565b60405180910390a2509695505050505050565b61201d610a0e565b1561203d5760405160e560020a62461bcd02815260040161069090612bfb565b6001805460ff1916811790557f62e78cea01bee320cd4e420270b5ea74000d11b0c9f74754ebdbfc544b05a258611c02612106565b60008181526005602090815260408083208054600160a060020a0316845260048352818420600180830154865293529083208054919390916120b5908490612fbc565b909155505060078101805460ff1916600517905580546006820154604051600160a060020a03909216916108fc82150291906000818181858888f193505050501580156109b1573d6000803e3d6000fd5b3390565b6040518061010001604052806000600160a060020a03168152602001600081526020016000600160a060020a03168152602001606081526020016000815260200160008152602001600081526020016000600681111561217d5760e060020a634e487b7102600052602160045260246000fd5b905290565b82805461218e9061300a565b90600052602060002090601f0160209004810192826121b057600085556121f6565b82601f106121c957805160ff19168380011785556121f6565b828001600101855582156121f6579182015b828111156121f65782518255916020019190600101906121db565b50612202929150612206565b5090565b5b808211156122025760008155600101612207565b80356106598161308f565b60008083601f840112612237578182fd5b50813567ffffffffffffffff81111561224e578182fd5b60208301915083602082850101111561226657600080fd5b9250929050565b600082601f83011261227d578081fd5b813567ffffffffffffffff81111561229757612297613076565b6122aa601f8201601f1916602001612f86565b8181528460208386010111156122be578283fd5b816020850160208301379081016020019190915292915050565b80356007811061065957600080fd5b6000602082840312156122f8578081fd5b8135611d5b8161308f565b60008060408385031215612315578081fd5b82356123208161308f565b946020939093013593505050565b60008060008060608587031215612343578182fd5b843561234e8161308f565b935060208501359250604085013567ffffffffffffffff811115612370578283fd5b61237c87828801612226565b95989497509550505050565b60008060006060848603121561239c578283fd5b83356123a78161308f565b95602085013595506040909401359392505050565b600080602083850312156123ce578182fd5b823567ffffffffffffffff808211156123e5578384fd5b818501915085601f8301126123f8578384fd5b813581811115612406578485fd5b8660208083028501011115612419578485fd5b60209290920196919550909350505050565b60006020828403121561243c578081fd5b81518015158114611d5b578182fd5b60006020828403121561245c578081fd5b5035919050565b600060208284031215612474578081fd5b813567ffffffffffffffff8082111561248b578283fd5b81840191506101008083870312156124a1578384fd5b6124aa81612f86565b90506124b58361221b565b8152602083013560208201526124cd6040840161221b565b60408201526060830135828111156124e3578485fd5b6124ef8782860161226d565b6060830152506080830135608082015260a083013560a082015260c083013560c082015261251f60e084016122d8565b60e082015295945050505050565b60008060008060008060c08789031215612545578182fd5b8635955060208701356125578161308f565b9450604087013567ffffffffffffffff811115612572578283fd5b61257e89828a0161226d565b945050606087013592506080870135915060a087013590509295509295509295565b60008060008060008060a087890312156125b8578384fd5b8635955060208701356125ca8161308f565b9450604087013567ffffffffffffffff8111156125e5578485fd5b6125f189828a01612226565b979a9699509760608101359660809091013595509350505050565b6000806040838503121561261e578182fd5b50508035926020909101359150565b600080600060608486031215612641578081fd5b8335925060208401359150604084013561265a8161308f565b809150509250925092565b60008151808452815b8181101561268a5760208185018101518683018201520161266e565b8181111561269b5782602083870101525b50601f01601f19169290920160200192915050565b600781106126d15760e060020a634e487b7102600052602160045260246000fd5b9052565b6000610100600160a060020a038084511685526020840151602086015280604085015116604086015250606083015181606086015261271682860182612665565b9150506080830151608085015260a083015160a085015260c083015160c085015260e08301516113e260e08601826126b0565b6000828483379101908152919050565b815460009081906002810460018083168061277557607f831692505b60208084108214156127985760e060020a634e487b710287526022600452602487fd5b8180156127ac57600181146127bd576127e9565b60ff198616895284890196506127e9565b6127c68a612fb0565b885b868110156127e15781548b8201529085019083016127c8565b505084890196505b509498975050505050505050565b600160a060020a0391909116815260200190565b600160a060020a039384168152919092166020820152604081019190915260600190565b600160a060020a03929092168252602082015260400190565b6000600160a060020a03808a16835288602084015280881660408401525060e0606083015261287a60e0830187612665565b60808301959095525060a081019290925260c090910152949350505050565b6020808252825182820181905260009190848201906040850190845b818110156128d1578351835292840192918401916001016128b5565b50909695505050505050565b6000602080830181845280855180835260408601915060408482028701019250838701855b8281101561293057603f1988860301845261291e858351612665565b94509285019290850190600101612902565b5092979650505050505050565b6000602080830181845280855180835260408601915060408482028701019250838701855b8281101561293057603f1988860301845261297e8583516126d5565b94509285019290850190600101612962565b901515815260200190565b60008315158252604060208301526129b66040830184612665565b949350505050565b90815260200190565b6020810161113982846126b0565b6020808252601c908201527f54686520706c616e20697320616c726561647920696e61637469766500000000604082015260600190565b60208082526014908201527f5061757361626c653a206e6f7420706175736564000000000000000000000000604082015260600190565b6020808252601a908201527f436f756c646e2774207472616e7366657220746f207061796565000000000000604082015260600190565b60208082526019908201527f5472616e73616374696f6e206e6f74207363686564756c656400000000000000604082015260600190565b60208082526014908201527f4e6f2062616c616e636520617661696c61626c65000000000000000000000000604082015260600190565b60208082526011908201527f416c7265616479207363686564756c6564000000000000000000000000000000604082015260600190565b60208082526009908201527f42616420746f6b656e0000000000000000000000000000000000000000000000604082015260600190565b60208082526010908201527f416c726561647920657865637574656400000000000000000000000000000000604082015260600190565b60208082526012908201527f5061796d656e7420646964277420706173730000000000000000000000000000604082015260600190565b60208082526014908201527f4e6f2062616c616e636520746f20726566756e64000000000000000000000000604082015260600190565b60208082526010908201527f5061757361626c653a2070617573656400000000000000000000000000000000604082015260600190565b6020808252602f908201527f5472616e7366657272656420616d6f756e7420646f65736e2774206d6174636860408201527f20746f74616c2070757263686173650000000000000000000000000000000000606082015260800190565b60208082526024908201527f457865637574696f6e7320746f74616c2076616c756520646f65736e2774206d60408201527f6174636800000000000000000000000000000000000000000000000000000000606082015260800190565b6020808252601f908201527f72425443206e6f7420616363657074656420666f72207468697320706c616e00604082015260600190565b6020808252600d908201527f526566756e64206661696c656400000000000000000000000000000000000000604082015260600190565b6020808252601e908201527f43616e6e6f74207363686564756c6520697420696e2074686520706173740000604082015260600190565b60208082526008908201527f546f6f20736f6f6e000000000000000000000000000000000000000000000000604082015260600190565b6020808252601b908201527f506179656520616464726573732063616e6e6f74206265203078300000000000604082015260600190565b6020808252600c908201527f4f7574206f662072616e67650000000000000000000000000000000000000000604082015260600190565b6020808252600d908201527f496e61637469766520706c616e00000000000000000000000000000000000000604082015260600190565b6020808252601f908201527f5265656e7472616e637947756172643a207265656e7472616e742063616c6c00604082015260600190565b6020808252600e908201527f4e6f7420617574686f72697a6564000000000000000000000000000000000000604082015260600190565b600060208252611d5b60208301846126d5565b928352600160a060020a03919091166020830152604082015260600190565b918252602082015260400190565b9384526020840192909252600160a060020a031660408301521515606082015260800190565b6000808335601e19843603018112612f57578283fd5b83018035915067ffffffffffffffff821115612f71578283fd5b60200191503681900382131561226657600080fd5b60405181810167ffffffffffffffff81118282101715612fa857612fa8613076565b604052919050565b60009081526020902090565b60008219821115612fcf57612fcf61305d565b500190565b6000816000190483118215151615612fee57612fee61305d565b500290565b6000828210156130055761300561305d565b500390565b60028104600182168061301e57607f821691505b602082108114156106575760e060020a634e487b7102600052602260045260246000fd5b60006000198214156130565761305661305d565b5060010190565b60e060020a634e487b7102600052601160045260246000fd5b60e060020a634e487b7102600052604160045260246000fd5b600160a060020a0381168114610fc757600080fdfea264697066735822122033dcfc45fce301c1a392583229fb0b569fd8f6b270a50c7209177b2aacaba5a064736f6c63430008000033",
  "immutableReferences": {},
  "source": "// SPDX-License-Identifier: MIT\npragma solidity ^0.8.0;\nimport '@rsksmart/erc677/contracts/IERC677.sol';\nimport '@rsksmart/erc677/contracts/IERC677TransferReceiver.sol';\nimport '@openzeppelin/contracts/security/ReentrancyGuard.sol';\nimport '@openzeppelin/contracts/security/Pausable.sol';\n\ncontract RIFScheduler is IERC677TransferReceiver, ReentrancyGuard, Pausable {\n  enum ExecutionState { Nonexistent, Scheduled, ExecutionSuccessful, ExecutionFailed, Overdue, Refunded, Cancelled }\n  // State transitions for scheduled executions:\n  //   Initial state: Nonexistent\n  //   Nonexistent -> Scheduled (requestor scheduled execution)\n  //   Scheduled -> Cancelled (requestor cancelled execution)\n  //   Scheduled -> ExecutionSuccessful (call was executed in the given time and did not fail)\n  //   Scheduled -> ExecutionFailed (call was executed in the given time but failed)\n  //   Scheduled -> Overdue (execution window has passed, expected earlier)\n  //   Overdue -> Refunded (refund for overdue execution paid)\n\n  struct Execution {\n    address requestor;\n    uint256 plan;\n    address to;\n    bytes data;\n    uint256 gas;\n    uint256 timestamp;\n    uint256 value;\n    ExecutionState state;\n  }\n\n  struct Plan {\n    uint256 pricePerExecution;\n    uint256 window;\n    IERC677 token;\n    bool active;\n  }\n\n  address public serviceProvider;\n  address public payee;\n\n  Plan[] public plans;\n\n  mapping(address => mapping(uint256 => uint256)) public remainingExecutions;\n  mapping(bytes32 => Execution) private executions;\n  mapping(address => bytes32[]) private executionsByRequestor; // redundant with executions, allows requestors to query all their executions wihtout any 2nd layer\n\n  event PlanAdded(uint256 indexed index, uint256 price, address token, uint256 window);\n  event PlanRemoved(uint256 indexed index);\n\n  event ExecutionPurchased(address indexed requestor, uint256 plan, uint256 amount);\n  event ExecutionRequested(bytes32 indexed id, uint256 timestamp);\n  event Executed(bytes32 indexed id, bool success, bytes result);\n  event ExecutionCancelled(bytes32 indexed id);\n\n  modifier onlyProvider() {\n    require(address(msg.sender) == serviceProvider, 'Not authorized');\n    _;\n  }\n\n  constructor(address serviceProvider_, address payee_) {\n    require(payee_ != address(0x0), 'Payee address cannot be 0x0');\n    require(serviceProvider_ != address(0x0), 'Service provider address cannot be 0x0');\n    serviceProvider = serviceProvider_;\n    payee = payee_;\n  }\n\n  ///////////\n  // ADMIN //\n  ///////////\n\n  function addPlan(\n    uint256 price,\n    uint256 window,\n    IERC677 token\n  ) external onlyProvider whenNotPaused {\n    plans.push(Plan(price, window, token, true));\n    emit PlanAdded(plans.length - 1, price, address(token), window);\n  }\n\n  function removePlan(uint256 plan) external onlyProvider {\n    require(plans[plan].active, 'The plan is already inactive');\n    plans[plan].active = false;\n    emit PlanRemoved(plan);\n  }\n\n  function plansCount() external view returns (uint256) {\n    return plans.length;\n  }\n\n  function setPayee(address payee_) external onlyProvider {\n    require(payee_ != address(0x0), 'Payee address cannot be 0x0');\n    payee = payee_;\n  }\n\n  function pause() external onlyProvider {\n    _pause();\n  }\n\n  function unpause() external onlyProvider {\n    _unpause();\n  }\n\n  //////////////\n  // PURCHASE //\n  //////////////\n\n  /*\n   * Plans are paid via plan.token\n   * If plan.token is 0, the it is paid via RBTC\n   *   Use purchase method and set the total price in the transaction value\n   * Otherwhise, if it supports ERC-677 you can use\n   *   transferAndCall(\n   *     to: this address,\n   *     value: total price,\n   *     data: (uint256 plan, uint256 quantity) abi encoded)\n   * If it supports ERC-20\n   *   First, approve this contract with approve(spender: this address, amount: total price)\n   *   Then use pruchase method and set tx value to 0\n   **/\n\n  function totalPrice(uint256 plan, uint256 quantity) private view returns (uint256) {\n    return quantity * plans[plan].pricePerExecution;\n  }\n\n  function doPurchase(\n    address requestor,\n    uint256 plan,\n    uint256 amount\n  ) private whenNotPaused {\n    require(plans[plan].active, 'Inactive plan');\n    remainingExecutions[requestor][plan] += amount;\n    emit ExecutionPurchased(requestor, plan, amount);\n  }\n\n  // purcahse with ERC-20 and rBTC, for rBTC the plan's token address 0x0\n  function purchase(uint256 plan, uint256 quantity) external payable {\n    if (address(plans[plan].token) != address(0x0)) {\n      require(msg.value == 0, 'rBTC not accepted for this plan');\n      doPurchase(msg.sender, plan, quantity);\n      require(plans[plan].token.transferFrom(msg.sender, address(this), totalPrice(plan, quantity)), \"Payment did't pass\");\n    } else {\n      require(msg.value == totalPrice(plan, quantity), \"Transferred amount doesn't match total purchase\");\n      doPurchase(msg.sender, plan, quantity);\n    }\n  }\n\n  // purcahse with ERC-677\n  function tokenFallback(\n    address from,\n    uint256 amount,\n    bytes calldata data\n  ) external override returns (bool) {\n    (uint256 plan, uint256 quantity) = abi.decode(data, (uint256, uint256));\n\n    require(address(plans[plan].token) == address(msg.sender), 'Bad token');\n    require(amount == totalPrice(plan, quantity), \"Transferred amount doesn't match total purchase\");\n\n    doPurchase(from, plan, quantity);\n    return true;\n  }\n\n  // If the service provider pauses the contract, it means that is no longer\n  // providing the service. In this case, users that have bought any plan can request\n  // a refund.\n  function requestPlanRefund(uint256 plan) external whenPaused {\n    require(remainingExecutions[msg.sender][plan] > 0, 'No balance to refund');\n    uint256 amountToRefund = totalPrice(plan, remainingExecutions[msg.sender][plan]);\n    remainingExecutions[msg.sender][plan] = 0;\n    if (amountToRefund == 0) return;\n    if (address(plans[plan].token) == address(0x0)) {\n      payable(msg.sender).transfer(amountToRefund);\n    } else {\n      require(plans[plan].token.transfer(msg.sender, amountToRefund), 'Refund failed');\n    }\n  }\n\n  ////////////////\n  // SCHEDULING //\n  ////////////////\n\n  function getExecutionId(Execution memory execution) public pure returns (bytes32) {\n    return\n      keccak256(\n        abi.encode(execution.requestor, execution.plan, execution.to, execution.data, execution.gas, execution.timestamp, execution.value)\n      );\n  }\n\n  function _schedule(\n    uint256 plan,\n    address to,\n    bytes memory data,\n    uint256 gas,\n    uint256 timestamp,\n    uint256 value\n  ) private whenNotPaused returns (bytes32 id) {\n    Execution memory execution = Execution(msg.sender, plan, to, data, gas, timestamp, value, ExecutionState.Scheduled);\n    id = getExecutionId(execution);\n\n    require(remainingExecutions[msg.sender][execution.plan] > 0, 'No balance available');\n    // see notice bellow, about disabled cehcks\n    // slither-disable-next-line timestamp\n    require(block.timestamp <= execution.timestamp, 'Cannot schedule it in the past');\n    require(executions[id].timestamp == 0, 'Already scheduled'); // no execution can be scheduled with timestamp 0\n\n    remainingExecutions[msg.sender][execution.plan] -= 1;\n    executions[id] = execution;\n    executionsByRequestor[msg.sender].push(id);\n    emit ExecutionRequested(id, execution.timestamp);\n  }\n\n  function schedule(\n    uint256 plan,\n    address to,\n    bytes calldata data,\n    uint256 gas,\n    uint256 timestamp\n  ) external payable returns (bytes32 id) {\n    return (_schedule(plan, to, data, gas, timestamp, msg.value));\n  }\n\n  function batchSchedule(bytes[] calldata data) external payable returns (bytes32[] memory ids) {\n    uint256 totalValue;\n    ids = new bytes32[](data.length);\n    for (uint256 i = 0; i < data.length; i++) {\n      (uint256 plan, address to, bytes memory txData, uint256 gas, uint256 timestamp, uint256 value) =\n        abi.decode(data[i], (uint256, address, bytes, uint256, uint256, uint256));\n      totalValue += value;\n      ids[i] = _schedule(plan, to, txData, gas, timestamp, value);\n    }\n    require(totalValue == msg.value, \"Executions total value doesn't match\");\n  }\n\n  //////////////\n  // QUERYING //\n  //////////////\n\n  // slither-disable-next-line timestamp\n  function getState(bytes32 id) public view returns (ExecutionState) {\n    Execution memory execution = executions[id];\n    if (execution.state == ExecutionState.Scheduled && ((execution.timestamp + plans[execution.plan].window) < block.timestamp)) {\n      return ExecutionState.Overdue;\n    } else {\n      return execution.state;\n    }\n  }\n\n  function getExecutionById(bytes32 id) public view returns (Execution memory execution) {\n    execution = executions[id];\n    execution.state = getState(id);\n  }\n\n  function executionsByRequestorCount(address requestor) external view returns (uint256) {\n    return executionsByRequestor[requestor].length;\n  }\n\n  function getExecutionsByRequestor(\n    address requestor,\n    uint256 fromIndex,\n    uint256 toIndex\n  ) external view returns (Execution[] memory executionList) {\n    require(executionsByRequestor[requestor].length >= toIndex && fromIndex < toIndex, 'Out of range');\n    executionList = new Execution[](toIndex - fromIndex);\n    for (uint256 i = fromIndex; i < toIndex; i++) {\n      executionList[i - fromIndex] = getExecutionById(executionsByRequestor[requestor][i]);\n    }\n  }\n\n  ////////////////\n  // CANCELLING //\n  ////////////////\n\n  function cancelScheduling(bytes32 id) external {\n    require(executions[id].state == ExecutionState.Scheduled, 'Transaction not scheduled'); // Checking state directly to consider Scheduled and Overdue\n    require(msg.sender == executions[id].requestor, 'Not authorized');\n\n    Execution storage execution = executions[id];\n    execution.state = ExecutionState.Cancelled;\n    remainingExecutions[execution.requestor][execution.plan] += 1;\n    emit ExecutionCancelled(id);\n    payable(execution.requestor).transfer(execution.value);\n  }\n\n  ///////////////\n  // EXECUTION //\n  ///////////////\n\n  // Notice about omitted checks:\n  // reentrancy-*: prevented by nonReentrant modifier. The contract makes an external call to\n  //   execute the scheduled transaction on the specified contract. It needs to get the execution\n  //   result before emitting the event and changing the matatransaction state.\n  // low-level-calls: the contract will execute call wether the contract has code or not. It is\n  //   responsability of the requestor to choose the correct contract address.\n  // timestamp: timestamp manipulation should be considered in the window set by the service provider\n\n  function refund(bytes32 id) private {\n    Execution storage execution = executions[id];\n    remainingExecutions[execution.requestor][execution.plan] += 1;\n    execution.state = ExecutionState.Refunded;\n    payable(execution.requestor).transfer(execution.value);\n  }\n\n  // This method can be executed by any account. It will execute the shceduled transaction\n  // only if the current time is in [timestamp - window, timestamp + window], and after execution\n  // will pay the service provider and ensure payment is received.\n  function execute(bytes32 id) external nonReentrant whenNotPaused {\n    Execution storage execution = executions[id];\n\n    require(execution.state == ExecutionState.Scheduled, 'Already executed');\n    // slither-disable-next-line timestamp\n    require((execution.timestamp - plans[execution.plan].window) < block.timestamp, 'Too soon');\n\n    if (getState(id) == ExecutionState.Overdue) {\n      refund(id);\n      return;\n    }\n\n    // slither-disable-next-line low-level-calls\n    (bool success, bytes memory result) = payable(execution.to).call{ gas: execution.gas, value: execution.value }(execution.data);\n\n    // slither-disable-next-line reentrancy-events\n    emit Executed(id, success, result);\n\n    if (success) {\n      // slither-disable-next-line reentrancy-eth\n      execution.state = ExecutionState.ExecutionSuccessful;\n    } else {\n      // slither-disable-next-line reentrancy-eth\n      execution.state = ExecutionState.ExecutionFailed;\n    }\n\n    if (address(plans[execution.plan].token) != address(0x0)) {\n      require(plans[execution.plan].token.transfer(payee, plans[execution.plan].pricePerExecution), \"Couldn't transfer to payee\");\n    } else {\n      payable(payee).transfer(plans[execution.plan].pricePerExecution);\n    }\n  }\n\n  function multicall(bytes[] calldata data) external whenNotPaused returns (bytes[] memory results) {\n    results = new bytes[](data.length);\n    for (uint256 i = 0; i < data.length; i++) {\n      (bool success, bytes memory result) = address(this).delegatecall(data[i]);\n      require(success);\n      results[i] = result;\n    }\n    return results;\n  }\n}\n",
  "sourcePath": "/Users/ilanolkies/code/rif-schedulers/rif-scheduler-contracts/contracts/RIFScheduler.sol",
  "compiler": {
    "name": "solc",
    "version": "0.8.0+commit.c7dfd78e.Emscripten.clang"
  },
  "schemaVersion": "3.4.1",
  "updatedAt": "2021-06-18T22:38:42.694Z",
  "devdoc": {
    "kind": "dev",
    "methods": {
      "paused()": {
        "details": "Returns true if the contract is paused, and false otherwise."
      }
    },
    "version": 1
  },
  "userdoc": {
    "kind": "user",
    "methods": {},
    "version": 1
  }
}